:020000040800F2
:1000000000C00020B91F00089D160008A3160008B4
:10001000A9160008AF160008B51600080000000079
:10002000000000000000000000000000BB160008F7
:10003000C716000800000000D3160008DF160008ED
:10004000012000080120000801200008012000080C
:1000500001200008012000080120000801200008FC
:1000600001200008012000080120000801200008EC
:1000700001200008012000080120000801200008DC
:1000800001200008012000080120000801200008CC
:1000900001200008012000080120000801200008BC
:1000A00001200008012000080120000801200008AC
:1000B000012000080120000801200008012000089C
:1000C000012000080120000801200008012000088C
:1000D000012000080120000801200008012000087C
:1000E000012000080120000801200008012000086C
:1000F000012000080120000801200008012000085C
:10010000012000080120000801200008012000084B
:100110000120000801200008ED1600080120000859
:10012000012000080120000801200008012000082B
:1001300000000000000000000000000000000000BF
:1001400000000000000000000000000000000000AF
:10015000000000000000000000000000000000009F
:10016000000000000000000000000000000000008F
:10017000000000000000000000000000000000007F
:10018000000000000000000000000000000000006F
:10019000000000000000000000000000000000005F
:1001A000000000000000000000000000000000004F
:1001B000000000000000000000000000000000003F
:1001C000000000000000000000000000000000002F
:1001D000000000000000000000000000000000001F
:0401E0005FF8E0F1F3
:1001E80010B5054C237833B9044B13B10448AFF369
:1001F80000800123237010BDD401002000000000FE
:10020800286B000808B5034B1BB103490348AFF33B
:10021800008008BD00000000D8010020286B0008FD
:10022800034613F8012B002AFBD1181A013870472E
:100238004FF0FF0C1CEAD0521EBF1CEAD15392EAC1
:100248000C0F93EA0C0F6FD01A4480EA010C40029D
:1002580018BF5FEA41211ED04FF0006343EA5010F7
:1002680043EA5111A0FB01310CF00040B1F5000F39
:100278003EBF490041EAD3715B0040EA010062F1E8
:100288007F02FD2A1DD8B3F1004F40EBC25008BFD2
:1002980020F00100704790F0000F0CF0004C08BFF0
:1002A80049024CEA502040EA51207F3AC2BFD2F1BD
:1002B800FF0340EAC250704740F400004FF00003CB
:1002C800013A5DDC12F1190FDCBF00F00040704705
:1002D800C2F10002410021FA02F1C2F1200200FA43
:1002E80002FC5FEA310040F1000053EA4C0308BF0A
:1002F80020EADC70704792F0000F00F0004C02BF5B
:10030800400010F4000F013AF9D040EA0C0093F0D5
:10031800000F01F0004C02BF490011F4000F013B2F
:10032800F9D041EA0C018FE70CEAD15392EA0C0F9D
:1003380018BF93EA0C0F0AD030F0004C18BF31F008
:10034800004CD8D180EA010000F00040704790F0DE
:10035800000F17BF90F0004F084691F0000F91F082
:10036800004F14D092EA0C0F01D142020FD193EA48
:100378000C0F03D14B0218BF084608D180EA0100D0
:1003880000F0004040F0FE4040F40000704740F0AC
:10039800FE4040F44000704781F0004102E000BF99
:1003A80083F0004330B54FEA41044FEA430594EA2D
:1003B800050F08BF90EA020F1FBF54EA000C55EA68
:1003C800020C7FEA645C7FEA655C00F0E2804FEA39
:1003D8005454D4EB5555B8BF6D420CDD2C4480EA1B
:1003E800020281EA030382EA000083EA010180EA4B
:1003F800020281EA0303362D88BF30BD11F0004F99
:100408004FEA01314FF4801C4CEA113102D04042CE
:1004180061EB410113F0004F4FEA03334CEA133309
:1004280002D0524263EB430394EA050F00F0A78021
:10043800A4F10104D5F1200E0DDB02FA0EFC22FA1C
:1004480005F2801841F1000103FA0EF2801843FA10
:1004580005F359410EE0A5F120050EF1200E012A01
:1004680003FA0EFC28BF4CF0020C43FA05F3C0183F
:1004780051EBE37101F0004507D54FF0000EDCF1B8
:10048800000C7EEB00006EEB0101B1F5801F1BD361
:10049800B1F5001F0CD349085FEA30004FEA3C0C65
:1004A80004F101044FEA445212F5800F80F09A805B
:1004B800BCF1004F08BF5FEA500C50F1000041EB5F
:1004C800045141EA050130BD5FEA4C0C404141EB63
:1004D8000101013C28BFB1F5801FE9D291F0000F5E
:1004E80004BF01460020B1FA81F308BF2033A3F10D
:1004F8000B03B3F120020CDA0C3208DD02F1140C04
:10050800C2F10C0201FA0CF021FA02F10CE002F13E
:100518001402D8BFC2F1200C01FA02F120FA0CFC37
:10052800DCBF41EA0C019040E41AA2BF01EB045180
:10053800294330BD6FEA04041F3C1CDA0C340EDC7E
:1005480004F11404C4F1200220FA04F001FA02F3C1
:1005580040EA030021FA04F345EA030130BDC4F17F
:100568000C04C4F1200220FA02F001FA04F340EA74
:100578000300294630BD21FA04F0294630BD94F025
:10058800000F83F4801306BF81F480110134013D0C
:100598004EE77FEA645C18BF7FEA655C29D094EA7D
:1005A800050F08BF90EA020F05D054EA000C04BFFB
:1005B8001946104630BD91EA030F1EBF00210020E6
:1005C80030BD5FEA545C05D14000494128BF41F085
:1005D800004130BD14F580043CBF01F5801130BDE9
:1005E80001F0004545F0FE4141F470014FF0000074
:1005F80030BD7FEA645C1ABF194610467FEA655C25
:100608001CBF0B46024650EA013406BF52EA0335C6
:1006180091EA030F41F4002130BD00BF90F0000FB4
:1006280004BF0021704730B54FF4806404F13204F0
:100638004FF000054FF0000150E700BF90F0000FA9
:1006480004BF0021704730B54FF4806404F13204D0
:1006580010F0004548BF40424FF000013EE700BFA0
:1006680042004FEAE2014FEA31014FEA02701FBF30
:1006780012F07F4393F07F4F81F06051704732F062
:100688007F4208BF704793F07F4F04BF41F40021B9
:10069800704730B54FF4607401F0004521F0004117
:1006A8001CE700BF50EA010208BF704730B54FF0A1
:1006B80000050AE050EA010208BF704730B511F0A2
:1006C800004502D5404261EB41014FF4806404F1DA
:1006D80032045FEA915C3FF4D8AE4FF003025FEA60
:1006E800DC0C18BF03325FEADC0C18BF033202EBE4
:1006F800DC02C2F1200300FA03FC20FA02F001FA3E
:1007080003FE40EA0E0021FA02F11444BDE600BFE0
:1007180070B54FF0FF0C4CF4E06C1CEA11541DBF8F
:100728001CEA135594EA0C0F95EA0C0F00F0DEF85A
:100738002C4481EA030621EA4C5123EA4C5350EA3F
:10074800013518BF52EA033541F4801143F4801390
:1007580038D0A0FB02CE4FF00005E1FB02E506F021
:100768000042E0FB03E54FF00006E1FB03569CF076
:10077800000F18BF4EF0010EA4F1FF04B6F5007F7C
:1007880064F5407404D25FEA4E0E6D4146EB0606EE
:1007980042EAC62141EA55514FEAC52040EA5E5077
:1007A8004FEACE2EB4F1FD0C88BFBCF5E06F1ED821
:1007B800BEF1004F08BF5FEA500E50F1000041EB58
:1007C800045170BD06F0004646EA010140EA020005
:1007D80081EA0301B4EB5C04C2BFD4EB0C0541EA27
:1007E800045170BD41F480114FF0000E013C00F33C
:1007F800AB8014F1360FDEBF002001F0004170BD60
:10080800C4F10004203C35DA0C341BDC04F1140478
:10081800C4F1200500FA05F320FA04F001FA05F204
:1008280040EA020001F0004221F0004110EBD370D1
:1008380021FA04F642EB06015EEA430E08BF20EAFD
:10084800D37070BDC4F10C04C4F1200500FA04F3A0
:1008580020FA05F001FA04F240EA020001F0004132
:1008680010EBD37041F100015EEA430E08BF20EAA5
:10087800D37070BDC4F1200500FA05F24EEA020EED
:1008880020FA04F301FA05F243EA020321FA04F01C
:1008980001F0004121FA04F220EA020000EBD370D3
:1008A8005EEA430E08BF20EAD37070BD94F0000FD3
:1008B8000FD101F00046400041EB010111F4801F07
:1008C80008BF013CF7D041EA060195F0000F18BFB8
:1008D800704703F00046520043EB030313F4801FF4
:1008E80008BF013DF7D043EA0603704794EA0C0FAE
:1008F8000CEA135518BF95EA0C0F0CD050EA4106C4
:1009080018BF52EA4306D1D181EA030101F0004140
:100918004FF0000070BD50EA410606BF1046194668
:1009280052EA430619D094EA0C0F02D150EA013674
:1009380013D195EA0C0F05D152EA03361CBF1046B5
:1009480019460AD181EA030101F0004141F0FE4154
:1009580041F470014FF0000070BD41F0FE4141F4D8
:10096800780170BD70B54FF0FF0C4CF4E06C1CEAD8
:1009780011541DBF1CEA135594EA0C0F95EA0C0F8D
:1009880000F0A7F8A4EB050481EA030E52EA033548
:100998004FEA013100F088804FEA03334FF0805569
:1009A80045EA131343EA12634FEA022245EA111596
:1009B80045EA10654FEA00260EF000419D4208BF47
:1009C800964244F1FD0404F5407402D25B084FEAF4
:1009D8003202B61A65EB03055B084FEA32024FF4A0
:1009E80080104FF4002CB6EB020E75EB030E22BFFD
:1009F800B61A754640EA0C005B084FEA3202B6EBBD
:100A0800020E75EB030E22BFB61A754640EA5C006B
:100A18005B084FEA3202B6EB020E75EB030E22BFFB
:100A2800B61A754640EA9C005B084FEA3202B6EBFC
:100A3800020E75EB030E22BFB61A754640EADC00BB
:100A480055EA060E18D04FEA051545EA16754FEA1D
:100A580006164FEAC30343EA52734FEAC2025FEA3B
:100A68001C1CC0D111F4801F0BD141EA00014FF0CA
:100A780000004FF0004CB6E711F4801F04BF01439B
:100A88000020B4F1FD0C88BFBCF5E06F3FF6AFAEB7
:100A9800B5EB030C04BFB6EB020C5FEA500C50F147
:100AA800000041EB045170BD0EF0004E4EEA1131CA
:100AB80014EB5C04C2BFD4EB0C0541EA045170BDD1
:100AC80041F480114FF0000E013C90E645EA060E15
:100AD8008DE60CEA135594EA0C0F08BF95EA0C0F43
:100AE8003FF43BAF94EA0C0F0AD150EA01347FF48B
:100AF80034AF95EA0C0F7FF425AF104619462CE762
:100B080095EA0C0F06D152EA03353FF4FDAE1046C4
:100B1800194622E750EA410618BF52EA43067FF415
:100B2800C5AE50EA41047FF40DAF52EA43057FF4A5
:100B3800EBAE12E74FF0FF3C06E000BF4FF0010CB0
:100B480002E000BF4FF0010C4DF804CD4FEA410C14
:100B58007FEA6C5C4FEA430C18BF7FEA6C5C1BD0E1
:100B680001B050EA410C0CBF52EA430C91EA030F62
:100B780002BF90EA020F0020704710F1000F91EABF
:100B8800030F58BF994208BF90422CBFD8176FEA8D
:100B9800E37040F0010070474FEA410C7FEA6C5C5B
:100BA80002D150EA013C07D14FEA430C7FEA6C5C62
:100BB800D6D152EA033CD3D05DF8040B704700BF8E
:100BC8008446104662468C461946634600E000BFDC
:100BD80001B5FFF7B7FF002848BF10F1000F01BDAE
:100BE8004DF808EDFFF7F4FF0CBF012000205DF879
:100BF80008FB00BF4DF808EDFFF7EAFF34BF0120FE
:100C080000205DF808FB00BF4DF808EDFFF7E0FF96
:100C180094BF012000205DF808FB00BF4DF808EDE7
:100C2800FFF7CEFF94BF012000205DF808FB00BF4E
:100C38004DF808EDFFF7C4FF34BF012000205DF830
:100C480008FB00BF4FEA410C7FEA6C5C02D150EA16
:100C5800013C0AD14FEA430C7FEA6C5C02D152EAAC
:100C6800033C02D14FF0000070474FF0010070477D
:100C78004FEA410212F5001215D211D56FF47873BC
:100C8800B3EB625212D94FEAC12343F0004343EA5F
:100C9800505311F0004F23FA02F018BF404270473A
:100CA8004FF00000704750EA013005D111F00040C4
:100CB80008BF6FF0004070474FF00000704700BF5A
:100CC8004FEA4102B2F1E04324BFB3F5001CDCF166
:100CD800FE5C0DD901F0004C4FEAC0024CEA50709E
:100CE800B2F1004F40EB830008BF20F001007047CD
:100CF80011F0804F21D113F13872BCBF01F00040D0
:100D0800704741F480114FEA5252C2F11802C2F101
:100D1800200C10FA0CF320FA02F018BF40F0010082
:100D28004FEAC1234FEAD32303FA0CFC40EA0C0034
:100D380023FA02F34FEA4303CCE77FEA625307D171
:100D480050EA01331EBF4FF0FE4040F440007047A8
:100D580001F0004040F0FE4040F40000704700BF42
:100D680080F0004002E000BF81F0004142001FBF58
:100D78005FEA410392EA030F7FEA226C7FEA236C61
:100D88006AD04FEA1262D2EB1363C1BFD218414056
:100D980048404140B8BF5B42192B88BF704710F0EC
:100DA800004F40F4000020F07F4018BF404211F08F
:100DB800004F41F4000121F07F4118BF494292EAF7
:100DC800030F3FD0A2F1010241FA03FC10EB0C0023
:100DD800C3F1200301FA03F100F0004302D54942B0
:100DE80060EB4000B0F5000F13D3B0F1807F06D35D
:100DF80040084FEA310102F10102FE2A51D2B1F155
:100E0800004F40EBC25008BF20F0010040EA030049
:100E18007047490040EB0000013A28BFB0F5000FC9
:100E2800EDD2B0FA80FCACF1080CB2EB0C0200FA7F
:100E38000CF0AABF00EBC25052421843BCBFD040CE
:100E48001843704792F0000F81F4000106BF80F448
:100E580000000132013BB5E74FEA41037FEA226C0B
:100E680018BF7FEA236C21D092EA030F04D092F0D6
:100E7800000F08BF0846704790EA010F1CBF00200A
:100E8800704712F07F4F04D1400028BF40F0004067
:100E9800704712F100723CBF00F50000704700F087
:100EA800004343F0FE4040F4000070477FEA2262AE
:100EB80016BF08467FEA23630146420206BF5FEA7F
:100EC800412390EA010F40F4800070474FF000037F
:100ED80004E000BF10F0004348BF40425FEA000C46
:100EE80008BF704743F0964301464FF000001CE0EE
:100EF80050EA010208BF70474FF000030AE000BF44
:100F080050EA010208BF704711F0004302D5404281
:100F180061EB41015FEA010C02BF844601460020F3
:100F280043F0B64308BFA3F18053A3F50003BCFA0E
:100F38008CF2083AA3EBC25310DB01FA02FC6344BB
:100F480000FA02FCC2F12002BCF1004F20FA02F2C2
:100F580043EB020008BF20F00100704702F12002B5
:100F680001FA02FCC2F1200250EA4C0021FA02F216
:100F780043EB020008BF20EADC7070474FEA4002EA
:100F8800B2F1FE4F0FD34FF09E03B3EB12620DD9AF
:100F98004FEA002343F0004310F0004F23FA02F019
:100FA80018BF404270474FF00000704712F1610FC0
:100FB80001D1420205D110F0004008BF6FF0004097
:100FC80070474FF00000704780B588B000AF07F158
:100FD800100300221A605A609A60DA60234B9B69FA
:100FE800224A43F020039361204B9B6903F02003BE
:100FF800FB60FB681D4B9B691C4A43F0100393611F
:101008001A4B9B6903F01003BB60BB68174B9B69C5
:10101800164A43F004039361144B9B6903F00403DD
:101028007B607B68114B9B69104A43F0080393610E
:101038000E4B9B6903F008033B603B6800220F21BD
:101048000B4801F0DFFA0F233B6101237B6100238A
:10105800BB610223FB6107F110031946044801F044
:101068003DF900BF2037BD4680BD00BF00100240DB
:101078000010014080B485B000AF78607B68002B19
:1010880003DA7B685B42FB6001E07B68FB60FB681E
:1010980018461437BD4680BC7047000080B500AFC5
:1010A80001220121044801F0ADFA00220221024880
:1010B80001F0A8FA00BF80BD0010014080B500AF64
:1010C80001220421044801F09DFA00220821024867
:1010D80001F098FA00BF80BD0010014080B500AF54
:1010E80000220121044801F08DFA01220221024860
:1010F80001F088FA00BF80BD0010014080B500AF44
:1011080000220421044801F07DFA01220821024846
:1011180001F078FA00BF80BD0010014080B500AF33
:1011280000220121044801F06DFA00220221024840
:1011380001F068FA00BF80BD0010014080B500AF23
:1011480000220421044801F05DFA00220821024827
:1011580001F058FA00BF80BD0010014080B582B090
:1011680000AF786039607B68002B0FDB3B68002B91
:101178000CDBFFF793FFFFF7A1FF1C4B1B687A6896
:101188005A631A4B1B683A689A632BE07B68002BFA
:1011980015DA3B68002B12DAFFF7A0FFFFF7AEFF66
:1011A8007868FFF767FF0246104B1B685A63386878
:1011B800FFF760FF02460D4B1B689A6312E07B68DD
:1011C800002B0FD13B68002B0CD1FFF7A7FFFFF7CF
:1011D800B5FF064B1B6800225A63044B1B680022AC
:1011E8009A63FFE700BF0837BD4680BD580300205B
:1011F80080B400AF0E4B1B685B6A9BB25B429BB22C
:101208001AB20C4B1A800C4B1B685B6A9BB25B4290
:101218009BB21AB2074B5A80054B1B6800225A62D0
:10122800054B1B6800225A6200BFBD4680BC704750
:1012380038020020F0010020800200200000000099
:1012480080B582B000AF78607868FFF7F7F908A337
:10125800D3E90023FFF75CFA02460B46104619460D
:10126800FFF72EFD034618460837BD4680BD00BF70
:10127800286F407E4855693F80B483B000AF7860DE
:101288007B680F4A1A607B684FF07E525A607B6811
:101298004FF000029A607B684FF00002DA607B68CA
:1012A8004FF000021A617B684FF47A725A617B68CA
:1012B80000229A6100BF0C37BD4680BC704700BF52
:1012C800000070412DE9F04186B000AFF860B960C8
:1012D8007A60FA68BB68D31A7B617B689B69184699
:1012E800FFF7F8FD05467B681C687869FFF7F2FD93
:1012F80002467B68DB6819461046FFF735FD034652
:1013080019462046FEF794FF03461E467B685C6834
:101318007869FFF7DFFD034619462046FEF788FF88
:10132800034619463046FFF721FD034698467B6879
:101338009C687869FFF7CEFD06467B68DB6819462E
:101348001846FFF713FD034619463046FFF70CFD14
:1013580003461A467B681B6919461046FFF706FDC7
:10136800034619462046FEF763FF034619464046E2
:10137800FFF7FCFC034619462846FFF7F7FC03462F
:101388001846FFF7FBFD02467B689A617B68DA68BE
:101398007B681A617869FFF79DFD02467B68DA6011
:1013A8007B689A697B685B699A4203DD7B685A6946
:1013B8007B689A617B689A697B685B695B429A4241
:1013C80004DA7B685B695A427B689A6100BF183708
:1013D800BD46BDE8F081000080B500AF00F00EFE0C
:1013E80000F04EF8FFF7F0FD00F084FB00F0F2FA91
:1013F80000F048FA00F09AFA00F046FB00F062FDAF
:10140800154801F077FD0021144801F023FE04215E
:10141800124801F01FFE0821114801F01BFE0021AF
:10142800104801F073FF04210E4801F06FFF0021FE
:101438000D4801F06BFF04210B4801F067FF0B48D2
:10144800FFF71AFF0A48FFF717FF0A4B0A4A1A6004
:101458000A4B094A1A60F8E71003002058030020D5
:10146800C80200203802002080020020FC01002071
:1014780018020020F4010020CDCC4C3EF8010020D9
:1014880080B590B000AF07F1180328220021184654
:1014980003F003FC3B1D00221A605A609A60DA6070
:1014A8001A610123BB614FF48033FB6100233B6267
:1014B8000123BB6202237B634FF48033BB634FF489
:1014C800E013FB6307F11803184601F0B3F803466D
:1014D800002B01D000F0A6F80F237B600223BB602D
:1014E8000023FB604FF480633B6100237B613B1D5D
:1014F8000221184601F020FB0346002B01D000F022
:1015080091F800BF4037BD4680BD000090B585B05A
:1015180000AF78607B68384A934269D1FFF768FE6C
:10152800364BB3F900301846FFF78AFEF860334BA4
:10153800B3F902301846FFF783FEB860F868FFF782
:101548008FF802460B462E4803F052FBB868FFF7A7
:1015580087F802460B462B4803F04AFB2A4B1B68C8
:101568002A491846FEF764FE03461846FFF706FDAB
:1015780004462649F868FEF75BFE03461846FFF75F
:10158800FDFC0346224A19462046FFF79BFE214BE5
:101598001B681E491846FEF74BFE03461846FFF720
:1015A800EDFC04461949B868FEF742FE03461846A2
:1015B800FFF7E4FC0346184A19462046FFF782FE67
:1015C800134B9B69144A926911461846FFF7C6FDEA
:1015D800F868FFF745F802460B46104803F008FB89
:1015E800B868FFF73DF802460B460D4803F000FBCC
:1015F80000BF1437BD4690BD10030020F001002045
:10160800406B00085C6B0008F40100200000C84231
:10161800FC010020F8010020180200207C6B000863
:101628009C6B000880B400AF72B600BFFEE70000F4
:1016380080B485B000AF154B9B69144A43F0010391
:101648009361124B9B6903F00103BB60BB680F4BAE
:10165800DB690E4A43F08053D3610C4BDB6903F01E
:1016680080537B607B680A4B5B68FB60FB6823F0F8
:10167800E063FB60FB6843F00073FB60044AFB68AF
:10168800536000BF1437BD4680BC7047001002404D
:101698000000014080B400AFFEE780B400AFFEE771
:1016A80080B400AFFEE780B400AFFEE780B400AFBF
:1016B800FEE780B400AF00BFBD4680BC704780B471
:1016C80000AF00BFBD4680BC704780B400AF00BF0C
:1016D800BD4680BC704780B500AF00F0D5FC00BFA8
:1016E80080BD000080B500AF024801F09DFE00BF3C
:1016F80080BD00BF1003002080B400AF012318464E
:10170800BD4680BC704780B582B000AF7860396054
:1017180003F016FB034616221A604FF0FF331846F3
:101728000837BD4680BD80B582B000AF78604FF005
:10173800FF317868FFF7E7FFFEE780B586B000AFB6
:10174800F860B9607A6000237B610AE0AFF300803B
:101758000146BB685A1CBA60CAB21A707B69013369
:101768007B617A697B689A42F0DB7B681846183798
:10177800BD4680BD80B586B000AFF860B9607A60BC
:1017880000237B6109E0BB685A1CBA601B781846C5
:1017980000F086FB7B6901337B617A697B689A423A
:1017A800F1DB7B6818461837BD4680BD80B483B02E
:1017B80000AF78604FF0FF3318460C37BD4680BC49
:1017C800704780B483B000AF786039603B684FF4ED
:1017D80000525A60002318460C37BD4680BC70473B
:1017E80080B483B000AF7860012318460C37BD463B
:1017F80080BC704780B485B000AFF860B9607A608B
:10180800002318461437BD4680BC704780B586B0A3
:1018180000AF7860144A154BD31A7B617B693B6132
:10182800134B1B68002B02D1114B124A1A60104B44
:101838001A687B6813443A699A4207D203F080FA1F
:1018480003460C221A604FF0FF3309E0084B1B686F
:10185800FB60074B1A687B681344054A1360FB68F2
:1018680018461837BD4680BD00C00020000400009F
:10187800340200203805002080B400AF00BFBD4608
:1018880080BC704780B58CB000AF07F10C032422F0
:101898000021184603F001FA3B1D00221A605A6025
:1018A800214B4FF080421A601F4B00225A601E4B9A
:1018B80000229A601C4B4FF6FF72DA601A4B002226
:1018C8001A61194B80229A610323FB6000233B6154
:1018D80001237B610023BB610023FB6100233B6282
:1018E80001237B620023BB620023FB6207F10C0328
:1018F80019460D4801F068FC0346002B01D0FFF79C
:1019080091FE00237B600023BB603B1D19460648FF
:1019180002F0C2F90346002B01D0FFF783FE00BF97
:101928003037BD4680BD00BF3802002080B58CB07E
:1019380000AF07F10C0324220021184603F0ADF98B
:101948003B1D00221A605A60204B214A1A601F4B27
:1019580000225A601D4B00229A601C4B4FF6FF7202
:10196800DA601A4B00221A61184B80229A6103230D
:10197800FB6000233B6101237B610023BB610023E3
:10198800FB6100233B6201237B620023BB620023CF
:10199800FB6207F10C0319460C4801F015FC0346DD
:1019A800002B01D0FFF73EFE00237B600023BB60C5
:1019B8003B1D1946054802F06FF90346002B01D07C
:1019C800FFF730FE00BF3037BD4680BD80020020E3
:1019D8000004004080B58AB000AF07F12003002260
:1019E8001A605A603B1D00221A605A609A60DA60D9
:1019F8001A615A619A61224B224A1A60204B40F2BE
:101A0800CF225A601E4B00229A601D4B40F2CF72C3
:101A1800DA601B4B00221A61194B00229A611848A0
:101A280001F0C8FA0346002B01D0FFF7FBFD0023A5
:101A38003B6200237B6207F120031946104802F03D
:101A48002BF90346002B01D0FFF7ECFD60237B60E8
:101A58000023BB600023FB6000237B613B1D082241
:101A68001946074801F0E8FD0346002B01D0FFF7AF
:101A7800D9FD034800F0BEF900BF2837BD4680BD38
:101A8800C80200200008004080B582B000AF3B4685
:101A980000221A605A60154B154A1A60134B40F21F
:101AA800F3125A60114B00229A60104B41F61F4204
:101AB800DA600E4B00229A610C4801F0CBF903461C
:101AC800002B01D0FFF7AEFD00233B6000237B60B5
:101AD8003B461946054802F0DFF80346002B01D0C3
:101AE800FFF7A0FD00BF0837BD4680BD10030020EA
:101AF8000010004080B592B000AF07F1400300220B
:101B08001A605A6007F1240300221A605A609A602A
:101B1800DA601A615A619A613B1D20220021184639
:101B280003F0BBF8394B3A4A1A60384B03225A6023
:101B3800364B00229A60354B40F2E732DA60334B7D
:101B480000221A61314B00225A61304B00229A61FF
:101B58002E4801F02FFA0346002B01D0FFF762FD53
:101B680000233B6400237B6407F1400319462748A0
:101B780002F092F80346002B01D0FFF753FD6023D3
:101B88007B620023BB620023FB6200233B630023CC
:101B98007B630023BB630023FB6307F1240300225C
:101BA80019461A4801F048FD0346002B01D0FFF7FB
:101BB80039FD07F1240304221946144801F03CFDBD
:101BC8000346002B01D0FFF72DFD00237B60002387
:101BD800BB600023FB6000233B6100237B614FF463
:101BE8000053BB6100233B623B1D1946074802F0C6
:101BF800BFF80346002B01D0FFF714FD034800F09F
:101C0800F9F800BF4837BD4680BD00BF5803002023
:101C18000034014080B58CB000AF786007F11C0338
:101C280000221A605A609A60DA607B681B68B3F118
:101C3800804F4FD13E4BDB693D4A43F00103D361EE
:101C48003B4BDB6903F00103BB61BB69384B9B6904
:101C5800374A43F004039361354B9B6903F004034F
:101C68007B617B69324B9B69314A43F0080393617E
:101C78002F4B9B6903F008033B613B694FF400431A
:101C8800FB6100233B6200237B6207F11C031946BA
:101C9800284800F023FB0823FB6100233B62002354
:101CA8007B6207F11C031946234800F017FB234BFE
:101CB8005B68FB62FB6A23F44073FB62FB6A43F0D8
:101CC800E063FB62FB6A43F48073FB621B4AFB6AB6
:101CD800536028E07B681B68194A934223D1144B50
:101CE800DB69134A43F00203D361114BDB6903F04C
:101CF8000203FB60FB680E4B9B690D4A43F004032B
:101D080093610B4B9B6903F00403BB60BB68C02362
:101D1800FB6100233B6200237B6207F11C03194629
:101D2800044800F0DBFA00BF3037BD4680BD00BF75
:101D38000010024000080140000C01400000014072
:101D48000004004080B485B000AF78607B681B68F1
:101D5800124A93420CD1124BDB69114A43F0040337
:101D6800D3610F4BDB6903F00403FB60FB6810E0F1
:101D78007B681B680B4A93420BD1094B9B69084A45
:101D880043F400539361064B9B6903F40053BB6013
:101D9800BB6800BF1437BD4680BC704700080040D0
:101DA800001002400034014080B584B000AF786074
:101DB8007B681B680D4A934213D10D4BDB690C4AB3
:101DC80043F01003D3610A4BDB6903F01003FB6097
:101DD800FB6800220021362000F049FA362000F086
:101DE80062FA00BF1037BD4680BD00BF001000403A
:101DF8000010024080B588B000AF786007F110038A
:101E080000221A605A609A60DA607B681B681F4A71
:101E1800934219D11E4B9B691D4A43F008039361F5
:101E28001B4B9B6903F00803FB60FB684FF480734E
:101E38003B6102237B610223FB6107F11003194612
:101E4800144800F04BFA1CE07B681B68124A934266
:101E580017D10F4B9B690E4A43F0100393610C4B4B
:101E68009B6903F01003BB60BB68C0233B6102237E
:101E78007B610223FB6107F110031946074800F054
:101E88002DFA00BF2037BD4680BD00BF00080040C6
:101E980000100240000C01400034014000100140D5
:101EA80080B582B000AF7860391D4FF6FF7301220C
:101EB800034802F010F87B6818460837BD4680BD15
:101EC800A003002080B500AF114B124A1A60104BD6
:101ED8004FF4E1325A600E4B00229A600C4B0022FC
:101EE800DA600B4B00221A61094B0C225A61084B2D
:101EF80000229A61064B0022DA61054801F09BFF37
:101F08000346002B01D0FFF78DFB00BF80BD00BF4B
:101F1800A00300200038014080B588B000AF786089
:101F280007F1100300221A605A609A60DA607B6831
:101F38001B681C4A934231D11B4B9B691A4A43F4D4
:101F480080439361184B9B6903F48043FB60FB68F3
:101F5800154B9B69144A43F004039361124B9B6928
:101F680003F00403BB60BB684FF400733B610223BA
:101F78007B610323FB6107F1100319460B4800F04E
:101F8800ADF94FF480633B6100237B610023BB61A3
:101F980007F110031946054800F0A0F900BF2037E3
:101FA800BD4680BD003801400010024000080140D5
:101FB800FFF762FC0B480C490C4A002302E0D45896
:101FC800C4500433C4188C42F9D3094A094C00237D
:101FD80001E013600432A242FBD302F0B7FEFFF720
:101FE800FBF9704700000020D40100205C6F000856
:101FF800D401002038050020FEE7000080B500AFBE
:10200800084B1B68074A43F010031360032000F0D5
:1020180023F90F2000F008F8FFF70AFB0023184601
:1020280080BD00BF0020024080B582B000AF78605C
:10203800124B1A68124B1B7819464FF47A73B3FB8C
:10204800F1F3B2FBF3F3184600F03BF90346002B1B
:1020580001D001230EE07B680F2B0AD80022796893
:102068004FF0FF3000F003F9064A7B681360002345
:1020780000E0012318460837BD4680BD0000002057
:10208800080000200400002080B400AF054B1B7836
:102098001A46054B1B681344034A136000BFBD462C
:1020A80080BC704708000020E803002080B400AF1F
:1020B800024B1B681846BD4680BC7047E8030020E9
:1020C80080B485B000AF78607B6803F00703FB60DD
:1020D8000C4BDB68BB60BA684FF6FF031340BB606C
:1020E800FB681A02BB68134343F0BF6343F4003331
:1020F800BB60044ABB68D36000BF1437BD4680BCD0
:10210800704700BF00ED00E080B400AF044BDB680F
:102118001B0A03F007031846BD4680BC704700BF82
:1021280000ED00E080B483B000AF0346FB7197F97F
:102138000730002B0BDBFB7903F01F02064997F9E8
:1021480007305B09012000FA02F241F8232000BFA2
:102158000C37BD4680BC704700E100E080B483B016
:1021680000AF03463960FB7197F90730002B0ADB93
:102178003B68DAB20C4997F907301201D2B20B4426
:1021880083F800230AE03B68DAB20849FB7903F0D8
:102198000F03043B1201D2B20B441A7600BF0C376E
:1021A800BD4680BC704700BF00E100E000ED00E0E4
:1021B80080B489B000AFF860B9607A60FB6803F05A
:1021C8000703FB61FB69C3F10703042B28BF042342
:1021D800BB61FB690433062B02D9FB69033B00E0B2
:1021E80000237B614FF0FF32BB6902FA03F3DA4345
:1021F800BB681A407B699A404FF0FF317B6901FA4E
:1022080003F3D9437B680B40134318462437BD4674
:1022180080BC704780B582B000AF78607B68013BB6
:10222800B3F1807F01D301230FE00A4A7B68013BA9
:1022380053600F214FF0FF30FFF790FF054B00224E
:102248009A60044B07221A60002318460837BD46D7
:1022580080BD00BF10E000E080B582B000AF7860BC
:102268007868FFF72DFF00BF0837BD4680BD80B5F1
:1022780086B000AF0346B9607A60FB7300237B61C8
:10228800FFF742FF78617A68B9687869FFF790FFCD
:10229800024697F90F3011461846FFF75FFF00BF57
:1022A8001837BD4680BD80B582B000AF0346FB71CC
:1022B80097F907301846FFF735FF00BF0837BD46C6
:1022C80080BD80B582B000AF78607868FFF7A2FF64
:1022D800034618460837BD4680BD000080B48BB061
:1022E80000AF7860396000237B6200233B6279E1AC
:1022F80001227B6A02FA03F3FB613B681B68FA69F7
:102308001340BB61BA69FB699A4240F068813B6837
:102318005B68964A93425ED0944A934275D8944A31
:10232800934258D0924A93426FD8924A934252D0DD
:10233800904A934269D8904A93424CD08E4A93422D
:1023480063D88E4A934246D08C4A93425DD8122B6A
:102358002AD8122B59D801A252F823F0DF230008FB
:10236800B9230008CB2300080D2400081324000813
:102378001324000813240008132400081324000859
:102388001324000813240008132400081324000849
:102398001324000813240008132400081324000839
:1023A800C1230008D5230008754A934213D02CE0B6
:1023B8003B68DB683B6229E03B68DB6804333B62CF
:1023C80024E03B68DB6808333B621FE03B68DB685E
:1023D8000C333B621AE03B689B68002B02D1042354
:1023E8003B6213E03B689B68012B05D108233B62E5
:1023F8007B68FA691A6109E008233B627B68FA691D
:102408005A6103E000233B6200E000BFBB69FF2B79
:1024180001D87B6801E07B6804337B61BB69FF2BD3
:1024280002D87B6A9B0002E07B6A083B9B003B6109
:102438007B691A680F213B6901FA03F3DB431A40F1
:10244800396A3B6901FA03F31A437B691A603B68EE
:102458005B6803F08053002B00F0C180494B9B69F7
:10246800484A43F001039361464B9B6903F001031B
:10247800BB60BB68444A7B6A9B08023352F823302E
:10248800FB607B6A03F003039B000F2202FA03F34D
:10249800DB43FA681340FB607B683C4A93421FD0D9
:1024A8007B683B4A934219D07B683A4A934213D0DF
:1024B8007B68394A93420DD07B68384A934207D0EB
:1024C8007B68374A934201D105230AE0062308E0D6
:1024D800042306E0032304E0022302E0012300E0D2
:1024E80000237A6A02F0030292009340FA681343C9
:1024F800FB6025497B6A9B080233FA6841F8232070
:102508003B685B6803F48013002B06D0254B9A6860
:102518002449BB6913438B6006E0224B9A68BB6968
:10252800DB43204913408B603B685B6803F400136E
:10253800002B06D01B4BDA681A49BB691343CB60E2
:1025480006E0184BDA68BB69DB4316491340CB60D9
:102558003B685B6803F40033002B25D0114B5A68A5
:102568001049BB6913434B6025E000BF00003210DF
:10257800000031100000221000002110000012108D
:102588000000111000100240000001400008014046
:10259800000C0140001001400014014000180140E7
:1025A800001C014000040140154B5A68BB69DB431D
:1025B800134913404B603B685B6803F48033002B7E
:1025C80006D00F4B1A680E49BB6913430B6006E02F
:1025D8000B4B1A68BB69DB43094913400B607B6AE4
:1025E80001337B623B681A687B6A22FA03F3002B8B
:1025F8007FF47EAE00BF00BF2C37BD4680BC70475D
:102608000004014080B483B000AF78600B467B8043
:1026180013467B707B78002B03D07A887B681A611D
:1026280003E07B881A047B681A6100BF0C37BD463B
:1026380080BC704780B586B000AF78607B68002B9F
:1026480001D1012372E27B681B6803F00103002BB0
:1026580000F08780924B5B6803F00C03042B0CD0CE
:102668008F4B5B6803F00C03082B12D18C4B5B6813
:1026780003F48033B3F5803F0BD1894B1B6803F417
:102688000033002B6CD07B685B68002B68D101237A
:102698004CE27B685B68B3F5803F06D1804B1B68D2
:1026A8007F4A43F4803313602EE07B685B68002B1D
:1026B8000CD17B4B1B687A4A23F480331360784B28
:1026C8001B68774A23F4802313601DE07B685B68EE
:1026D800B3F5A02F0CD1724B1B68714A43F48023C9
:1026E80013606F4B1B686E4A43F4803313600BE032
:1026F8006B4B1B686A4A23F480331360684B1B6872
:10270800674A23F4802313607B685B68002B13D02F
:10271800FFF7CCFC386108E0FFF7C8FC02463B69CC
:10272800D31A642B01D9032300E25D4B1B6803F421
:102738000033002BF0D014E0FFF7B8FC386108E054
:10274800FFF7B4FC02463B69D31A642B01D9032373
:10275800ECE1534B1B6803F40033002BF0D100E08D
:1027680000BF7B681B6803F00203002B63D04C4B4F
:102778005B6803F00C03002B0BD0494B5B6803F03C
:102788000C03082B1CD1464B5B6803F48033002BE9
:1027980016D1434B1B6803F00203002B05D07B685E
:1027A8001B69012B01D00123C0E13D4B1B6823F0BD
:1027B800F8027B685B69DB00394913430B603AE038
:1027C8007B681B69002B20D0364B01221A60FFF76B
:1027D8006DFC386108E0FFF769FC02463B69D31AD3
:1027E800022B01D90323A1E12D4B1B6803F002033F
:1027F800002BF0D02A4B1B6823F0F8027B685B693A
:10280800DB00274913430B6015E0264B00221A60B2
:10281800FFF74CFC386108E0FFF748FC02463B69CB
:10282800D31A022B01D9032380E11D4B1B6803F047
:102838000203002BF0D17B681B6803F00803002B10
:102848003AD07B689B69002B19D0174B01221A607C
:10285800FFF72CFC386108E0FFF728FC02463B69CB
:10286800D31A022B01D9032360E10D4B5B6A03F0F5
:102878000203002BF0D0012000F0CEFA1CE00A4B36
:1028880000221A60FFF712FC38610FE0FFF70EFC18
:1028980002463B69D31A022B08D9032346E100BF3D
:1028A800001002400000424280044242924B5B6AA0
:1028B80003F00203002BE9D17B681B6803F00403D3
:1028C800002B00F0A6800023FB758B4BDB6903F01F
:1028D8008053002B0DD1884BDB69874A43F0805326
:1028E800D361854BDB6903F08053BB60BB68012370
:1028F800FB75824B1B6803F48073002B18D17F4B48
:102908001B687E4A43F480731360FFF7CFFB38617E
:1029180008E0FFF7CBFB02463B69D31A642B01D9C9
:10292800032303E1754B1B6803F48073002BF0D07D
:102938007B68DB68012B06D16F4B1B6A6E4A43F03C
:10294800010313622DE07B68DB68002B0CD16A4B16
:102958001B6A694A23F001031362674B1B6A664AC4
:1029680023F0040313621CE07B68DB68052B0CD1A1
:10297800614B1B6A604A43F0040313625E4B1B6A97
:102988005D4A43F0010313620BE05B4B1B6A5A4A32
:1029980023F001031362584B1B6A574A23F00403C0
:1029A80013627B68DB68002B15D0FFF77FFB38616B
:1029B8000AE0FFF77BFB02463B69D31A41F28832F3
:1029C800934201D90323B1E04B4B1B6A03F0020386
:1029D800002BEED014E0FFF769FB38610AE0FFF73F
:1029E80065FB02463B69D31A41F28832934201D90A
:1029F80003239BE0404B1B6A03F00203002BEED13C
:102A0800FB7D012B05D13C4BDB693B4A23F080530E
:102A1800D3617B68DB69002B00F08780364B5B68ED
:102A280003F00C03082B61D07B68DB69022B46D1CD
:102A3800334B00221A60FFF739FB386108E0FFF7D3
:102A480035FB02463B69D31A022B01D903236DE0FB
:102A5800294B1B6803F00073002BF0D17B681B6ABD
:102A6800B3F5803F08D1244B5B6823F400327B68C0
:102A78009B68214913434B601F4B5B6823F4741216
:102A88007B68196A7B685B6A0B431B4913434B607D
:102A98001B4B01221A60FFF709FB386108E0FFF7BA
:102AA80005FB02463B69D31A022B01D903233DE0FB
:102AB800114B1B6803F00073002BF0D035E0104B6E
:102AC80000221A60FFF7F2FA386108E0FFF7EEFA21
:102AD80002463B69D31A022B01D9032326E0064B91
:102AE8001B6803F00073002BF0D11EE07B68DB69E4
:102AF800012B07D1012319E00010024000700040AB
:102B0800600042420B4B5B68FB60FB6803F4803259
:102B18007B681B6A9A4206D1FB6803F470127B68D3
:102B28005B6A9A4201D0012300E000231846183757
:102B3800BD4680BD0010024080B584B000AF78600B
:102B480039607B68002B01D10123D0E06A4B1B68F8
:102B580003F007033A689A4210D9674B1B6823F0C1
:102B6800070265493B6813430B60634B1B6803F01E
:102B780007033A689A4201D00123B8E07B681B68D2
:102B880003F00203002B20D07B681B6803F00403CA
:102B9800002B05D0594B5B68584A43F4E0635360F7
:102BA8007B681B6803F00803002B05D0534B5B6858
:102BB800524A43F460535360504B5B6823F0F00271
:102BC8007B689B684D4913434B607B681B6803F027
:102BD8000103002B40D07B685B68012B07D1474B72
:102BE8001B6803F40033002B15D101237FE07B68B9
:102BF8005B68022B07D1414B1B6803F00073002B65
:102C080009D1012373E03D4B1B6803F00203002B3D
:102C180001D101236BE0394B5B6823F003027B6829
:102C28005B68364913434B60FFF740FAF8600AE0E7
:102C3800FFF73CFA0246FB68D31A41F28832934206
:102C480001D9032353E02D4B5B6803F00C027B682A
:102C58005B689B009A42EBD1274B1B6803F0070384
:102C68003A689A4210D2244B1B6823F00702224983
:102C78003B6813430B60204B1B6803F007033A685B
:102C88009A4201D0012332E07B681B6803F00403F9
:102C9800002B08D0194B5B6823F4E0627B68DB6883
:102CA800164913434B607B681B6803F00803002B2D
:102CB80009D0124B5B6823F460527B681B69DB0008
:102CC8000E4913434B6000F021F802460B4B5B683A
:102CD8001B0903F00F030A49CB5C22FA03F3094AE4
:102CE8001360094B1B681846FFF79EF90023184626
:102CF8001037BD4680BD00BF0020024000100240D2
:102D0800BC6B0008000000200400002080B487B0DD
:102D180000AF0023FB600023BB6000237B6100231E
:102D28007B6000233B611E4B5B68FB60FB6803F024
:102D38000C03042B02D0082B03D027E0194B3B616E
:102D480027E0FB689B0C03F00F03174AD35C7B60FA
:102D5800FB6803F48033002B10D0114B5B685B0CCD
:102D680003F00103114AD35CBB607B680D4A03FB87
:102D780002F2BB68B2FBF3F37B6104E07B680C4AA8
:102D880002FB03F37B617B693B6102E0054B3B611E
:102D980000BF3B6918461C37BD4680BC704700BF62
:102DA8000010024000127A00D46B0008E46B00089F
:102DB80000093D0080B400AF024B1B681846BD46B1
:102DC80080BC70470000002080B500AFFFF7F2FF1D
:102DD8000246054B5B681B0A03F007030349CB5CFB
:102DE80022FA03F3184680BD00100240CC6B00089D
:102DF80080B500AFFFF7DEFF0246054B5B68DB0AD4
:102E080003F007030349CB5C22FA03F3184680BD9D
:102E180000100240CC6B000880B485B000AF786029
:102E28000A4B1B680A4AA2FB03235B0A7A6802FB67
:102E380003F3FB6000BFFB685A1EFA60002BF9D150
:102E480000BF00BF1437BD4680BC7047000000209B
:102E5800D34D621080B582B000AF78607B68002BDC
:102E680001D1012341E07B6893F83D30DBB2002BB0
:102E780006D17B68002283F83C207868FEF794FF2F
:102E88007B68022283F83D207B681A687B680433DC
:102E98001946104600F0B6FC7B68012283F84620EC
:102EA8007B68012283F83E207B68012283F83F205B
:102EB8007B68012283F840207B68012283F8412047
:102EC8007B68012283F842207B68012283F8432033
:102ED8007B68012283F844207B68012283F845201F
:102EE8007B68012283F83D20002318460837BD4639
:102EF80080BD000080B485B000AF78607B6893F82F
:102F08003D30DBB2012B01D0012344E07B68022273
:102F180083F83D207B681B68DA687B681B6842F091
:102F28000102DA607B681B681D4A934218D07B68EF
:102F38001B681C4A934213D07B681B68B3F1804F0F
:102F48000ED07B681B68184A934209D07B681B68BF
:102F5800164A934204D07B681B68154A934211D1E4
:102F68007B681B689B6803F00703FB60FB68062B04
:102F780010D07B681B681A687B681B6842F00102E6
:102F88001A6007E07B681B681A687B681B6842F058
:102F980001021A60002318461437BD4680BC7047EA
:102FA800002C0140003401400004004000080040AB
:102FB800000C004080B582B000AF78607B68002BC1
:102FC80001D1012341E07B6893F83D30DBB2002B4F
:102FD80006D17B68002283F83C207868FEF7B2FEB1
:102FE8007B68022283F83D207B681A687B6804337B
:102FF8001946104600F006FC7B68012283F846203B
:103008007B68012283F83E207B68012283F83F20F9
:103018007B68012283F840207B68012283F84120E5
:103028007B68012283F842207B68012283F84320D1
:103038007B68012283F844207B68012283F84520BD
:103048007B68012283F83D20002318460837BD46D7
:1030580080BD000080B584B000AF786039603B68FF
:10306800002B09D17B6893F83E30DBB2012B14BFEB
:1030780001230023DBB222E03B68042B09D17B68E3
:1030880093F83F30DBB2012B14BF01230023DBB2DE
:1030980015E03B68082B09D17B6893F84030DBB218
:1030A800012B14BF01230023DBB208E07B6893F8EF
:1030B8004130DBB2012B14BF01230023DBB2002B0C
:1030C80001D0012372E03B68002B04D17B68022207
:1030D80083F83E2013E03B68042B04D17B6802226E
:1030E80083F83F200BE03B68082B04D17B68022261
:1030F80083F8402003E07B68022283F841207B6844
:103108001B6801223968184600F0A2FD7B681B681D
:10311800284A934204D07B681B68274A934201D10E
:10312800012300E00023002B07D07B681B685A6C42
:103138007B681B6842F400425A647B681B681D4A1E
:10314800934218D07B681B681B4A934213D07B6854
:103158001B68B3F1804F0ED07B681B68174A9342F7
:1031680009D07B681B68164A934204D07B681B68A9
:10317800144A934211D17B681B689B6803F00703CC
:10318800FB60FB68062B10D07B681B681A687B689D
:103198001B6842F001021A6007E07B681B681A6826
:1031A8007B681B6842F001021A600023184610373A
:1031B800BD4680BD002C01400034014000040040A1
:1031C80000080040000C004080B586B000AF786071
:1031D80039607B68002B01D1012393E07B6893F869
:1031E8003D30DBB2002B06D17B68002283F83C20FF
:1031F8007868FEF70FFD7B68022283F83D207B6824
:103208001B689B687A68126823F4804323F00703DD
:1032180093607B681A687B6804331946104600F08F
:10322800F1FA7B681B689B687B617B681B689B69FC
:103238003B617B681B681B6AFB603B681B687A699B
:1032480013437B613B6923F4407323F003033B6121
:103258003B689A683B689B691B0213433A691343AE
:103268003B613B6923F4406323F00C033B613B69FA
:1032780023F4704323F0F0033B613B68DA683B6852
:10328800DB691B0213433A6913433B613B681B69C3
:103298001A013B681B6A1B0313433A6913433B61DA
:1032A800FB6823F02203FB603B685A683B685B6954
:1032B8001B011343FA681343FB607B681B687A6938
:1032C8009A607B681B683A699A617B681B68FA6830
:1032D8001A627B68012283F846207B68012283F802
:1032E8003E207B68012283F83F207B68012283F817
:1032F80042207B68012283F843207B68012283F8FF
:103308003D20002318461837BD4680BD80B584B0DF
:1033180000AF786039607B6893F83E30FB737B6858
:1033280093F83F30BB737B6893F842307B737B68BC
:1033380093F843303B733B68002B10D1FB7B012B88
:1033480002D17B7B012B01D0012369E07B6802223B
:1033580083F83E207B68022283F8422031E03B68F4
:10336800042B10D1BB7B012B02D13B7B012B01D05D
:10337800012355E07B68022283F83F207B68022204
:1033880083F843201DE0FB7B012B08D1BB7B012B7D
:1033980005D17B7B012B02D13B7B012B01D0012383
:1033A8003EE07B68022283F83E207B68022283F895
:1033B8003F207B68022283F842207B68022283F840
:1033C80043203B68002B03D03B68042B08D00FE058
:1033D8007B681B6801220021184600F039FC16E0C2
:1033E8007B681B6801220421184600F031FC0EE0BE
:1033F8007B681B6801220021184600F029FC7B68C5
:103408001B6801220421184600F022FC00BF7B68DB
:103418001B681A687B681B6842F001021A60002367
:1034280018461037BD4680BD80B582B000AF7860C1
:103438007B681B681B6903F00203022B22D17B689F
:103448001B68DB6803F00203022B1BD17B681B6837
:103458006FF002021A617B6801221A777B681B6889
:103468009B6903F00303002B03D0786800F0AFF9E1
:1034780005E0786800F0A2F9786800F0B1F97B6897
:1034880000221A777B681B681B6903F00403042B6E
:1034980022D17B681B68DB6803F00403042B1BD173
:1034A8007B681B686FF004021A617B6802221A7736
:1034B8007B681B689B6903F44073002B03D0786812
:1034C80000F085F905E0786800F078F9786800F090
:1034D80087F97B6800221A777B681B681B6903F0F1
:1034E8000803082B22D17B681B68DB6803F00803FC
:1034F800082B1BD17B681B686FF008021A617B6878
:1035080004221A777B681B68DB6903F00303002B2E
:1035180003D0786800F05BF905E0786800F04EF9B0
:10352800786800F05DF97B6800221A777B681B6871
:103538001B6903F01003102B22D17B681B68DB6822
:1035480003F01003102B1BD17B681B686FF010026F
:103558001A617B6808221A777B681B68DB6903F4A9
:103568004073002B03D0786800F031F905E07868E3
:1035780000F024F9786800F033F97B6800221A77A4
:103588007B681B681B6903F00103012B0ED17B6864
:103598001B68DB6803F00103012B07D17B681B68FC
:1035A8006FF001021A617868FDF7B0FF7B681B684D
:1035B8001B6903F08003802B0ED17B681B68DB68D6
:1035C80003F08003802B07D17B681B686FF08002B3
:1035D8001A61786800F026FC7B681B681B6903F099
:1035E8004003402B0ED17B681B68DB6803F0400367
:1035F800402B07D17B681B686FF040021A6178681E
:1036080000F0F7F87B681B681B6903F02003202B88
:103618000ED17B681B68DB6803F02003202B07D1E1
:103628007B681B686FF020021A61786800F0F1FB74
:1036380000BF0837BD4680BD80B586B000AFF860D2
:10364800B9607A600023FB75FB6893F83C30012B66
:1036580001D10223AEE0FB68012283F83C207B689D
:103668000C2B00F29F8001A252F823F0A936000823
:10367800AD370008AD370008AD370008E936000857
:10368800AD370008AD370008AD3700082B37000804
:10369800AD370008AD370008AD3700086B370008B4
:1036A800FB681B68B968184600F026F9FB681B68B8
:1036B8009A69FB681B6842F008029A61FB681B68FC
:1036C8009A69FB681B6822F004029A61FB681B6810
:1036D8009969BB681A69FB681B680A439A6164E0C8
:1036E800FB681B68B968184600F076F9FB681B6828
:1036F8009A69FB681B6842F400629A61FB681B6860
:103708009A69FB681B6822F480629A61FB681B68EF
:103718009969BB681B691A02FB681B680A439A61AE
:1037280043E0FB681B68B968184600F0C9F9FB68F4
:103738001B68DA69FB681B6842F00802DA61FB68FB
:103748001B68DA69FB681B6822F00402DA61FB680F
:103758001B68D969BB681A69FB681B680A43DA6188
:1037680023E0FB681B68B968184600F01DFAFB687F
:103778001B68DA69FB681B6842F40062DA61FB685F
:103788001B68DA69FB681B6822F48062DA61FB68EF
:103798001B68D969BB681B691A02FB681B680A4366
:1037A800DA6102E00123FB7500BFFB68002283F8A1
:1037B8003C20FB7D18461837BD4680BD80B483B0D9
:1037C80000AF786000BF0C37BD4680BC704780B43E
:1037D80083B000AF786000BF0C37BD4680BC70472F
:1037E80080B483B000AF786000BF0C37BD4680BCA2
:1037F800704780B483B000AF786000BF0C37BD4617
:1038080080BC704780B485B000AF786039607B6851
:103818001B68FB607B68334A934213D07B68324A4B
:1038280093420FD07B68B3F1804F0BD07B682F4A4F
:10383800934207D07B682E4A934203D07B682D4A77
:10384800934208D1FB6823F07003FB603B685B6818
:10385800FA681343FB607B68224A934213D07B6863
:10386800214A93420FD07B68B3F1804F0BD07B681D
:103878001E4A934207D07B681D4A934203D07B6857
:103888001C4A934208D1FB6823F44073FB603B68F1
:10389800DB68FA681343FB60FB6823F080023B682F
:1038A8005B691343FB607B68FA681A603B689A6837
:1038B8007B68DA623B681A687B689A627B68094AA7
:1038C800934203D07B68084A934203D13B681A6944
:1038D8007B681A637B6801225A6100BF1437BD46B2
:1038E80080BC7047002C01400034014000040040B7
:1038F80000080040000C004080B487B000AF78603A
:1039080039607B681B6A7B617B681B6A23F0010254
:103918007B681A627B685B683B617B689B69FB60BC
:10392800FB6823F07003FB60FB6823F00303FB6074
:103938003B681B68FA681343FB607B6923F002034A
:103948007B613B689B687A6913437B617B68204A8B
:10395800934203D07B681F4A93420CD17B6923F0C2
:1039680008037B613B68DB687A6913437B617B6989
:1039780023F004037B617B68154A934203D07B687C
:10398800144A934211D13B6923F480733B613B692C
:1039980023F400733B613B685B693A6913433B61FD
:1039A8003B689B693A6913433B617B683A695A6093
:1039B8007B68FA689A613B685A687B685A637B68D7
:1039C8007A691A6200BF1C37BD4680BC704700BFC9
:1039D800002C01400034014080B487B000AF78600B
:1039E80039607B681B6A7B617B681B6A23F0100265
:1039F8007B681A627B685B683B617B689B69FB60DC
:103A0800FB6823F4E043FB60FB6823F44073FB602E
:103A18003B681B681B02FA681343FB607B6923F051
:103A280020037B613B689B681B017A6913437B61B8
:103A38007B68214A934203D07B68204A93420DD188
:103A48007B6923F080037B613B68DB681B017A6933
:103A580013437B617B6923F040037B617B68164AD3
:103A6800934203D07B68154A934213D13B6923F4F0
:103A780080633B613B6923F400633B613B685B699E
:103A88009B003A6913433B613B689B699B003A6919
:103A980013433B617B683A695A607B68FA689A61AC
:103AA8003B685A687B689A637B687A691A6200BFC8
:103AB8001C37BD4680BC7047002C014000340140D3
:103AC80080B487B000AF786039607B681B6A7B611F
:103AD8007B681B6A23F480727B681A627B685B6868
:103AE8003B617B68DB69FB60FB6823F07003FB606C
:103AF800FB6823F00303FB603B681B68FA68134309
:103B0800FB607B6923F400737B613B689B681B0245
:103B18007A6913437B617B68214A934203D07B68AF
:103B2800204A93420DD17B6923F400637B613B6893
:103B3800DB681B027A6913437B617B6923F480632A
:103B48007B617B68164A934203D07B68154A93428F
:103B580013D13B6923F480533B613B6923F4005341
:103B68003B613B685B691B013A6913433B613B68F6
:103B78009B691B013A6913433B617B683A695A6048
:103B88007B68FA68DA613B685A687B68DA637B6845
:103B98007A691A6200BF1C37BD4680BC704700BFF7
:103BA800002C01400034014080B487B000AF786039
:103BB80039607B681B6A3B617B681B6A23F480520F
:103BC8007B681A627B685B687B617B68DB69FB608A
:103BD800FB6823F4E043FB60FB6823F44073FB605D
:103BE8003B681B681B02FA681343FB603B6923F4BC
:103BF80000533B613B689B681B033A6913433B6175
:103C08007B68114A934203D07B68104A934209D1DA
:103C18007B6923F480437B613B685B699B017A691C
:103C280013437B617B687A695A607B68FA68DA615A
:103C38003B685A687B681A647B683A691A6200BFF5
:103C48001C37BD4680BC7047002C01400034014041
:103C580080B487B000AFF860B9607A60BB6803F0E1
:103C68001F03012202FA03F37B61FB681A6A7B696E
:103C7800DB431A40FB681A62FB681A6ABB6803F0E8
:103C88001F03796801FA03F31A43FB681A6200BF3D
:103C98001C37BD4680BC704780B485B000AF7860E3
:103CA80039607B6893F83C30012B01D1022350E046
:103CB8007B68012283F83C207B68022283F83D2040
:103CC8007B681B685B68FB607B681B689B68BB60E4
:103CD800FB6823F07003FB603B681B68FA681343BA
:103CE800FB607B681B68FA685A607B681B681B4A24
:103CF800934218D07B681B68194A934213D07B689B
:103D08001B68B3F1804F0ED07B681B68154A93423D
:103D180009D07B681B68144A934204D07B681B68EF
:103D2800124A93420CD1BB6823F08003BB603B6806
:103D38005B68BA681343BB607B681B68BA689A60A3
:103D48007B68012283F83D207B68002283F83C20B1
:103D5800002318461437BD4680BC7047002C01402C
:103D6800003401400004004000080040000C0040FE
:103D780080B485B000AF786039600023FB607B6851
:103D880093F83C30012B01D102233DE07B680122EE
:103D980083F83C20FB6823F0FF023B68DB68134391
:103DA800FB60FB6823F440723B689B681343FB602D
:103DB800FB6823F480623B685B681343FB60FB6825
:103DC80023F400623B681B681343FB60FB6823F421
:103DD80080523B681B691343FB60FB6823F4005265
:103DE8003B685B691343FB60FB6823F480423B68D4
:103DF800DB691343FB607B681B68FA685A647B685D
:103E0800002283F83C20002318461437BD4680BCA6
:103E1800704780B483B000AF786000BF0C37BD46F0
:103E280080BC704780B483B000AF786000BF0C37A7
:103E3800BD4680BC704780B582B000AF78607B68B3
:103E4800002B01D1012342E07B6893F84130DBB2BB
:103E5800002B06D17B68002283F840207868FEF7A3
:103E68005BF87B68242283F841207B681B68DA684A
:103E78007B681B6822F40052DA60786800F01CF94D
:103E88007B681B681A697B681B6822F490421A6178
:103E98007B681B685A697B681B6822F02A025A6192
:103EA8007B681B68DA687B681B6842F40052DA603A
:103EB8007B6800225A647B68202283F841207B6853
:103EC800202283F842207B6800225A630023184688
:103ED8000837BD4680BD80B58AB002AFF860B960CA
:103EE8003B601346FB8000237B61FB6893F84130FD
:103EF800DBB2202B6DD1BB68002B02D0FB88002BD6
:103F080001D1012366E0FB6800225A64FB68212284
:103F180083F84120FEF7CAF87861FB68FA889A842A
:103F2800FB68FA88DA84FB689B68B3F5805F08D180
:103F3800FB681B69002B04D10023FB61BB68BB61D4
:103F480003E0BB68FB610023BB612AE03B68009388
:103F58007B6900228021F86800F040F80346002BB6
:103F680001D0032336E0FB69002B0BD1BB691B880A
:103F78001A46FB681B68C2F308025A60BB69023321
:103F8800BB6107E0FB691A78FB681B685A60FB692C
:103F98000133FB61FB68DB8C9BB2013B9AB2FB6887
:103FA800DA84FB68DB8C9BB2002BCFD13B68009393
:103FB8007B6900224021F86800F010F80346002BC6
:103FC80001D0032306E0FB68202283F84120002368
:103FD80000E0022318462037BD4680BD80B590B06A
:103FE80000AFF860B9603B601346FB7150E0BB6CF2
:103FF800B3F1FF3F4CD0BB6C002B07D0FEF756F84F
:1040080002463B68D31ABA6C9A4241D2FB681B68D5
:104018000C33BB62BB6A53E8003F7B627B6A23F4C4
:10402800D073FB63FB681B680C33FA6B7A633B63E2
:10403800396B7A6B41E80023FB62FB6A002BE5D100
:10404800FB681B6814337B617B6953E8003F3B6165
:104058003B6923F00103BB63FB681B681433BA6B2D
:104068003A62FB61F9693A6A41E80023BB61BB69BE
:10407800002BE5D1FB68202283F84120FB68202231
:1040880083F84220FB68002283F8402003230FE0D6
:10409800FB681B681A68BB681340BA689A420CBF71
:1040A80001230023DBB21A46FB799A429FD00023F2
:1040B80018464037BD4680BD80B584B000AF7860F3
:1040C8007B681B681B6923F440517B68DA687B684E
:1040D8001B680A431A617B689A687B681B691A43E4
:1040E8007B685B691343BB607B681B68DB6823F4F0
:1040F800B05323F00C037A681268B9680B43D36095
:104108007B681B685B6923F440717B689A697B68EC
:104118001B680A435A617B681B682C4A934203D187
:10412800FEF766FEF86002E0FEF74EFEF860FA68F9
:1041380013469B0013449A001A447B685B689B00F3
:10414800B2FBF3F3224AA2FB03235B091901FA68C5
:1041580013469B0013449A001A447B685B689B00D3
:10416800B2FBF3F21A4BA3FB02035B09642000FBCA
:1041780003F3D31A1B013233154AA2FB03235B094D
:1041880003F0F0031944FA6813469B0013449A009D
:104198001A447B685B689B00B2FBF3F20C4BA3FBF1
:1041A80002035B09642000FB03F3D31A1B013233BB
:1041B800074AA2FB03235B0903F00F027B681B6815
:1041C8000A449A6000BF1037BD4680BD00380140E0
:1041D8001F85EB51002B2DE9F0471F46BBBF03F1AC
:1041E80000431F4600232D2388B01446129A109DC1
:1041F8001370149BDDF84CA023F02008B8F1460F8B
:1042080005D0B8F1450F00D10135022300E00323A2
:1042180007AA049206AACDE902A2CDE900352246F2
:104228003B4600F051FEB8F1470F064602D1119BFC
:10423800DB0722D5B8F1460F06EB050910D1337814
:10424800302B0AD10022002320463946FCF7C8FC4F
:1042580018B9C5F10105CAF80050DAF800309944D8
:104268000022002320463946FCF7BAFC08B1CDF8F5
:104278001C903022079B4B4507D33046079B159A65
:104288009B1B136008B0BDE8F087591C07911A7092
:10429800F0E70346F7B5002903F8022BB6BF2D2235
:1042A8002B224942092942702ADD0DF107021746DF
:1042B8000A2691FBF6F5944606FB151430340CF8E3
:1042C800014C0C46632C294602F1FF32F1DC3031F7
:1042D800ACF1020402F8011C2246411CBA420AD37E
:1042E8000DF10902A2EB0C02BC4288BF0022134464
:1042F800181A03B0F0BD12F8015B01F8015FEDE791
:10430800302330318370C170031DF1E72DE9F04F80
:1043180091B00C46DDF8688016461F46054600F049
:10432800C5FC036818460993FBF77AFF00230E9330
:10433800D8F800300A90073323F0070303F1080286
:1043480094F81890D4F800B0C8F80020D3E900A871
:1043580052464346C4E9122328F000430B934FF01A
:10436800FF3250469C4B0B99FCF76CFC70BB4FF02E
:10437800FF325046984B0B99FCF746FC30BB0022A5
:10438800002350464146FCF735FC10B12D2384F834
:104398004330924A924BB9F1470F94BF90469846E2
:1043A80003234FF0000A23612BF0040323603346F4
:1043B8002146284600970FAA00F0D6F9013040F0B0
:1043C80090804FF0FF3011B0BDE8F08F5246434661
:1043D80050464146FCF736FC48B1B8F1000FB8BF6B
:1043E8002D23804AB8BF84F843307F4BD3E76368F6
:1043F80009F0DF015A1C42D10623636000220692AD
:104408000EAACDE904920DAA4BF4806303920DF134
:104418003302CDE90132236063685246009328468F
:1044280043460B91FFF7D6FE0B99804647290D9915
:1044380008D1C81C02DB6368994240DDA9F1020972
:104448005FFA89F9B9F1650F1FD84A46013904F1B5
:1044580050000D91FFF71DFF0E9A82461318012A8E
:10446800236102DC2268D20701D5013323619DF85C
:104478003330002B9BD02D2384F8433097E747290E
:10448800BCD1002BBAD10123B7E7B9F1660F18D117
:10449800002963680BDD216113B92268D00702D5B2
:1044A80001330B4423614FF0000AA165DFE713B91C
:1044B8002268D20701D50233F4E70123F2E74FF06F
:1044C80067090E9B994205DB23682161D807EAD565
:1044D8004B1CE7E70029CCBF0122C1F102021344BB
:1044E800E0E723685A0507D423694246314628463F
:1044F800B84701302BD164E7B9F1650F40F2DD8090
:10450800D4E9120100220023FCF76AFB002833D00B
:10451800012331462846354AB84701303FF451AFA8
:10452800DDE90D239A4202DB2368D8070FD5DDE9C0
:10453800092331462846B84701303FF442AF4FF0CF
:10454800000804F11A090E9B013B434509DC236866
:104558009B0700F10481E0680F9B9842B8BF18469A
:1045680031E701234A4631462846B84701303FF42F
:1045780028AF08F10108E6E70D9B002B38DC012382
:1045880031462846194AB84701303FF41AAFDDE9E9
:104598000D32134302D12368D907D8D5DDE90923A1
:1045A80031462846B84701303FF40BAF4FF00009B9
:1045B80004F11A0A0D9B5B424B4501DC0E9B94E704
:1045C8000123524631462846B84701303FF4F9AE38
:1045D80009F10109EEE700BFFFFFEF7FE66B000876
:1045E800EA6B0008EE6B0008F26B0008F66B000837
:1045F8000E9AA36D9A42A8BF1A46002A914637DC44
:104608004FF0000B29EAE97904F11A02D4F858A00E
:10461800AAEB09035B4533DCDDE90D239A423BDB5A
:104628002368DA0738D4DDE90D32A2EB0309A2EBDF
:104638000A029145A8BF9146B9F1000F34DC4FF04A
:10464800000829EAE97904F11A0ADDE90D239B1A21
:10465800A3EB090343457FF77AAF0123524631465E
:104668002846B84701303FF4ACAE08F10108ECE742
:104678001346314642462846B8470130C0D1A0E625
:104688000123314628460B92B84701303FF499AED2
:104698000B9A0BF1010BB9E73146DDE909232846EE
:1046A800B8470130BFD18CE64B463146284608EB67
:1046B8000A02B8470130C2D183E60E9A012A01DC0A
:1046C800DB0739D50123424631462846B847013031
:1046D8003FF477AEDDE9092331462846B847013073
:1046E8003FF46FAED4E9120100220023DDF83890C0
:1046F800FCF776FAD8B909F1FF3308F1010231461F
:104708002846B84701300ED15BE601234A463146B8
:104718002846B84701303FF454AE08F101080E9B13
:10472800013B4345F1DC534604F15002DEE64FF00D
:10473800000804F11A09F2E701234246DFE70123E2
:104748004A4631462846B84701303FF43AAE08F1A8
:104758000108E3680F995B1A4345F0DCFBE64FF06C
:10476800000804F11909F4E72DE9F04716469946BF
:104778008A680B6907469342B8BF1346336091F8BD
:1047880043200C46DDF820800AB1013333602368EA
:10479800990642BF336802333360256815F0060571
:1047A80006D104F1190AE36832689B1AAB422BDC84
:1047B80094F84320131E226818BF0123920630D4B0
:1047C8004946384604F14302C047013023D02368E4
:1047D800226903F00603042B14BF002533684FF049
:1047E800000608BFE56804F11A0408BFED1A54F87A
:1047F800123C08BF25EAE5759342C4BF9B1AED1821
:10480800B5421AD1002008E00123524649463846ED
:10481800C047013003D14FF0FF30BDE8F0870135C4
:10482800C1E73020E11881F843005A1C94F845107C
:104838002244023382F84310C2E701232246494644
:104848003846C0470130E6D00136D9E72DE9FF47A1
:104858000F7E9146782F80460C469A460C9D01F1B2
:10486800430207D8622F0AD8002F00F0D580582FAE
:1048780000F0C18004F1420584F842703AE0A7F1E3
:104888006303152BF6D801A151F823F0ED48000871
:10489800014900087D4800087D4800087D48000857
:1048A8007D480008014900087D4800087D48000847
:1048B8007D4800087D480008074A00082D4900087F
:1048C800C14900087D4800087D480008294A0008B9
:1048D8007D4800082D4900087D4800087D480008EB
:1048E800C94900082B681A1D1B682A6004F1420593
:1048F80084F842300123A0E020682B68070603F102
:104908000401296001D51E6803E04606FBD5B3F90A
:104918000060002E03DA2D23764284F843300A2300
:10492800594812E02B682068191D2960050601D531
:104938001E6802E04106FBD51E886F2F0CBF0823B6
:104948000A235148002184F843106568002DA8BF48
:104958002168A560A4BF21F0040121600EB9002DD3
:104968004BD01546B6FBF3F103FB1167C75D05F89D
:10497800017D3746BB420E46F4D9082B0BD123687C
:10498800DE0708D5236961689942DEBF302305F840
:10499800013C05F1FF35521B22614B46214640463A
:1049A800CDF800A003AAFFF7DFFE01304AD14FF08F
:1049B800FF3004B0BDE8F087236843F0200323608C
:1049C8007827324884F84570236829681F0651F80B
:1049D800046B02D45F0648BFB6B2DF0748BF43F096
:1049E8002003296048BF23601EB9236823F02003F1
:1049F80023601023A6E72448E4E71546BDE72B68A3
:104A08002668181D6169286035061B6801D519607C
:104A180002E07006FBD51980002315462361BCE728
:104A28002B6800211A1D2A601D686268284600F05C
:104A3800B3F908B1401B606063682361002384F800
:104A48004330AAE72A46494640462369D047013001
:104A5800ADD023689B0713D4E068039B9842B8BF86
:104A68001846A6E70123324649464046D04701305A
:104A78009DD00135E36803995B1AAB42F2DCEBE7A2
:104A8800002504F11906F5E7F86B0008096C000821
:104A9800002310B50446C0E90033C0E9043383603D
:104AA80081814366C2818361194608225C3000F027
:104AB800F4F8054B24626362044BA362044BE3627F
:104AC800044B236310BD00BF1D4C00083F4C000879
:104AD800774C00089B4C0008024A0349034800F041
:104AE80069B800BF0C000020096700081800002002
:104AF80041680C4B10B59942044601D001F000FE04
:104B0800A168094B994202D0204601F0F9FDE168FD
:104B1800064B994204D02046BDE8104001F0F0BD94
:104B280010BD00BFEC03002054040020BC0400208A
:104B380010B50B4B0B4C0C4A20461A60042100227E
:104B4800FFF7A6FF04F1680001220921FFF7A0FF83
:104B580004F1D0000222BDE810401221FFF798BFEF
:104B680024050020EC030020E14A0008014800F079
:104B780011B900BF2D050020014800F00CB900BF95
:104B88002D05002010B50446FFF7F0FF236A1BB17E
:104B9800BDE81040FFF7F0BF044B2362044B1B68CD
:104BA800002BF5D1FFF7C4FFF2E700BFF94A000870
:104BB800240500202DE9F8430746884614460026B8
:104BC800D4E90195B9F1010905D52468002CF7D17C
:104BD8003046BDE8F883AB89012B07D9B5F90E300B
:104BE800013303D029463846C04706436835E9E70C
:104BF8000FB407B5064904AB086853F8042B81685D
:104C0800019301F0E1FB03B05DF804EB04B07047D9
:104C18006400002010B50C46B1F90E1000F06CF8D5
:104C28000028ABBF636DA3891B1823F48053ACBF66
:104C38006365A38110BD2DE9F0411F468B890546A8
:104C4800DB050C46164605D502230022B1F90E10E5
:104C580000F040F8A389324623F48053A381284604
:104C68003B46B4F90E10BDE8F04100F057B810B556
:104C78000C46B1F90E1000F02DF8431CA38915BF9E
:104C8800606523F4805343F48053A38118BFA38144
:104C980010BDB1F90E1000F00DB80346024493425E
:104CA80000D1704703F8011BF9E70000004870477E
:104CB8005801002038B50023054D044608462B60EE
:104CC800FCF774FD431C02D12B6803B1236038BD87
:104CD8002805002038B50446084611460022054D2F
:104CE8002A601A46FCF786FD431C02D12B6803B1E3
:104CF800236038BD2805002038B50446084611460B
:104D08000022054D2A601A46FCF717FD431C02D104
:104D18002B6803B1236038BD2805002038B5044648
:104D2800084611460022054D2A601A46FCF722FD66
:104D3800431C02D12B6803B1236038BD280500202D
:104D4800014B1868704700BF6400002070B500264A
:104D58000C4D0D4C641BA410A64209D101F0E0FED5
:104D680000260A4D0A4C641BA410A64205D170BD4A
:104D780055F8043B98470136EEE755F8043B984749
:104D88000136F2E7546F0008546F0008546F0008AA
:104D9800586F000870477047034610B5C9B20244FF
:104DA8009342184601D1002003E0047801338C4275
:104DB800F6D110BD2DE9F74F03690C690746A342E8
:104DC8007FDB013C00F1140501F1140805EB8403B5
:104DD800019358F8243055F8242001339A42B2FB45
:104DE800F3F64FEA840B08EB840931D34FF0000E39
:104DF8004046AC46F24650F8042B93B206FB03E358
:104E08004FEA124E1A0C9BB206FB0E22AAEB0303C2
:104E1800DCF800A04FEA124E1FFA8AFA5344DCF875
:104E280000A092B2C2EB1A4202EB23429BB243EAC1
:104E3800024381454FEA224A4CF8043BDBD255F83D
:104E48000B302BB9019B043B9D421A462DD33C6184
:104E5800384601F093F9002823DB29460020013663
:104E680058F8042BD1F800C093B2C31A120C1FFAD9
:104E78008CF00344C2EB1C4202EB23429BB243EA90
:104E88000243C1454FEA224041F8043BE8D255F8B5
:104E9800242005EB840322B9043B9D421A460AD319
:104EA8003C61304603B0BDE8F08F1268043B002A2D
:104EB800CDD1013CC8E71268043B002AF0D1013C7F
:104EC800EBE70020EEE700002DE9F04F16461F46FD
:104ED800C46999B00546CDE90467DDF8948074B9D2
:104EE800102000F01DFE0246E86120B9EF21AC4B0E
:104EF800AC4801F0E1FCC0E901440460C460EB691E
:104F0800196851B15A68012393404A608B6028465A
:104F180000F0FAFE0022EB691A603B1EAFBF0023C7
:104F2800012223F000430593A8BFC8F80030DDF83C
:104F380014909D4BB8BFC8F8002033EA090319D173
:104F480042F20F73249A1360C9F31303334300F03A
:104F58008985269B53B9954B23E0954B03930833DA
:104F6800269A1360039819B0BDE8F08F8F4B03930E
:104F78000333F5E7DDE90434CDE90C34DDE90C0150
:104F880000220023FBF72CFE804660B10123249AFF
:104F98001360269B002B00F06285864B269A1360CF
:104FA800013B0393DEE716AB019317AB009328464A
:104FB800DDE90C2301F08AF9C9F30A548246002C72
:104FC8007ED0DDE90C010D9BA4F2FF34C3F313037B
:104FD80043F07F5343F44013CDF84C801946002228
:104FE800754BFBF7DDF968A3D3E90023FBF790FBCA
:104FF80067A3D3E90023FBF7D5F9064620460F46F9
:10500800FBF71CFB64A3D3E90023FBF781FB0246F3
:105018000B4630463946FBF7C5F906460F46FBF7FF
:1050280027FE00228346002330463946FBF7E2FD7F
:1050380048B15846FBF702FB32463B46FBF7D0FD2A
:1050480008B90BF1FF3BBBF1160F57D8DDE90C018E
:105058005A4B03EBCB03D3E90023FBF7CBFD002826
:105068004ED000230BF1FF3B0F93169B1B1B5A1EC0
:1050780046BFC3F1010900234FF00009099248BF58
:105088000993BBF1000F3DDB099BCDF838B05B44B9
:10509800099300230A93229B092B67D8052BC4BFC9
:1050A800043B2293229BC8BF0024A3F10203D8BF6C
:1050B8000124032B00F28680DFE803F02C393756F1
:1050C800DDE916431C4404F23243202BC1BFC3F16F
:1050D800400309FA03F904F2124326FA03F3D6BF90
:1050E800C3F1200349EA030006FA03F0FBF796FA36
:1050F8000122A1F1F873013C13926FE70123B3E792
:105108000F90B2E7CBF100030A930023A9EB0B0938
:105118000E93C0E700230B93239B002B55DC012340
:105128001A460693089323920BE00123F3E7002322
:105138000B93239B5B4406930133012B0893B8BF61
:10514800012300210422E86902F114069E4240D995
:105158004160284600F098FD039000283CD10246A3
:1051680040F2AF11164BC3E60123E1E70124002307
:105178000B9422934FF0FF330022069308931223D7
:10518800D1E700BFAFF3008061436F63A787D23FC9
:10519800B3C8608B288AC63FFB799F501344D33F1E
:1051A800276C00083E6C00080000F07F236C0008A4
:1051B8001A6C0008F76B00080000F83F286D00081B
:1051C800966C000801230B93D4E7239B069308935E
:1051D800B7E701315200B7E7EB69039A1A60089BF9
:1051E8000E2B00F2A880002C00F0A580BBF1000F68
:1051F80034DD9A4B0BF00F0203EBC2031BF4807FE4
:10520800D3E90034CDE910344FEA2B1416D0DDE988
:105218000C01934B0327D3E90823FBF7A3FBCDE944
:10522800040104F00F048E4E54B9DDE91023DDE9C2
:105238000401FBF797FBCDE9040129E00227F2E717
:10524800E10708D5DDE91001D6E90023FBF760FA8C
:10525800CDE91001013764100836E5E700F0A580B4
:10526800DDE90C01CBF100047C4B04F00F0203EBE9
:10527800C203D3E90023FBF74BFA02270023CDE949
:105288000401774E2411002C40F08480002BD2D1E9
:10529800DDE90434CDE910340F9B002B00F0878042
:1052A800DDE9100100226F4BFBF7A4FC00287ED03B
:1052B800089B002B7BD0069B002B38DDDDE9100115
:1052C8000022694BFBF724FACDE90401069C0BF197
:1052D800FF3801373846FBF7B1F9DDE90423FBF75E
:1052E80017FA0022614BFBF75DF8A1F15076CDE982
:1052F80010011196002C5DD1DDE9040100225C4B00
:10530800FBF74EF802460B46CDE904233346109AC4
:10531800FBF78EFC002840F09582DDE90401109A25
:1053280006F10043FBF766FC002840F08982DDE9BE
:105338000C34CDE90434179B002BC0F25181BBF12A
:105348000E0F00F34D81454B03EBCB03D3E900343B
:10535800CDE90634239B002B80F2DA80089B002BD2
:1053680000F3D68040F06B82DDE906010022404B55
:10537800FBF7CEF9DDE90423FBF750FC089C264631
:10538800002840F041823123039F0BF1010B07F8FD
:10539800013B3DE2E20705D5D6E90023FBF7B8F962
:1053A80001230137641008366DE7022770E7D846F5
:1053B800089C8FE70399294B214412910B9903EB21
:1053C800C403DDE9106753E90223002954D0002003
:1053D8002849FBF7C7FA3B463246FAF7E1FFCDE921
:1053E8001001039FDDE90401FBF742FC0446FBF7CB
:1053F80025F902460B46DDE90401FAF7D1FF02461A
:105408000B463034CDE90423DDE9102307F8014BBE
:10541800FBF7F0FB002873D1DDE9042300201149D4
:10542800FAF7BEFFDDE91023FBF7E4FB002840F0A4
:10543800B680129B9F423FF47AAFDDE9100100224B
:10544800094BFBF765F90022CDE91001DDE90401FC
:10545800054BFBF75DF9CDE90401C3E7286D0008AA
:10546800006D00080000F03F0000244000001C40D0
:10547800000014400000E03F30463946FBF748F989
:10548800129BCDE91001039C1493DDE90401FBF79D
:10549800EFFB1590FBF7D2F802460B46DDE9040155
:1054A800FAF77EFF159B0646303304F8013B129B42
:1054B8000F469C424FF0000224D1DDE91001AF4BAA
:1054C800FAF770FF02460B4630463946FBF7B0FB49
:1054D800002863D1DDE910230020A849FAF760FF0E
:1054E80002460B4630463946FBF784FB00283FF45A
:1054F8001EAF149F7B1E149317F8013C302BF8D075
:10550800C3463BE09E4BFBF703F9CDE90401BCE73A
:10551800039FDDE90489DDE9062340464946FBF798
:1055280021FAFBF7A5FB0446FBF788F8DDE906231B
:10553800FBF7EEF802460B4640464946FAF730FFBD
:1055480004F1300607F8016B039EDDF820C0BE1B8E
:10555800B44502460B4636D1FAF724FFDDE90623A7
:1055680080468946FBF764FB58BBDDE906234046C5
:105578004946FBF735FB08B1E30722D451462846D4
:1055880000F0C2FB0023249A3B700BF10103136067
:10559800269B002B3FF4E6AC1F60E3E427463B461E
:1055A8001F4613F8012D392A07D1039A9A42F7D1D9
:1055B8003022039908F101080A701A7801321A702A
:1055C8009EE7D846EBE700226D4BFBF7A1F80022D7
:1055D800002380468946FBF703FB00289BD0CDE7D4
:1055E8000B9A002A00F0C480229A012A00F3A880AE
:1055F800139A002A00F0A08003F233434F460A9C16
:10560800099A01211A4428469944099200F032FC6B
:1056180006465FB1099B002B08DDBB42A8BF3B468D
:10562800099AA9EB0309FF1AD31A09930A9BF3B144
:105638000B9B002B00F0A080002C10DD3146224689
:10564800284600F0D5FC524601460646284600F09A
:1056580027FC80465146284600F056FBC2460A9B66
:105668001A1B04D05146284600F0C2FC824601218C
:10567800284600F0FFFB0E9B0446002B40F3828077
:105688001A460146284600F0B3FC229B0446012B2B
:105698007BDD4FF00008236904EB8303186900F0F1
:1056A8009BFBC0F12000099B184410F01F0000F07C
:1056B8009280C0F12003042B40F38580099BC0F140
:1056C8001C000344814407440993B9F1000F05DD28
:1056D80051464A46284600F0E5FC8246099B002BC5
:1056E80005DD21461A46284600F0DCFC04460F9BDF
:1056F800002B72D02146504600F040FD00286CDA9D
:10570800002351460A22284600F020FB0B9B8246C4
:105718000BF1FF3B002B00F0AC81002331460A223D
:10572800284600F013FB069B0646002B00F39380E7
:10573800229B022B59DC8EE0169BC3F136035DE7F2
:10574800089B5C1E0A9BA342BFBF0A9B0E9AE31AE2
:10575800D218A8BF1C1B089BBEBF0A940E92002437
:10576800002BB5BFA9EB03074F460023089B47E76B
:105778004F460A9C0B9E4CE70A9A73E70000E03FED
:1057880000002440229B012B18DC049BB3B9059B25
:10579800C3F3130393B9059B23F000431B0D1B05AB
:1057A8007BB14FF00108099B09F101090133099305
:1057B8000E9B002B7FF46FAF012074E74FF00008B9
:1057C800F6E79846F4E780D0099A1C331A449944BE
:1057D8001F44099279E70346F6E7089B002B34DC5F
:1057E800229B022B31DD089B0693069B63B9214659
:1057F8000522284600F0AAFA01460446504600F061
:10580800BDFC00283FF7BFAD239B039F6FEA030B46
:105818004FF000082146284600F076FA002E3FF4A3
:10582800ADAEB8F1000F05D0B04503D041462846CB
:1058380000F06AFA3146284600F066FA9EE600242F
:105848002646E1E7C34626469DE50B9B002B00F064
:10585800C880089B0693002F05DD31463A46284646
:1058680000F020FC0646B8F1000F5BD028467168AE
:1058780000F00AFA074628B9024640F2EF21814BA8
:10588800FFF736BB326906F10C01023292000C3088
:1058980001F004F801223946284600F003FCB0461E
:1058A8000646039B039A01330893069B13440B9304
:1058B800049B03F001030A93089B2146013B5046D1
:1058C8000493FFF777FA4146069000F130095046F5
:1058D80000F054FC324609902146284600F06AFC44
:1058E800C268074602BB0146504600F047FC024624
:1058F800394628460C9200F007FA229B0C9A089F1A
:1059080043EA02010A9B194310D1B9F1390F29D092
:10591800099B002B02DD069B03F13109049B83F8E8
:10592800009077E73046BAE70122E1E7099B002BB0
:1059380004DB22990B430A990B4320D1002AEDDDA1
:1059480051460122284600F0ADFB2146824600F070
:1059580015FC002803DCE1D119F0010FDED0B9F104
:10596800390FD8D13923049A13703B461F4617F8CC
:10597800012C013B392A6BD001321A704AE7002A00
:1059880007DDB9F1390FEDD0049A09F1010313705D
:1059980040E7089B0B9A03F8019C934242D051467A
:1059A80000230A22284600F0D1F9B04582464FF07C
:1059B80000034FF00A024146284607D100F0C6F915
:1059C80080460646089B0133089375E700F0BEF948
:1059D8003146804600230A22284600F0B7F90646D9
:1059E800F0E7089B0693039F21465046FFF7E2F92C
:1059F800039B00F1300907F8019BFA1A069B9342B2
:105A080007DD514600230A22284600F09FF9824606
:105A1800EAE7069B4FF00008002BCCBF1F46012782
:105A2800039B1F4451460122284600F03BFB2146B8
:105A3800824600F0A3FB002897DC02D119F0010F81
:105A480093D13B461F4613F8012D302AFAD0E1E6E0
:105A5800039A9A428AD131230BF1010B97E70A4B3B
:105A6800FFF79FBA269B002B7FF477AA074BFFF717
:105A780098BA069B002BB6DC229B022B3FF7B5AEEB
:105A8800B1E700BF966C0008F66B00081A6C0008B6
:105A980038B50546002940D051F8043C0C1F002BAE
:105AA800B8BFE41800F0E4F81C4A136833B963601F
:105AB80014602846BDE8384000F0E0B8A34208D991
:105AC800206821188B4201BF19685B68091821609A
