:020000040800F2
:1000000000C00020BD280008991B00089F1B0008A5
:10001000A51B0008AB1B0008B11B00080000000076
:10002000000000000000000000000000B71B0008F6
:10003000C31B000800000000CF1B0008DB1B0008EA
:1000400005290008052900080529000805290008D8
:100050000529000805290008E71B000805290008F4
:1000600005290008052900080529000805290008B8
:1000700005290008052900080529000805290008A8
:100080000529000805290008052900080529000898
:100090000529000805290008052900080529000888
:1000A0000529000805290008052900080529000878
:1000B0000529000805290008052900080529000868
:1000C0000529000805290008052900080529000858
:1000D0000529000805290008052900080529000848
:1000E0000529000805290008052900080529000838
:1000F0000529000805290008052900080529000828
:100100000529000805290008052900080529000817
:100110000529000805290008F51B0008091C00082E
:1001200005290008052900080529000805290008F7
:1001300000000000000000000000000000000000BF
:1001400000000000000000000000000000000000AF
:10015000000000000000000000000000000000009F
:10016000000000000000000000000000000000008F
:10017000000000000000000000000000000000007F
:10018000000000000000000000000000000000006F
:10019000000000000000000000000000000000005F
:1001A000000000000000000000000000000000004F
:1001B000000000000000000000000000000000003F
:1001C000000000000000000000000000000000002F
:1001D000000000000000000000000000000000001F
:0401E0005FF8E0F1F3
:1001E80010B5054C237833B9044B13B10448AFF369
:1001F80000800123237010BDD401002000000000FE
:10020800FC95000808B5034B1BB103490348AFF33D
:10021800008008BD00000000D8010020FC950008FF
:10022800034613F8012B002AFBD1181A013870472E
:100238004FF0FF0C1CEAD0521EBF1CEAD15392EAC1
:100248000C0F93EA0C0F6FD01A4480EA010C40029D
:1002580018BF5FEA41211ED04FF0006343EA5010F7
:1002680043EA5111A0FB01310CF00040B1F5000F39
:100278003EBF490041EAD3715B0040EA010062F1E8
:100288007F02FD2A1DD8B3F1004F40EBC25008BFD2
:1002980020F00100704790F0000F0CF0004C08BFF0
:1002A80049024CEA502040EA51207F3AC2BFD2F1BD
:1002B800FF0340EAC250704740F400004FF00003CB
:1002C800013A5DDC12F1190FDCBF00F00040704705
:1002D800C2F10002410021FA02F1C2F1200200FA43
:1002E80002FC5FEA310040F1000053EA4C0308BF0A
:1002F80020EADC70704792F0000F00F0004C02BF5B
:10030800400010F4000F013AF9D040EA0C0093F0D5
:10031800000F01F0004C02BF490011F4000F013B2F
:10032800F9D041EA0C018FE70CEAD15392EA0C0F9D
:1003380018BF93EA0C0F0AD030F0004C18BF31F008
:10034800004CD8D180EA010000F00040704790F0DE
:10035800000F17BF90F0004F084691F0000F91F082
:10036800004F14D092EA0C0F01D142020FD193EA48
:100378000C0F03D14B0218BF084608D180EA0100D0
:1003880000F0004040F0FE4040F40000704740F0AC
:10039800FE4040F44000704781F0004102E000BF99
:1003A80083F0004330B54FEA41044FEA430594EA2D
:1003B800050F08BF90EA020F1FBF54EA000C55EA68
:1003C800020C7FEA645C7FEA655C00F0E2804FEA39
:1003D8005454D4EB5555B8BF6D420CDD2C4480EA1B
:1003E800020281EA030382EA000083EA010180EA4B
:1003F800020281EA0303362D88BF30BD11F0004F99
:100408004FEA01314FF4801C4CEA113102D04042CE
:1004180061EB410113F0004F4FEA03334CEA133309
:1004280002D0524263EB430394EA050F00F0A78021
:10043800A4F10104D5F1200E0DDB02FA0EFC22FA1C
:1004480005F2801841F1000103FA0EF2801843FA10
:1004580005F359410EE0A5F120050EF1200E012A01
:1004680003FA0EFC28BF4CF0020C43FA05F3C0183F
:1004780051EBE37101F0004507D54FF0000EDCF1B8
:10048800000C7EEB00006EEB0101B1F5801F1BD361
:10049800B1F5001F0CD349085FEA30004FEA3C0C65
:1004A80004F101044FEA445212F5800F80F09A805B
:1004B800BCF1004F08BF5FEA500C50F1000041EB5F
:1004C800045141EA050130BD5FEA4C0C404141EB63
:1004D8000101013C28BFB1F5801FE9D291F0000F5E
:1004E80004BF01460020B1FA81F308BF2033A3F10D
:1004F8000B03B3F120020CDA0C3208DD02F1140C04
:10050800C2F10C0201FA0CF021FA02F10CE002F13E
:100518001402D8BFC2F1200C01FA02F120FA0CFC37
:10052800DCBF41EA0C019040E41AA2BF01EB045180
:10053800294330BD6FEA04041F3C1CDA0C340EDC7E
:1005480004F11404C4F1200220FA04F001FA02F3C1
:1005580040EA030021FA04F345EA030130BDC4F17F
:100568000C04C4F1200220FA02F001FA04F340EA74
:100578000300294630BD21FA04F0294630BD94F025
:10058800000F83F4801306BF81F480110134013D0C
:100598004EE77FEA645C18BF7FEA655C29D094EA7D
:1005A800050F08BF90EA020F05D054EA000C04BFFB
:1005B8001946104630BD91EA030F1EBF00210020E6
:1005C80030BD5FEA545C05D14000494128BF41F085
:1005D800004130BD14F580043CBF01F5801130BDE9
:1005E80001F0004545F0FE4141F470014FF0000074
:1005F80030BD7FEA645C1ABF194610467FEA655C25
:100608001CBF0B46024650EA013406BF52EA0335C6
:1006180091EA030F41F4002130BD00BF90F0000FB4
:1006280004BF0021704730B54FF4806404F13204F0
:100638004FF000054FF0000150E700BF90F0000FA9
:1006480004BF0021704730B54FF4806404F13204D0
:1006580010F0004548BF40424FF000013EE700BFA0
:1006680042004FEAE2014FEA31014FEA02701FBF30
:1006780012F07F4393F07F4F81F06051704732F062
:100688007F4208BF704793F07F4F04BF41F40021B9
:10069800704730B54FF4607401F0004521F0004117
:1006A8001CE700BF50EA010208BF704730B54FF0A1
:1006B80000050AE050EA010208BF704730B511F0A2
:1006C800004502D5404261EB41014FF4806404F1DA
:1006D80032045FEA915C3FF4D8AE4FF003025FEA60
:1006E800DC0C18BF03325FEADC0C18BF033202EBE4
:1006F800DC02C2F1200300FA03FC20FA02F001FA3E
:1007080003FE40EA0E0021FA02F11444BDE600BFE0
:1007180070B54FF0FF0C4CF4E06C1CEA11541DBF8F
:100728001CEA135594EA0C0F95EA0C0F00F0DEF85A
:100738002C4481EA030621EA4C5123EA4C5350EA3F
:10074800013518BF52EA033541F4801143F4801390
:1007580038D0A0FB02CE4FF00005E1FB02E506F021
:100768000042E0FB03E54FF00006E1FB03569CF076
:10077800000F18BF4EF0010EA4F1FF04B6F5007F7C
:1007880064F5407404D25FEA4E0E6D4146EB0606EE
:1007980042EAC62141EA55514FEAC52040EA5E5077
:1007A8004FEACE2EB4F1FD0C88BFBCF5E06F1ED821
:1007B800BEF1004F08BF5FEA500E50F1000041EB58
:1007C800045170BD06F0004646EA010140EA020005
:1007D80081EA0301B4EB5C04C2BFD4EB0C0541EA27
:1007E800045170BD41F480114FF0000E013C00F33C
:1007F800AB8014F1360FDEBF002001F0004170BD60
:10080800C4F10004203C35DA0C341BDC04F1140478
:10081800C4F1200500FA05F320FA04F001FA05F204
:1008280040EA020001F0004221F0004110EBD370D1
:1008380021FA04F642EB06015EEA430E08BF20EAFD
:10084800D37070BDC4F10C04C4F1200500FA04F3A0
:1008580020FA05F001FA04F240EA020001F0004132
:1008680010EBD37041F100015EEA430E08BF20EAA5
:10087800D37070BDC4F1200500FA05F24EEA020EED
:1008880020FA04F301FA05F243EA020321FA04F01C
:1008980001F0004121FA04F220EA020000EBD370D3
:1008A8005EEA430E08BF20EAD37070BD94F0000FD3
:1008B8000FD101F00046400041EB010111F4801F07
:1008C80008BF013CF7D041EA060195F0000F18BFB8
:1008D800704703F00046520043EB030313F4801FF4
:1008E80008BF013DF7D043EA0603704794EA0C0FAE
:1008F8000CEA135518BF95EA0C0F0CD050EA4106C4
:1009080018BF52EA4306D1D181EA030101F0004140
:100918004FF0000070BD50EA410606BF1046194668
:1009280052EA430619D094EA0C0F02D150EA013674
:1009380013D195EA0C0F05D152EA03361CBF1046B5
:1009480019460AD181EA030101F0004141F0FE4154
:1009580041F470014FF0000070BD41F0FE4141F4D8
:10096800780170BD70B54FF0FF0C4CF4E06C1CEAD8
:1009780011541DBF1CEA135594EA0C0F95EA0C0F8D
:1009880000F0A7F8A4EB050481EA030E52EA033548
:100998004FEA013100F088804FEA03334FF0805569
:1009A80045EA131343EA12634FEA022245EA111596
:1009B80045EA10654FEA00260EF000419D4208BF47
:1009C800964244F1FD0404F5407402D25B084FEAF4
:1009D8003202B61A65EB03055B084FEA32024FF4A0
:1009E80080104FF4002CB6EB020E75EB030E22BFFD
:1009F800B61A754640EA0C005B084FEA3202B6EBBD
:100A0800020E75EB030E22BFB61A754640EA5C006B
:100A18005B084FEA3202B6EB020E75EB030E22BFFB
:100A2800B61A754640EA9C005B084FEA3202B6EBFC
:100A3800020E75EB030E22BFB61A754640EADC00BB
:100A480055EA060E18D04FEA051545EA16754FEA1D
:100A580006164FEAC30343EA52734FEAC2025FEA3B
:100A68001C1CC0D111F4801F0BD141EA00014FF0CA
:100A780000004FF0004CB6E711F4801F04BF01439B
:100A88000020B4F1FD0C88BFBCF5E06F3FF6AFAEB7
:100A9800B5EB030C04BFB6EB020C5FEA500C50F147
:100AA800000041EB045170BD0EF0004E4EEA1131CA
:100AB80014EB5C04C2BFD4EB0C0541EA045170BDD1
:100AC80041F480114FF0000E013C90E645EA060E15
:100AD8008DE60CEA135594EA0C0F08BF95EA0C0F43
:100AE8003FF43BAF94EA0C0F0AD150EA01347FF48B
:100AF80034AF95EA0C0F7FF425AF104619462CE762
:100B080095EA0C0F06D152EA03353FF4FDAE1046C4
:100B1800194622E750EA410618BF52EA43067FF415
:100B2800C5AE50EA41047FF40DAF52EA43057FF4A5
:100B3800EBAE12E74FF0FF3C06E000BF4FF0010CB0
:100B480002E000BF4FF0010C4DF804CD4FEA410C14
:100B58007FEA6C5C4FEA430C18BF7FEA6C5C1BD0E1
:100B680001B050EA410C0CBF52EA430C91EA030F62
:100B780002BF90EA020F0020704710F1000F91EABF
:100B8800030F58BF994208BF90422CBFD8176FEA8D
:100B9800E37040F0010070474FEA410C7FEA6C5C5B
:100BA80002D150EA013C07D14FEA430C7FEA6C5C62
:100BB800D6D152EA033CD3D05DF8040B704700BF8E
:100BC8008446104662468C461946634600E000BFDC
:100BD80001B5FFF7B7FF002848BF10F1000F01BDAE
:100BE8004DF808EDFFF7F4FF0CBF012000205DF879
:100BF80008FB00BF4DF808EDFFF7EAFF34BF0120FE
:100C080000205DF808FB00BF4DF808EDFFF7E0FF96
:100C180094BF012000205DF808FB00BF4DF808EDE7
:100C2800FFF7CEFF94BF012000205DF808FB00BF4E
:100C38004DF808EDFFF7C4FF34BF012000205DF830
:100C480008FB00BF4FEA410C7FEA6C5C02D150EA16
:100C5800013C0AD14FEA430C7FEA6C5C02D152EAAC
:100C6800033C02D14FF0000070474FF0010070477D
:100C78004FEA410212F5001215D211D56FF47873BC
:100C8800B3EB625212D94FEAC12343F0004343EA5F
:100C9800505311F0004F23FA02F018BF404270473A
:100CA8004FF00000704750EA013005D111F00040C4
:100CB80008BF6FF0004070474FF00000704700BF5A
:100CC8004A0011D212F5001211D20DD56FF47873C3
:100CD800B3EB62520ED44FEAC12343F0004343EA18
:100CE800505323FA02F070474FF00000704750EA63
:100CF800013002D14FF0FF3070474FF000007047CD
:100D08004FEA4102B2F1E04324BFB3F5001CDCF125
:100D1800FE5C0DD901F0004C4FEAC0024CEA50705D
:100D2800B2F1004F40EB830008BF20F0010070478C
:100D380011F0804F21D113F13872BCBF01F000408F
:100D4800704741F480114FEA5252C2F11802C2F1C1
:100D5800200C10FA0CF320FA02F018BF40F0010042
:100D68004FEAC1234FEAD32303FA0CFC40EA0C00F4
:100D780023FA02F34FEA4303CCE77FEA625307D131
:100D880050EA01331EBF4FF0FE4040F44000704768
:100D980001F0004040F0FE4040F40000704700BF02
:100DA80080F0004002E000BF81F0004142001FBF18
:100DB8005FEA410392EA030F7FEA226C7FEA236C21
:100DC8006AD04FEA1262D2EB1363C1BFD218414016
:100DD80048404140B8BF5B42192B88BF704710F0AC
:100DE800004F40F4000020F07F4018BF404211F04F
:100DF800004F41F4000121F07F4118BF494292EAB7
:100E0800030F3FD0A2F1010241FA03FC10EB0C00E2
:100E1800C3F1200301FA03F100F0004302D549426F
:100E280060EB4000B0F5000F13D3B0F1807F06D31C
:100E380040084FEA310102F10102FE2A51D2B1F114
:100E4800004F40EBC25008BF20F0010040EA030009
:100E58007047490040EB0000013A28BFB0F5000F89
:100E6800EDD2B0FA80FCACF1080CB2EB0C0200FA3F
:100E78000CF0AABF00EBC25052421843BCBFD0408E
:100E88001843704792F0000F81F4000106BF80F408
:100E980000000132013BB5E74FEA41037FEA226CCB
:100EA80018BF7FEA236C21D092EA030F04D092F096
:100EB800000F08BF0846704790EA010F1CBF0020CA
:100EC800704712F07F4F04D1400028BF40F0004027
:100ED800704712F100723CBF00F50000704700F047
:100EE800004343F0FE4040F4000070477FEA22626E
:100EF80016BF08467FEA23630146420206BF5FEA3F
:100F0800412390EA010F40F4800070474FF000033E
:100F180004E000BF10F0004348BF40425FEA000C05
:100F280008BF704743F0964301464FF000001CE0AD
:100F380050EA010208BF70474FF000030AE000BF03
:100F480050EA010208BF704711F0004302D5404241
:100F580061EB41015FEA010C02BF844601460020B3
:100F680043F0B64308BFA3F18053A3F50003BCFACE
:100F78008CF2083AA3EBC25310DB01FA02FC63447B
:100F880000FA02FCC2F12002BCF1004F20FA02F282
:100F980043EB020008BF20F00100704702F1200275
:100FA80001FA02FCC2F1200250EA4C0021FA02F2D6
:100FB80043EB020008BF20EADC7070474FEA4002AA
:100FC800B2F1FE4F0FD34FF09E03B3EB12620DD96F
:100FD8004FEA002343F0004310F0004F23FA02F0D9
:100FE80018BF404270474FF00000704712F1610F80
:100FF80001D1420205D110F0004008BF6FF0004057
:1010080070474FF00000704738B505460C4600227F
:10101800002328462146FFF7EDFD28B9284621463A
:10102800BDE8384000F00AB8284604F1004100F055
:1010380005F8404261EB410138BD00BFD0B5002240
:101048000B4B06460F46FFF763FBFFF739FE0446D6
:10105800FFF7E4FA0022074BFFF75AFB02460B465C
:1010680030463946FFF79CF9FFF72AFE2146D0BDE6
:101078000000F03D0000F04180B588B000AF07F1F6
:10108800100300221A605A609A60DA60374B9B6935
:10109800364A43F020039361344B9B6903F02003E5
:1010A800FB60FB68314B9B69304A43F01003936146
:1010B8002E4B9B6903F01003BB60BB682B4B9B69ED
:1010C8002A4A43F004039361284B9B6903F0040305
:1010D8007B607B68254B9B69244A43F00803936136
:1010E800224B9B6903F008033B603B6800220F21F9
:1010F8001F4801F009FF00224FF470411D4801F01C
:1011080003FF0F233B6101237B610023BB610223A3
:10111800FB6107F110031946154801F061FD012331
:101128003B61154B7B610223BB6107F11003194634
:10113800104801F055FD4FF470433B6101237B617A
:101148000023BB610223FB6107F11003194609481C
:1011580001F046FD00220021062001F00AFD0620CC
:1011680001F023FD00BF2037BD4680BD00100240BE
:1011780000100140000C01400000211080B485B02F
:1011880000AF78607B68002B03DA7B685B42FB600A
:1011980001E07B68FB60FB6818461437BD4680BCDD
:1011A8007047000080B500AF0821084802F0F4FB42
:1011B8000C21064802F0F0FB0821054802F0ECFB80
:1011C8000C21034802F0E8FB00BF80BD5402002058
:1011D800E402002080B586B000AFF860B96013461D
:1011E800FB710023FB82FB79B42B36D8FB79642290
:1011F80002FB03F31B4A82FB03121A449211DB170A
:10120800D31A1846FFF71AFA4FF00002164BFFF7E9
:10121800C9F802460B4610461946FFF751FD03462A
:10122800FB82BB68002B04D1FB681B68FA8A5A63EF
:1012380013E0BB68042B04D1FB681A68FB8A93632C
:101248000BE0BB68082B04D1FB681A68FB8AD363E0
:1012580003E0FB681A68FB8A136400BF1837BD46B1
:1012680080BD00BFB7600BB6000049400000000019
:1012780080B500AF704B9B8840F2DD32934205D9B0
:101288006D4B9B8840F2DA72934205D95A220821A5
:101298006A48FFF79FFF37E0674B9B88B3F5C86F35
:1012A80008D2654B9B88B3F5AF6F03D9624B40F208
:1012B800DC529A80604BDB88B3F5C86F08D25E4B6E
:1012C800DB88B3F5AF6F03D95B4B40F2DC52DA80B1
:1012D800594B9B89B3F57A7F08D2574B9B89B3F555
:1012E800617F03D9544B40F24C429A81524BDB89BF
:1012F800B3F57A7F08D2504BDB89B3F5617F03D908
:101308004D4B4FF47A72DA814B4B9B881846FFF7A6
:1013180095F947A3D3E90023FFF7FAF902460B46EC
:10132800104619464FF00002454BFFF739F80246C0
:101338000B4610461946FFF79BFC03461846FFF775
:101348001DFF0346DBB21A460C213C48FFF742FF5B
:10135800394BDB881846FFF771F935A3D3E9002329
:10136800FFF7D6F902460B46104619464FF0000221
:10137800334BFFF715F802460B4610461946FFF7A0
:1013880077FC03461846FFF7F9FE0346DBB21A4618
:1013980008212A48FFF71EFF274B9B891846FFF7AD
:1013A8004DF923A3D3E90023FFF7B2F902460B4610
:1013B800104619464FF00002214BFEF7F1FF024696
:1013C8000B4610461946FFF753FC03461846FFF72D
:1013D800D5FE0346DBB21A460C211A48FFF7FAFE7F
:1013E800154BDB891846FFF729F911A3D3E9002328
:1013F800FFF78EF902460B46104619464FF00002D9
:101408000F4BFEF7CDFF02460B4610461946FFF775
:101418002FFC03461846FFF7B1FE0346DBB21A4617
:1014280008210848FFF7D6FE00BF80BDAFF3008053
:101438000AD7A3703D0AC73F04020020E402002037
:10144800008066405402002080B500AF04210448A3
:1014580002F0A2FA0021024802F09EFA00BF80BD05
:101468000404002080B500AF0021084802F0F0FB1A
:101478000421064802F0ECFB0021054802F0E8FBD5
:101488000421034802F0E4FB00BF80BD9C02002059
:101498002C03002080B500AF01220121044801F08F
:1014A80033FD00220221024801F02EFD00BF80BD5D
:1014B8000010014080B500AF01220421044801F06A
:1014C80023FD00220821024801F01EFD00BF80BD57
:1014D8000010014080B500AF00220121044801F04E
:1014E80013FD01220221024801F00EFD00BF80BD5C
:1014F8000010014080B500AF00220421044801F02B
:1015080003FD01220821024801F0FEFC00BF80BD56
:101518000010014080B500AF00220121044801F00D
:10152800F3FC00220221024801F0EEFC00BF80BD5E
:101538000010014080B500AF00220421044801F0EA
:10154800E3FC00220821024801F0DEFC00BF80BD58
:101558000010014080B582B000AF786039607B68C8
:10156800002B02DBFFF7B6FF01E0FFF793FF786877
:10157800FFF704FE02460B4B1B685A633B68002BBF
:1015880002DBFFF7B7FF01E0FFF794FF3868FFF7CA
:10159800F5FD0246034B1B689A6300BF0837BD463A
:1015A80080BD00BF0404002080B400AF0E4B1B6850
:1015B8005B6A9BB25B429BB21AB20C4B1A800C4B13
:1015C8001B685B6A9BB25B429BB21AB2074B5A809C
:1015D800074B1B6800225A62034B1B6800225A62A1
:1015E80000BFBD4680BC70472C030020F8010020D6
:1015F8009C0200200000000080B582B000AF786037
:101608007868FFF71BF808A3D3E90023FFF780F8F1
:1016180002460B4610461946FFF772FB034618466A
:101628000837BD4680BD00BF286F407E4855693FDA
:1016380080B483B000AF78607B684FF080421A6056
:101648007B680C4A5A607B680B4A9A607B684FF04B
:101658000002DA607B684FF000021A617B684FF481
:101668007A725A617B6800229A6100BF0C37BD46C6
:1016780080BC70476666A63FCDCC4C3F2DE9F04153
:1016880086B000AFF860B9607A60FA68BB68D31AB0
:101698007B617B689B691846FFF73CFC05467B68C5
:1016A8001C687869FFF736FC02467B68DB681946D8
:1016B8001046FFF779FB034619462046FEF7B8FDAA
:1016C80003461E467B685C687869FFF723FC03467F
:1016D80019462046FEF7ACFD034619463046FFF78B
:1016E80065FB034698467B689C687869FFF712FC9F
:1016F80006467B68DB6819461846FFF757FB034622
:1017080019463046FFF750FB03461A467B681B69AB
:1017180019461046FFF74AFB034619462046FEF7CE
:1017280087FD034619464046FFF740FB0346194626
:101738002846FFF73BFB03461846FFF73FFC0246E7
:101748007B689A617B68DA687B681A617869FFF759
:10175800E1FB02467B68DA607B689A697B685B69B3
:101768009A4203DD7B685A697B689A617B689A694B
:101778007B685B695B429A4204DA7B685B695A4220
:101788007B689A6100BF18461837BD46BDE8F081EE
:1017980080B500AF2F4B1B88002B08D12D4B5B88E1
:1017A800002B04D1FFF7B6FEFFF7C4FE4FE0294B2C
:1017B8001B88B3F5C86F09D2264B1B88B3F5AF6FEA
:1017C80004D9244B40F2DC521A8008E0214B1B88D4
:1017D80040F2DC52934202D01F4B00221A701D4B7C
:1017E8005B88B3F5C86F09D21A4B5B88B3F5AF6F46
:1017F80004D9184B40F2DC525A8008E0154B5B883C
:1018080040F2DC52934202D0134B01221A70124B61
:101818001B78002B02D0012B0BD018E00D4B1B8836
:1018280040F2DC52934211D100210020FFF792FED2
:101838000CE0084B5B88A3F2DC53064A5288A2F2FC
:10184800DC5211461846FFF785FE00E000BF00BFD6
:1018580080BD00BF040200204C02002080B500AF0C
:1018680001F04EF800F06AF8FFF706FC00F098FA6D
:1018780000F06CFB00F040FC00F074FC00F0A8FCE9
:1018880000F066FF00F00EFB00F0E2FB00F036FF10
:101898001E4801F0C9FF1E4801F0C6FFFFF7D4FD3E
:1018A800FFF780FCFFF7DEFD1A48FFF7C1FE1A4874
:1018B800FFF7BEFEFFF76CFFFFF7DAFC174B1B883C
:1018C8001946174804F0A2F9144B5B8819461548C5
:1018D80004F09CF9114B9B881946134804F096F9BB
:1018E8000E4BDB881946114804F090F90B4B1B8905
:1018F80019460F4804F08AF9084B5B8919460D48C8
:1019080004F084F90C4804F0E7F9D3E774030020E5
:10191800BC03002014020020300200200402002032
:10192800189600082C96000840960008549600085F
:10193800689600087C9600089096000880B590B0DC
:1019480000AF07F1180328220021184604F0C4FA52
:101958003B1D00221A605A609A60DA601A610123FE
:10196800BB614FF48033FB6100233B620123BB6200
:1019780002237B634FF48033BB634FF4E013FB63B4
:1019880007F11803184601F0EFFA0346002B01D0BF
:1019980000F0C6F80F237B600223BB600023FB60C6
:1019A8004FF480633B6100237B613B1D0221184695
:1019B80001F05CFD0346002B01D000F0B1F800BF38
:1019C8004037BD4680BD000090B585B000AF786057
:1019D8007B68244A934241D1FFF7E6FD224BB3F9D5
:1019E80000301846FFF708FEF8601F4BB3F90230C5
:1019F8001846FFF701FEB8601C4B1B681C491846C7
:101A0800FEF716FC03461846FFF7D8FA04461849AD
:101A1800F868FEF70DFC03461846FFF7CFFA0346B1
:101A2800144A19462046FFF729FE134B1B68104934
:101A38001846FEF7FDFB03461846FFF7BFFA0446B3
:101A48000B49B868FEF7F4FB03461846FFF7B6FAE9
:101A580003460A4A19462046FFF710FE00BF14370E
:101A6800BD4690BD74030020F8010020F00100205D
:101A78000000C84214020020F401002030020020B7
:101A880080B483B000AF0346FB80FB88012B37D1BD
:101A98001E4B1B685B6A1E4A13601C4B1B680022A6
:101AA8005A621B4B1B68002B04D0194B1B6801336F
:101AB800174A1360174B1B78012B15D1144B196863
:101AC800154B1B881A4689B2144B23F81210124B77
:101AD8001B8801339AB2104B1A800F4B1B88082BB6
:101AE80002D90C4B00221A70094B1B6840F6B7321A
:101AF800934205D9074B01221A70074B00221A801E
:101B080000BF0C37BD4680BC704700BFBC03002037
:101B180000020020FC010020FE0100200402002039
:101B280080B400AF72B600BFFEE7000080B485B095
:101B380000AF154B9B69144A43F001039361124BA4
:101B48009B6903F00103BB60BB680F4BDB690E4A5E
:101B580043F08053D3610C4BDB6903F080537B6007
:101B68007B680A4B5B68FB60FB6823F0E063FB6003
:101B7800FB6843F00073FB60044AFB68536000BFD6
:101B88001437BD4680BC7047001002400000014079
:101B980080B400AFFEE780B400AFFEE780B400AFCA
:101BA800FEE780B400AFFEE780B400AFFEE780B484
:101BB80000AF00BFBD4680BC704780B400AF00BF17
:101BC800BD4680BC704780B400AF00BFBD4680BC36
:101BD800704780B500AF00F0D9FE00BF80BD80B56A
:101BE80000AF012001F0A8F900BF80BD80B500AFAB
:101BF800024802F0BBF800BF80BD00BF740300209C
:101C080080B500AF024802F0B1F800BF80BD00BF48
:101C1800BC03002080B400AF01231846BD4680BC39
:101C2800704780B582B000AF7860396004F0A6F9DB
:101C3800034616221A604FF0FF3318460837BD4690
:101C480080BD80B582B000AF78604FF0FF31786812
:101C5800FFF7E7FFFEE780B586B000AFF860B96030
:101C68007A6000237B610AE0AFF300800146BB681D
:101C78005A1CBA60CAB21A707B6901337B617A69EF
:101C88007B689A42F0DB7B6818461837BD4680BDF2
:101C980080B586B000AFF860B9607A6000237B61D8
:101CA80009E0BB685A1CBA601B78184600F014FD9E
:101CB8007B6901337B617A697B689A42F1DB7B68D7
:101CC80018461837BD4680BD80B483B000AF786031
:101CD8004FF0FF3318460C37BD4680BC704780B4C0
:101CE80083B000AF786039603B684FF400525A60A7
:101CF800002318460C37BD4680BC704780B483B0BB
:101D080000AF7860012318460C37BD4680BC704789
:101D180080B485B000AFF860B9607A6000231846D7
:101D28001437BD4680BC704780B586B000AF786078
:101D3800144A154BD31A7B617B693B61134B1B68B3
:101D4800002B02D1114B124A1A60104B1A687B689B
:101D580013443A699A4207D204F010F903460C2258
:101D68001A604FF0FF3309E0084B1B68FB60074B14
:101D78001A687B681344054A1360FB6818461837CD
:101D8800BD4680BD00C000200004000050020020B5
:101D98003006002080B400AF00BFBD4680BC70474D
:101DA80080B58EB000AF07F1280300221A605A6090
:101DB8009A60DA6007F1200300221A605A603B1D1E
:101DC80000221A605A609A60DA601A615A619A6150
:101DD800334B4FF080421A60314B40F2CF225A60A9
:101DE8002F4B00229A602E4B40F2CF72DA602C4BB8
:101DF80000221A612A4B80229A61294801F0C4FC0A
:101E08000346002B01D0FFF78BFE4FF48053BB62D3
:101E180007F128031946224802F072F90346002BFD
:101E280001D0FFF77DFE1E4801F05EFD0346002B42
:101E380001D0FFF775FE00233B6200237B6207F1A8
:101E480020031946164802F027FD0346002B01D04F
:101E5800FFF766FE60237B600023BB600023FB6006
:101E680000237B613B1D082219460D4802F086F8C5
:101E78000346002B01D0FFF753FE3B1D0C221946E9
:101E8800074802F07BF80346002B01D0FFF748FE15
:101E9800034800F097FB00BF3837BD4680BD00BF40
:101EA8005402002080B58CB000AF07F10C03242247
:101EB8000021184604F010F83B1D00221A605A60F1
:101EC800204B214A1A601F4B00225A601D4B0022EA
:101ED8009A601C4B4FF6FF72DA601A4B00221A61A7
:101EE800184B80229A610323FB6000233B61012386
:101EF8007B610023BB610023FB6100233B6201235C
:101F08007B620023BB620023FB6207F10C031946C6
:101F18000C4801F0FBFD0346002B01D0FFF700FE43
:101F280000237B600023BB603B1D1946054802F077
:101F3800B3FC0346002B01D0FFF7F2FD00BF30379A
:101F4800BD4680BD9C0200200004004080B58EB0D4
:101F580000AF07F1280300221A605A609A60DA601D
:101F680007F1200300221A605A603B1D00221A6004
:101F78005A609A60DA601A615A619A61324B334A40
:101F88001A60314B40F2CF225A602F4B00229A60E0
:101F98002D4B40F2CF72DA602B4B00221A612A4B8C
:101FA80000229A61284801F0EFFB0346002B01D07C
:101FB800FFF7B6FD4FF48053BB6207F128031946BB
:101FC800214802F09DF80346002B01D0FFF7A8FD39
:101FD8001D4801F089FC0346002B01D0FFF7A0FD46
:101FE80000233B6200237B6207F120031946164851
:101FF80002F052FC0346002B01D0FFF791FD60234D
:102008007B600023BB600023FB6000237B613B1DDA
:10201800082219460C4801F0B1FF0346002B01D0F5
:10202800FFF77EFD3B1D0C221946074801F0A6FF6D
:102038000346002B01D0FFF773FD034800F0C2FAF6
:1020480000BF3837BD4680BDE402002000080040CC
:1020580080B58CB000AF07F10C032422002118468C
:1020680003F03AFF3B1D00221A605A60204B214AB8
:102078001A601F4B00225A601D4B00229A601C4BAD
:102088004FF6FF72DA601A4B00221A61184B0022D1
:102098009A610323FB6000233B6101237B610023DA
:1020A800BB610023FB6100233B6201237B620023A9
:1020B800BB620023FB6207F10C0319460C4801F0D0
:1020C80025FD0346002B01D0FFF72AFD00237B6086
:1020D8000023BB603B1D1946054802F0DDFB0346A3
:1020E800002B01D0FFF71CFD00BF3037BD4680BD77
:1020F8002C030020000C004080B582B000AF3B46A6
:1021080000221A605A60154B154A1A60134B40F2A8
:10211800F3125A60114B00229A60104B41F61F428D
:10212800DA600E4B00229A610C4801F02DFB034641
:10213800002B01D0FFF7F4FC00233B6000237B60F9
:102148003B461946054802F0A7FB0346002B01D081
:10215800FFF7E6FC00BF0837BD4680BD74030020CA
:102168000010004080B582B000AF3B4600221A60E4
:102178005A60154B154A1A60134B47225A60124B86
:1021880000229A60104B4FF6FF72DA600E4B002265
:102198009A610D4801F0F8FA0346002B01D0FFF7C9
:1021A800BFFC00233B6000237B603B461946064882
:1021B80002F072FB0346002B01D0FFF7B1FC00BF11
:1021C8000837BD4680BD00BFBC0300200014004096
:1021D80080B596B000AF07F1480300221A605A6034
:1021E8009A60DA6007F1400300221A605A6007F12A
:1021F800240300221A605A609A60DA601A615A61F0
:102208009A613B1D20220021184603F065FE504BC1
:10221800504A1A604E4B03225A604D4B00229A6076
:102228004B4B40F2E732DA60494B00221A61484BC7
:1022380000225A61464B00229A61454801F0A4FAEF
:102248000346002B01D0FFF76BFC4FF48053BB64AF
:1022580007F1480319463E4801F052FF0346002B98
:1022680001D0FFF75DFC3A4801F03EFB0346002B26
:1022780001D0FFF755FC00233B6400237B6407F182
:1022880040031946324802F007FB0346002B01D0F1
:10229800FFF746FC60237B620023BB620023FB62DE
:1022A80000233B6300237B630023BB630023FB63A2
:1022B80007F1240300221946254801F05FFE034672
:1022C800002B01D0FFF72CFC07F124030422194648
:1022D8001F4801F053FE0346002B01D0FFF720FCF6
:1022E80007F1240308221946194801F047FE03465E
:1022F800002B01D0FFF714FC07F124030C22194628
:10230800134801F03BFE0346002B01D0FFF708FC01
:1023180000237B600023BB600023FB6000233B613C
:1023280000237B614FF40053BB6100233B623B1DDC
:102338001946074802F01CFB0346002B01D0FFF7A3
:10234800EFFB034800F03EF900BF5837BD4680BD9B
:10235800040400200034014080B58EB000AF7860DE
:1023680007F1240300221A605A609A60DA607B68D9
:102378001B68B3F1804F4FD1554BDB69544A43F08A
:102388000103D361524BDB6903F001033B623B6AF3
:102398004F4B9B694E4A43F0040393614C4B9B6936
:1023A80003F00403FB61FB69494B9B69484A43F00E
:1023B80008039361464B9B6903F00803BB61BB6943
:1023C8004FF400437B620223BB6202233B6307F1A5
:1023D800240319463F4800F003FC08237B620223CC
:1023E800BB6202233B6307F1240319463A4800F015
:1023F800F7FB3A4B5B687B637B6B23F440737B632F
:102408007B6B43F0E0637B637B6B43F480737B639C
:10241800324A7B6B536056E07B681B68304A9342B4
:102428000CD12B4BDB692A4A43F00403D361284BB8
:10243800DB6903F004037B617B6944E07B681B680C
:10244800284A934214D1224BDB69214A43F01003F6
:10245800D3611F4BDB6903F010033B613B6900222A
:102468000021362000F085FB362000F09EFB2AE094
:102478007B681B681C4A934214D1154BDB69144ACC
:1024880043F02003D361124BDB6903F02003FB60A8
:10249800FB6800220021372000F06BFB372000F09A
:1024A80084FB10E07B681B68104A93420BD1084BF1
:1024B8009B69074A43F400539361054B9B6903F4F6
:1024C8000053BB60BB6800BF3837BD4680BD00BF46
:1024D8000010024000080140000C014000000140CB
:1024E8000008004000100040001400400034014083
:1024F80080B58AB000AF786007F1180300221A602F
:102508005A609A60DA607B681B682A4A934224D131
:10251800294BDB69284A43F00203D361264BDB6968
:1025280003F002037B617B69234B9B69224A43F0DA
:1025380004039361204B9B6903F004033B613B69EF
:10254800C023BB610023FB6100233B6207F1180332
:1025580019461A4800F044FB28E07B681B68184AB3
:10256800934223D1144BDB69134A43F00803D36128
:10257800114BDB6903F00803FB60FB680E4B9B699A
:102588000D4A43F0040393610B4B9B6903F004036A
:10259800BB60BB680323BB610023FB6100233B6274
:1025A80007F118031946054800F01AFB00BF283741
:1025B800BD4680BD000400400010024000080140F4
:1025C800000C004080B58AB000AF786007F11403B2
:1025D80000221A605A609A60DA607B681B68B3F15F
:1025E800804F2AD1354B9B69344A43F004039361E9
:1025F800324B9B6903F004033B613B690C237B610D
:102608000223BB6102233B6207F1140319462C48DD
:1026180000F0E6FA2B4B5B687B627B6A23F440731D
:102628007B627B6A43F0E0637B627B6A43F480737E
:102638007B62244A7B6A53603CE07B681B68224AC1
:10264800934219D11D4B9B691C4A43F008039361BF
:102658001A4B9B6903F00803FB60FB684FF4407357
:102668007B610223BB6102233B6207F11403194615
:10267800164800F0B5FA1DE07B681B68144A9342BF
:1026880018D10E4B9B690D4A43F0100393610B4B15
:102698009B6903F01003BB60BB684FF470737B61E8
:1026A8000223BB6102233B6207F114031946094860
:1026B80000F096FA00BF2837BD4680BD00100240E2
:1026C800000801400000014000080040000C0140E3
:1026D800003401400010014080B582B000AF78603E
:1026E800391D4FF6FF730122034802F0F4F97B68A5
:1026F80018460837BD4680BD9404002080B500AF59
:10270800114B124A1A60104B4FF4E1325A600E4BCB
:1027180000229A600C4B0022DA600B4B00221A61EF
:10272800094B0C225A61084B00229A61064B002281
:10273800DA61054802F07FF90346002B01D0FFF764
:10274800EFF900BF80BD00BF4C040020004C0040E2
:1027580080B500AF114B124A1A60104B4FF4E132AA
:102768005A600E4B00229A600C4B0022DA600B4B29
:1027780000221A61094B0C225A61084B00229A6107
:10278800064B0022DA61054802F055F90346002B92
:1027980001D0FFF7C5F900BF80BD00BF9404002039
:1027A8000038014080B58AB000AF786007F118039F
:1027B80000221A605A609A60DA607B681B68384A9F
:1027C800934232D1374BDB69364A43F40023D36155
:1027D800344BDB6903F400237B617B69314B9B69D4
:1027E800304A43F0100393612E4B9B6903F01003AA
:1027F8003B613B694FF48063BB610223FB610323A8
:102808007B6207F118031946274800F0E9F94FF4ED
:102818000063BB610023FB6100233B6207F11803DF
:102828001946214800F0DCF936E07B681B681F4A2E
:10283800934231D11B4B9B691A4A43F480439361FD
:10284800184B9B6903F48043FB60FB68154B9B693D
:10285800144A43F004039361124B9B6903F0040389
:10286800BB60BB684FF40073BB610223FB610323A9
:102878007B6207F1180319460D4800F0B1F94FF4CF
:102888008063BB610023FB6100233B6207F11803EF
:102898001946074800F0A4F900BF2837BD4680BD97
:1028A800004C004000100240001001400038014078
:1028B80000080140FFF76EFA0B480C490C4A002348
:1028C80002E0D458C4500433C4188C42F9D3094ADE
:1028D800094C002301E013600432A242FBD303F049
:1028E80053FBFEF7BBFF704700000020D401002017
:1028F800109B0008D40100202C060020FEE70000F1
:1029080080B500AF084B1B68074A43F010031360FB
:10291800032000F023F90F2000F008F8FFF706F96C
:102928000023184680BD00BF0020024080B582B059
:1029380000AF7860124B1A68124B1B7819464FF497
:102948007A73B3FBF1F3B2FBF3F3184600F03BF9EB
:102958000346002B01D001230EE07B680F2B0AD819
:10296800002279684FF0FF3000F003F9064A7B68CF
:102978001360002300E0012318460837BD4680BDD8
:1029880000000020080000200400002080B400AFF0
:10299800054B1B781A46054B1B681344034A136002
:1029A80000BFBD4680BC704708000020DC04002042
:1029B80080B400AF024B1B681846BD4680BC704708
:1029C800DC04002080B485B000AF78607B6803F039
:1029D8000703FB600C4BDB68BB60BA684FF6FF036C
:1029E8001340BB60FB681A02BB68134343F0BF6324
:1029F80043F40033BB60044ABB68D36000BF14379C
:102A0800BD4680BC704700BF00ED00E080B400AF59
:102A1800044BDB681B0A03F007031846BD4680BC5D
:102A2800704700BF00ED00E080B483B000AF0346FC
:102A3800FB7197F90730002B0BDBFB7903F01F02C2
:102A4800064997F907305B09012000FA02F241F8BC
:102A5800232000BF0C37BD4680BC704700E100E072
:102A680080B483B000AF03463960FB7197F9073033
:102A7800002B0ADB3B68DAB20C4997F907301201E0
:102A8800D2B20B4483F800230AE03B68DAB2084963
:102A9800FB7903F00F03043B1201D2B20B441A7600
:102AA80000BF0C37BD4680BC704700BF00E100E0A6
:102AB80000ED00E080B489B000AFF860B9607A60DA
:102AC800FB6803F00703FB61FB69C3F10703042BF1
:102AD80028BF0423BB61FB690433062B02D9FB69B9
:102AE800033B00E000237B614FF0FF32BB6902FA31
:102AF80003F3DA43BB681A407B699A404FF0FF3111
:102B08007B6901FA03F3D9437B680B4013431846EA
:102B18002437BD4680BC704780B582B000AF78606E
:102B28007B68013BB3F1807F01D301230FE00A4AA0
:102B38007B68013B53600F214FF0FF30FFF790FF98
:102B4800054B00229A60044B07221A60002318469E
:102B58000837BD4680BD00BF10E000E080B582B0F8
:102B680000AF78607868FFF72DFF00BF0837BD46D3
:102B780080BD80B586B000AF0346B9607A60FB734C
:102B880000237B61FFF742FF78617A68B96878694A
:102B9800FFF790FF024697F90F3011461846FFF7E6
:102BA8005FFF00BF1837BD4680BD80B582B000AF5B
:102BB8000346FB7197F907301846FFF735FF00BF4A
:102BC8000837BD4680BD80B582B000AF78607868B0
:102BD800FFF7A2FF034618460837BD4680BD000030
:102BE80080B48BB000AF7860396000237B6200232B
:102BF8003B6279E101227B6A02FA03F3FB613B68DD
:102C08001B68FA691340BB61BA69FB699A4240F0D4
:102C180068813B685B68964A93425ED0944A9342C7
:102C280075D8944A934258D0924A93426FD8924AA0
:102C3800934252D0904A934269D8904A93424CD0DA
:102C48008E4A934263D88E4A934246D08C4A934226
:102C58005DD8122B2AD8122B59D801A252F823F08A
:102C6800E32C0008BD2C0008CF2C0008112D00080B
:102C7800172D0008172D0008172D0008172D00081C
:102C8800172D0008172D0008172D0008172D00080C
:102C9800172D0008172D0008172D0008172D0008FC
:102CA800172D0008C52C0008D92C0008754A934236
:102CB80013D02CE03B68DB683B6229E03B68DB68AB
:102CC80004333B6224E03B68DB6808333B621FE067
:102CD8003B68DB680C333B621AE03B689B68002B5F
:102CE80002D104233B6213E03B689B68012B05D1AA
:102CF80008233B627B68FA691A6109E008233B6292
:102D08007B68FA695A6103E000233B6200E000BF78
:102D1800BB69FF2B01D87B6801E07B6804337B61CA
:102D2800BB69FF2B02D87B6A9B0002E07B6A083BE9
:102D38009B003B617B691A680F213B6901FA03F329
:102D4800DB431A40396A3B6901FA03F31A437B698A
:102D58001A603B685B6803F08053002B00F0C18069
:102D6800494B9B69484A43F001039361464B9B6971
:102D780003F00103BB60BB68444A7B6A9B080233CB
:102D880052F82330FB607B6A03F003039B000F2299
:102D980002FA03F3DB43FA681340FB607B683C4AA2
:102DA80093421FD07B683B4A934219D07B683A4ACA
:102DB800934213D07B68394A93420DD07B68384AD6
:102DC800934207D07B68374A934201D105230AE032
:102DD800062308E0042306E0032304E0022302E0BC
:102DE800012300E000237A6A02F003029200934074
:102DF800FA681343FB6025497B6A9B080233FA682B
:102E080041F823203B685B6803F48013002B06D04D
:102E1800254B9A682449BB6913438B6006E0224B13
:102E28009A68BB69DB43204913408B603B685B6849
:102E380003F40013002B06D01B4BDA681A49BB6950
:102E48001343CB6006E0184BDA68BB69DB431649CD
:102E58001340CB603B685B6803F40033002B25D03C
:102E6800114B5A681049BB6913434B6025E000BFFA
:102E78000000321000003110000022100000211064
:102E88000000121000001110001002400000014064
:102E980000080140000C01400010014000140140EE
:102EA80000180140001C014000040140154B5A68FD
:102EB800BB69DB43134913404B603B685B6803F411
:102EC8008033002B06D00F4B1A680E49BB69134399
:102ED8000B6006E00B4B1A68BB69DB4309491340DA
:102EE8000B607B6A01337B623B681A687B6A22FA53
:102EF80003F3002B7FF47EAE00BF00BF2C37BD4626
:102F080080BC70470004014080B483B000AF786093
:102F18000B467B8013467B707B78002B03D07A8826
:102F28007B681A6103E07B881A047B681A6100BF1A
:102F38000C37BD4680BC704780B582B000AF0346F1
:102F4800FB80084B5A69FB881340002B06D0054AC2
:102F5800FB885361FB881846FEF792FD00BF0837CF
:102F6800BD4680BD0004014080B586B000AF7860E2
:102F78007B68002B01D1012372E27B681B6803F098
:102F88000103002B00F08780924B5B6803F00C0371
:102F9800042B0CD08F4B5B6803F00C03082B12D169
:102FA8008C4B5B6803F48033B3F5803F0BD1894BBE
:102FB8001B6803F40033002B6CD07B685B68002B24
:102FC80068D101234CE27B685B68B3F5803F06D18A
:102FD800804B1B687F4A43F4803313602EE07B6884
:102FE8005B68002B0CD17B4B1B687A4A23F4803337
:102FF8001360784B1B68774A23F4802313601DE025
:103008007B685B68B3F5A02F0CD1724B1B68714AC3
:1030180043F4802313606F4B1B686E4A43F480337C
:1030280013600BE06B4B1B686A4A23F48033136010
:10303800684B1B68674A23F4802313607B685B68CE
:10304800002B13D0FFF7B4FC386108E0FFF7B0FCA1
:1030580002463B69D31A642B01D9032300E25D4B76
:103068001B6803F40033002BF0D014E0FFF7A0FC3A
:10307800386108E0FFF79CFC02463B69D31A642BD1
:1030880001D90323ECE1534B1B6803F40033002BF5
:10309800F0D100E000BF7B681B6803F00203002B3F
:1030A80063D04C4B5B6803F00C03002B0BD0494BEF
:1030B8005B6803F00C03082B1CD1464B5B6803F4D8
:1030C8008033002B16D1434B1B6803F00203002BFF
:1030D80005D07B681B69012B01D00123C0E13D4B62
:1030E8001B6823F0F8027B685B69DB0039491343EE
:1030F8000B603AE07B681B69002B20D0364B01221D
:103108001A60FFF755FC386108E0FFF751FC0246EA
:103118003B69D31A022B01D90323A1E12D4B1B686C
:1031280003F00203002BF0D02A4B1B6823F0F802AF
:103138007B685B69DB00274913430B6015E0264B6E
:1031480000221A60FFF734FC386108E0FFF730FC12
:1031580002463B69D31A022B01D9032380E11D4B98
:103168001B6803F00203002BF0D17B681B6803F097
:103178000803002B3AD07B689B69002B19D0174BAA
:1031880001221A60FFF714FC386108E0FFF710FC11
:1031980002463B69D31A022B01D9032360E10D4B88
:1031A8005B6A03F00203002BF0D0012000F0CEFA96
:1031B8001CE00A4B00221A60FFF7FAFB38610FE0A7
:1031C800FFF7F6FB02463B69D31A022B08D9032303
:1031D80046E100BF00100240000042428004424223
:1031E800924B5B6A03F00203002BE9D17B681B68F2
:1031F80003F00403002B00F0A6800023FB758B4B23
:10320800DB6903F08053002B0DD1884BDB69874ABB
:1032180043F08053D361854BDB6903F08053BB6077
:10322800BB680123FB75824B1B6803F48073002B7A
:1032380018D17F4B1B687E4A43F480731360FFF7F5
:10324800B7FB386108E0FFF7B3FB02463B69D31AC6
:10325800642B01D9032303E1754B1B6803F48073C6
:10326800002BF0D07B68DB68012B06D16F4B1B6A03
:103278006E4A43F0010313622DE07B68DB68002B84
:103288000CD16A4B1B6A694A23F001031362674B2E
:103298001B6A664A23F0040313621CE07B68DB6840
:1032A800052B0CD1614B1B6A604A43F0040313627F
:1032B8005E4B1B6A5D4A43F0010313620BE05B4BF4
:1032C8001B6A5A4A23F001031362584B1B6A574A78
:1032D80023F0040313627B68DB68002B15D0FFF72B
:1032E80067FB38610AE0FFF763FB02463B69D31AC4
:1032F80041F28832934201D90323B1E04B4B1B6A58
:1033080003F00203002BEED014E0FFF751FB386105
:103318000AE0FFF74DFB02463B69D31A41F28832B7
:10332800934201D903239BE0404B1B6A03F002033D
:10333800002BEED1FB7D012B05D13C4BDB693B4AD1
:1033480023F08053D3617B68DB69002B00F0878012
:10335800364B5B6803F00C03082B61D07B68DB6994
:10336800022B46D1334B00221A60FFF721FB38614C
:1033780008E0FFF71DFB02463B69D31A022B01D96F
:1033880003236DE0294B1B6803F00073002BF0D179
:103398007B681B6AB3F5803F08D1244B5B6823F434
:1033A80000327B689B68214913434B601F4B5B6865
:1033B80023F474127B68196A7B685B6A0B431B49A8
:1033C80013434B601B4B01221A60FFF7F1FA386177
:1033D80008E0FFF7EDFA02463B69D31A022B01D940
:1033E80003233DE0114B1B6803F00073002BF0D062
:1033F80035E0104B00221A60FFF7DAFA386108E06E
:10340800FFF7D6FA02463B69D31A022B01D90323E8
:1034180026E0064B1B6803F00073002BF0D11EE07A
:103428007B68DB69012B07D1012319E000100240FA
:1034380000700040600042420B4B5B68FB60FB6819
:1034480003F480327B681B6A9A4206D1FB6803F456
:1034580070127B685B6A9A4201D0012300E0002366
:1034680018461837BD4680BD0010024080B584B0AC
:1034780000AF786039607B68002B01D10123D0E070
:103488006A4B1B6803F007033A689A4210D9674BE6
:103498001B6823F0070265493B6813430B60634BC5
:1034A8001B6803F007033A689A4201D00123B8E089
:1034B8007B681B6803F00203002B20D07B681B6825
:1034C80003F00403002B05D0594B5B68584A43F4BA
:1034D800E06353607B681B6803F00803002B05D08A
:1034E800534B5B68524A43F460535360504B5B68DC
:1034F80023F0F0027B689B684D4913434B607B685F
:103508001B6803F00103002B40D07B685B68012B2C
:1035180007D1474B1B6803F40033002B15D1012357
:103528007FE07B685B68022B07D1414B1B6803F087
:103538000073002B09D1012373E03D4B1B6803F096
:103548000203002B01D101236BE0394B5B6823F0A8
:1035580003027B685B68364913434B60FFF728FA20
:10356800F8600AE0FFF724FA0246FB68D31A41F232
:103578008832934201D9032353E02D4B5B6803F053
:103588000C027B685B689B009A42EBD1274B1B6857
:1035980003F007033A689A4210D2244B1B6823F0C1
:1035A800070222493B6813430B60204B1B6803F05A
:1035B80007033A689A4201D0012332E07B681B680E
:1035C80003F00403002B08D0194B5B6823F4E06276
:1035D8007B68DB68164913434B607B681B6803F004
:1035E8000803002B09D0124B5B6823F460527B68F8
:1035F8001B69DB000E4913434B6000F021F80246BB
:103608000B4B5B681B0903F00F030A49CB5C22FADA
:1036180003F3094A1360094B1B681846FFF786F93C
:10362800002318461037BD4680BD00BF0020024069
:1036380000100240B096000800000020040000209E
:1036480080B487B000AF0023FB600023BB60002379
:103658007B6100237B6000233B611E4B5B68FB6042
:10366800FB6803F00C03042B02D0082B03D027E0DF
:10367800194B3B6127E0FB689B0C03F00F03174ACB
:10368800D35C7B60FB6803F48033002B10D0114BB4
:103698005B685B0C03F00103114AD35CBB607B6879
:1036A8000D4A03FB02F2BB68B2FBF3F37B6104E053
:1036B8007B680C4A02FB03F37B617B693B6102E098
:1036C800054B3B6100BF3B6918461C37BD4680BCB3
:1036D800704700BF0010024000127A00C896000828
:1036E800D896000800093D0080B400AF024B1B6863
:1036F8001846BD4680BC70470000002080B500AF6A
:10370800FFF7F2FF0246054B5B681B0A03F007034D
:103718000349CB5C22FA03F3184680BD001002402F
:10372800C096000880B500AFFFF7DEFF0246054BE4
:103738005B68DB0A03F007030349CB5C22FA03F357
:10374800184680BD00100240C096000880B485B0BD
:1037580000AF78600A4B1B680A4AA2FB03235B0A86
:103768007A6802FB03F3FB6000BFFB685A1EFA602D
:10377800002BF9D100BF00BF1437BD4680BC70478D
:1037880000000020D34D621080B582B000AF786091
:103798007B68002B01D1012341E07B6893F83D3021
:1037A800DBB2002B06D17B68002283F83C207868C6
:1037B800FEF7D2FD7B68022283F83D207B681A68F9
:1037C8007B6804331946104600F086FD7B680122A9
:1037D80083F846207B68012283F83E207B6801221B
:1037E80083F83F207B68012283F840207B68012210
:1037F80083F841207B68012283F842207B680122FC
:1038080083F843207B68012283F844207B680122E7
:1038180083F845207B68012283F83D200023184661
:103828000837BD4680BD000080B485B000AF786021
:103838007B6893F83D30DBB2012B01D0012344E0D3
:103848007B68022283F83D207B681B68DA687B6806
:103858001B6842F00102DA607B681B681D4A9342CC
:1038680018D07B681B681C4A934213D07B681B687E
:10387800B3F1804F0ED07B681B68184A934209D079
:103888007B681B68164A934204D07B681B68154AFC
:10389800934211D17B681B689B6803F00703FB60A8
:1038A800FB68062B10D07B681B681A687B681B684E
:1038B80042F001021A6007E07B681B681A687B689F
:1038C8001B6842F001021A60002318461437BD46EF
:1038D80080BC7047002C01400034014000040040C7
:1038E80000080040000C004080B582B000AF78604E
:1038F8007B68002B01D1012341E07B6893F83D30C0
:10390800DBB2002B06D17B68002283F83C20786864
:1039180000F039F87B68022283F83D207B681A683A
:103928007B6804331946104600F0D6FC7B680122F8
:1039380083F846207B68012283F83E207B680122B9
:1039480083F83F207B68012283F840207B680122AE
:1039580083F841207B68012283F842207B6801229A
:1039680083F843207B68012283F844207B68012286
:1039780083F845207B68012283F83D200023184600
:103988000837BD4680BD80B483B000AF786000BF03
:103998000C37BD4680BC704780B584B000AF7860F6
:1039A80039603B68002B09D17B6893F83E30DBB265
:1039B800012B14BF01230023DBB222E03B68042B58
:1039C80009D17B6893F83F30DBB2012B14BF012388
:1039D8000023DBB215E03B68082B09D17B6893F81C
:1039E8004030DBB2012B14BF01230023DBB208E017
:1039F8007B6893F84130DBB2012B14BF012300230D
:103A0800DBB2002B01D0012372E03B68002B04D10C
:103A18007B68022283F83E2013E03B68042B04D124
:103A28007B68022283F83F200BE03B68082B04D117
:103A38007B68022283F8402003E07B68022283F837
:103A480041207B681B6801223968184600F000FF96
:103A58007B681B68284A934204D07B681B68274A06
:103A6800934201D1012300E00023002B07D07B689B
:103A78001B685A6C7B681B6842F400425A647B6876
:103A88001B681D4A934218D07B681B681B4A9342E7
:103A980013D07B681B68B3F1804F0ED07B681B681E
:103AA800174A934209D07B681B68164A934204D090
:103AB8007B681B68144A934211D17B681B689B681A
:103AC80003F00703FB60FB68062B10D07B681B68BC
:103AD8001A687B681B6842F001021A6007E07B687D
:103AE8001B681A687B681B6842F001021A60002391
:103AF80018461037BD4680BD002C014000340140F7
:103B08000004004000080040000C004080B586B06A
:103B180000AF786039607B68002B01D1012393E006
:103B28007B6893F83D30DBB2002B06D17B6800221E
:103B380083F83C207868FEF7DBFC7B68022283F878
:103B48003D207B681B689B687A68126823F4804371
:103B580023F0070393607B681A687B68043319466F
:103B6800104600F0B9FB7B681B689B687B617B682B
:103B78001B689B693B617B681B681B6AFB603B6831
:103B88001B687A6913437B613B6923F4407323F014
:103B980003033B613B689A683B689B691B021343BC
:103BA8003A6913433B613B6923F4406323F00C03F8
:103BB8003B613B6923F4704323F0F0033B613B68AE
:103BC800DA683B68DB691B0213433A6913433B61BC
:103BD8003B681B691A013B681B6A1B0313433A695C
:103BE80013433B61FB6823F02203FB603B685A6880
:103BF8003B685B691B011343FA681343FB607B68EE
:103C08001B687A699A607B681B683A699A617B6865
:103C18001B68FA681A627B68012283F846207B6871
:103C2800012283F83E207B68012283F83F207B68CD
:103C3800012283F842207B68012283F843207B68B5
:103C4800012283F83D20002318461837BD4680BD61
:103C580080B584B000AF786039607B6893F83E30F7
:103C6800FB737B6893F83F30BB737B6893F84230F3
:103C78007B737B6893F843303B733B68002B10D110
:103C8800FB7B012B02D17B7B012B01D0012369E057
:103C98007B68022283F83E207B68022283F8422058
:103CA80031E03B68042B10D1BB7B012B02D13B7B5D
:103CB800012B01D0012355E07B68022283F83F20C5
:103CC8007B68022283F843201DE0FB7B012B08D18F
:103CD800BB7B012B05D17B7B012B02D13B7B012BCD
:103CE80001D001233EE07B68022283F83E207B68F6
:103CF800022283F83F207B68022283F842207B68F7
:103D0800022283F843203B68002B03D03B68042B36
:103D180008D00FE07B681B6801220021184600F0DC
:103D280097FD16E07B681B6801220421184600F005
:103D38008FFD0EE07B681B6801220021184600F009
:103D480087FD7B681B6801220421184600F080FD6E
:103D580000BF7B681B681A687B681B6842F0010219
:103D68001A60002318461037BD4680BD80B582B062
:103D780000AF78607B681B681B6903F00203022BA5
:103D880022D17B681B68DB6803F00203022B1BD17E
:103D98007B681B686FF002021A617B6801221A7740
:103DA8007B681B689B6903F00303002B03D07868CA
:103DB80000F076FA05E0786800F069FA786800F0B3
:103DC80078FA7B6800221A777B681B681B6903F006
:103DD8000403042B22D17B681B68DB6803F004030F
:103DE800042B1BD17B681B686FF004021A617B6887
:103DF80002221A777B681B689B6903F44073002BC7
:103E080003D0786800F04CFA05E0786800F03FFAD3
:103E1800786800F04EFA7B6800221A777B681B6886
:103E28001B6903F00803082B22D17B681B68DB6839
:103E380003F00803082B1BD17B681B686FF008028E
:103E48001A617B6804221A777B681B68DB6903F0B8
:103E58000303002B03D0786800F022FA05E07868A5
:103E680000F015FA786800F024FA7B6800221A77C7
:103E78007B681B681B6903F01003102B22D17B6839
:103E88001B68DB6803F01003102B1BD17B681B68D1
:103E98006FF010021A617B6808221A777B681B682A
:103EA800DB6903F44073002B03D0786800F0F8F95D
:103EB80005E0786800F0EBF9786800F0FAF97B68BB
:103EC80000221A777B681B681B6903F00103012B2A
:103ED8000ED17B681B68DB6803F00103012B07D157
:103EE8007B681B686FF001021A617868FDF76CFD4A
:103EF8007B681B681B6903F08003802B0ED17B68ED
:103F08001B68DB6803F08003802B07D17B681B6884
:103F18006FF080021A61786800F084FD7B681B6886
:103F28001B6903F04003402B0ED17B681B68DB68DC
:103F380003F04003402B07D17B681B686FF04002F9
:103F48001A61786800F0BEF97B681B681B6903F08A
:103F58002003202B0ED17B681B68DB6803F020034D
:103F6800202B07D17B681B686FF020021A617868E4
:103F780000F04FFD00BF0837BD4680BD80B586B054
:103F880000AFF860B9607A600023FB75FB6893F8AE
:103F98003C30012B01D10223AEE0FB68012283F8FB
:103FA8003C207B680C2B00F29F8001A252F823F082
:103FB800ED3F0008F1400008F1400008F14000081A
:103FC8002D400008F1400008F1400008F1400008C9
:103FD8006F400008F1400008F1400008F140000877
:103FE800AF400008FB681B68B968184600F0EEF996
:103FF800FB681B689A69FB681B6842F008029A61B3
:10400800FB681B689A69FB681B6822F004029A61C6
:10401800FB681B689969BB681A69FB681B680A43D7
:104028009A6164E0FB681B68B968184600F03EFABC
:10403800FB681B689A69FB681B6842F400629A6116
:10404800FB681B689A69FB681B6822F480629A61A6
:10405800FB681B689969BB681B691A02FB681B68C7
:104068000A439A6143E0FB681B68B968184600F088
:1040780091FAFB681B68DA69FB681B6842F0080262
:10408800DA61FB681B68DA69FB681B6822F00402C6
:10409800DA61FB681B68D969BB681A69FB681B6829
:1040A8000A43DA6123E0FB681B68B968184600F028
:1040B800E5FAFB681B68DA69FB681B6842F4006272
:1040C800DA61FB681B68DA69FB681B6822F48062A6
:1040D800DA61FB681B68D969BB681B691A02FB684F
:1040E8001B680A43DA6102E00123FB7500BFFB6825
:1040F800002283F83C20FB7D18461837BD4680BD5A
:1041080080B584B000AF786039600023FB737B68AA
:1041180093F83C30012B01D10223B4E07B680122E3
:1041280083F83C207B68022283F83D207B681B686B
:104138009B68BB60BB6823F07703BB60BB6823F454
:104148007F43BB607B681B68BA689A603B681B68E2
:10415800B3F5005F3ED0B3F5005F00F28780B3F59A
:10416800805F00F08680B3F5805F7FD8702B1AD00F
:10417800702B7BD8602B50D0602B77D8502B3CD03D
:10418800502B73D8402B58D0402B6FD8302B64D08D
:10419800302B6BD8202B60D0202B67D8002B5CD01D
:1041A800102B5AD062E07B6818683B6899683B68B6
:1041B8005A683B68DB6800F02CFB7B681B689B68CF
:1041C800BB60BB6843F07703BB607B681B68BA6859
:1041D8009A604FE07B6818683B6899683B685A6842
:1041E8003B68DB6800F015FB7B681B689A687B6896
:1041F8001B6842F480429A603CE07B6818683B6820
:1042080059683B68DB681A4600F08CFA7B681B68C3
:104218005021184600F0E3FA2CE07B6818683B68E8
:1042280059683B68DB681A4600F0AAFA7B681B6885
:104238006021184600F0D3FA1CE07B6818683B68D8
:1042480059683B68DB681A4600F06CFA7B681B68A3
:104258004021184600F0C3FA0CE07B681A683B68F6
:104268001B681946104600F0BAFA03E00123FB73F5
:1042780000E000BF7B68012283F83D207B680022B4
:1042880083F83C20FB7B18461037BD4680BD80B4C0
:1042980083B000AF786000BF0C37BD4680BC704764
:1042A80080B483B000AF786000BF0C37BD4680BCD7
:1042B800704780B483B000AF786000BF0C37BD464C
:1042C80080BC704780B483B000AF786000BF0C3703
:1042D800BD4680BC7047000080B485B000AF7860F0
:1042E80039607B681B68FB607B68334A934213D054
:1042F8007B68324A93420FD07B68B3F1804F0BD072
:104308007B682F4A934207D07B682E4A934203D09A
:104318007B682D4A934208D1FB6823F07003FB6049
:104328003B685B68FA681343FB607B68224A9342E8
:1043380013D07B68214A93420FD07B68B3F1804F3A
:104348000BD07B681E4A934207D07B681D4A934274
:1043580003D07B681C4A934208D1FB6823F440735E
:10436800FB603B68DB68FA681343FB60FB6823F07B
:1043780080023B685B691343FB607B68FA681A60DC
:104388003B689A687B68DA623B681A687B689A625D
:104398007B68094A934203D07B68084A934203D159
:1043A8003B681A697B681A637B6801225A6100BFFF
:1043B8001437BD4680BC7047002C014000340140D2
:1043C8000004004000080040000C004080B487B0A2
:1043D80000AF786039607B681B6A7B617B681B6A09
:1043E80023F001027B681A627B685B683B617B682B
:1043F8009B69FB60FB6823F07003FB60FB6823F09C
:104408000303FB603B681B68FA681343FB607B6926
:1044180023F002037B613B689B687A6913437B61E5
:104428007B68204A934203D07B681F4A93420CD191
:104438007B6923F008037B613B68DB687A69134377
:104448007B617B6923F004037B617B68154A934297
:1044580003D07B68144A934211D13B6923F48073DB
:104468003B613B6923F400733B613B685B693A69D4
:1044780013433B613B689B693A6913433B617B6823
:104488003A695A607B68FA689A613B685A687B683F
:104498005A637B687A691A6200BF1C37BD4680BCC4
:1044A800704700BF002C01400034014080B487B041
:1044B80000AF786039607B681B6A7B617B681B6A28
:1044C80023F010027B681A627B685B683B617B683B
:1044D8009B69FB60FB6823F4E043FB60FB6823F403
:1044E8004073FB603B681B681B02FA681343FB6060
:1044F8007B6923F020037B613B689B681B017A6919
:1045080013437B617B68214A934203D07B68204A2E
:1045180093420DD17B6923F080037B613B68DB68A4
:104528001B017A6913437B617B6923F040037B613C
:104538007B68164A934203D07B68154A934213D18D
:104548003B6923F480633B613B6923F400633B616F
:104558003B685B699B003A6913433B613B689B6915
:104568009B003A6913433B617B683A695A607B68F0
:10457800FA689A613B685A687B689A637B687A69CB
:104588001A6200BF1C37BD4680BC7047002C014032
:104598000034014080B487B000AF786039607B6830
:1045A8001B6A7B617B681B6A23F480727B681A62D2
:1045B8007B685B683B617B68DB69FB60FB6823F0B9
:1045C8007003FB60FB6823F00303FB603B681B6818
:1045D800FA681343FB607B6923F400737B613B68D3
:1045E8009B681B027A6913437B617B68214A93426B
:1045F80003D07B68204A93420DD17B6923F4006382
:104608007B613B68DB681B027A6913437B617B69CA
:1046180023F480637B617B68164A934203D07B68EE
:10462800154A934213D13B6923F480533B613B699C
:1046380023F400533B613B685B691B013A691343F0
:104648003B613B689B691B013A6913433B617B688B
:104658003A695A607B68FA68DA613B685A687B682D
:10466800DA637B687A691A6200BF1C37BD4680BC72
:10467800704700BF002C01400034014080B487B06F
:1046880000AF786039607B681B6A3B617B681B6A96
:1046980023F480527B681A627B685B687B617B6865
:1046A800DB69FB60FB6823F4E043FB60FB6823F4F1
:1046B8004073FB603B681B681B02FA681343FB608E
:1046C8003B6923F400533B613B689B681B033A69D1
:1046D80013433B617B68114A934203D07B68104ABD
:1046E800934209D17B6923F480437B613B685B6912
:1046F8009B017A6913437B617B687A695A607B689E
:10470800FA68DA613B685A687B681A647B683A69B8
:104718001A6200BF1C37BD4680BC7047002C0140A0
:104728000034014080B487B000AFF860B9607A60A7
:10473800FB681B6A7B61FB681B6A23F00102FB684C
:104748001A62FB689B693B613B6923F0F0033B619C
:104758007B681B013A6913433B617B6923F00A03B9
:104768007B617A69BB6813437B61FB683A699A612C
:10477800FB687A691A6200BF1C37BD4680BC704767
:1047880080B487B000AFF860B9607A60FB681B6AD4
:104798007B61FB681B6A23F01002FB681A62FB68E6
:1047A8009B693B613B6923F470433B617B681B0356
:1047B8003A6913433B617B6923F0A0037B61BB68C3
:1047C8001B017A6913437B61FB683A699A61FB684C
:1047D8007A691A6200BF1C37BD4680BC704780B436
:1047E80085B000AF786039607B689B68FB60FB68C8
:1047F80023F07003FB603A68FB68134343F0070338
:10480800FB607B68FA689A6000BF1437BD4680BCBD
:10481800704780B487B000AFF860B9607A603B60D9
:10482800FB689B687B617B6923F47F437B613B6802
:104838001A027B681A43BB6813437A6913437B6186
:10484800FB687A699A6000BF1C37BD4680BC704718
:1048580080B487B000AFF860B9607A60BB6803F0D5
:104868001F03012202FA03F37B61FB681A6A7B6962
:10487800DB431A40FB681A62FB681A6ABB6803F0DC
:104888001F03796801FA03F31A43FB681A6200BF31
:104898001C37BD4680BC704780B485B000AF7860D7
:1048A80039607B6893F83C30012B01D1022350E03A
:1048B8007B68012283F83C207B68022283F83D2034
:1048C8007B681B685B68FB607B681B689B68BB60D8
:1048D800FB6823F07003FB603B681B68FA681343AE
:1048E800FB607B681B68FA685A607B681B681B4A18
:1048F800934218D07B681B68194A934213D07B688F
:104908001B68B3F1804F0ED07B681B68154A934231
:1049180009D07B681B68144A934204D07B681B68E3
:10492800124A93420CD1BB6823F08003BB603B68FA
:104938005B68BA681343BB607B681B68BA689A6097
:104948007B68012283F83D207B68002283F83C20A5
:10495800002318461437BD4680BC7047002C014020
:10496800003401400004004000080040000C0040F2
:1049780080B485B000AF786039600023FB607B6845
:1049880093F83C30012B01D102233DE07B680122E2
:1049980083F83C20FB6823F0FF023B68DB68134385
:1049A800FB60FB6823F440723B689B681343FB6021
:1049B800FB6823F480623B685B681343FB60FB6819
:1049C80023F400623B681B681343FB60FB6823F415
:1049D80080523B681B691343FB60FB6823F4005259
:1049E8003B685B691343FB60FB6823F480423B68C8
:1049F800DB691343FB607B681B68FA685A647B6851
:104A0800002283F83C20002318461437BD4680BC9A
:104A1800704780B483B000AF786000BF0C37BD46E4
:104A280080BC704780B483B000AF786000BF0C379B
:104A3800BD4680BC704780B582B000AF78607B68A7
:104A4800002B01D1012342E07B6893F84130DBB2AF
:104A5800002B06D17B68002283F840207868FDF798
:104A6800A1FE7B68242283F841207B681B68DA68F2
:104A78007B681B6822F40052DA60786800F01CF941
:104A88007B681B681A697B681B6822F490421A616C
:104A98007B681B685A697B681B6822F02A025A6186
:104AA8007B681B68DA687B681B6842F40052DA602E
:104AB8007B6800225A647B68202283F841207B6847
:104AC800202283F842207B6800225A63002318467C
:104AD8000837BD4680BD80B58AB002AFF860B960BE
:104AE8003B601346FB8000237B61FB6893F84130F1
:104AF800DBB2202B6DD1BB68002B02D0FB88002BCA
:104B080001D1012366E0FB6800225A64FB68212278
:104B180083F84120FDF74CFF7861FB68FA889A8496
:104B2800FB68FA88DA84FB689B68B3F5805F08D174
:104B3800FB681B69002B04D10023FB61BB68BB61C8
:104B480003E0BB68FB610023BB612AE03B6800937C
:104B58007B6900228021F86800F040F80346002BAA
:104B680001D0032336E0FB69002B0BD1BB691B88FE
:104B78001A46FB681B68C2F308025A60BB69023315
:104B8800BB6107E0FB691A78FB681B685A60FB6920
:104B98000133FB61FB68DB8C9BB2013B9AB2FB687B
:104BA800DA84FB68DB8C9BB2002BCFD13B68009387
:104BB8007B6900224021F86800F010F80346002BBA
:104BC80001D0032306E0FB68202283F8412000235C
:104BD80000E0022318462037BD4680BD80B590B05E
:104BE80000AFF860B9603B601346FB7150E0BB6CE6
:104BF800B3F1FF3F4CD0BB6C002B07D0FDF7D8FEBC
:104C080002463B68D31ABA6C9A4241D2FB681B68C9
:104C18000C33BB62BB6A53E8003F7B627B6A23F4B8
:104C2800D073FB63FB681B680C33FA6B7A633B63D6
:104C3800396B7A6B41E80023FB62FB6A002BE5D1F4
:104C4800FB681B6814337B617B6953E8003F3B6159
:104C58003B6923F00103BB63FB681B681433BA6B21
:104C68003A62FB61F9693A6A41E80023BB61BB69B2
:104C7800002BE5D1FB68202283F84120FB68202225
:104C880083F84220FB68002283F8402003230FE0CA
:104C9800FB681B681A68BB681340BA689A420CBF65
:104CA80001230023DBB21A46FB799A429FD00023E6
:104CB80018464037BD4680BD80B584B000AF7860E7
:104CC8007B681B681B6923F440517B68DA687B6842
:104CD8001B680A431A617B689A687B681B691A43D8
:104CE8007B685B691343BB607B681B68DB6823F4E4
:104CF800B05323F00C037A681268B9680B43D36089
:104D08007B681B685B6923F440717B689A697B68E0
:104D18001B680A435A617B681B682C4A934203D17B
:104D2800FEF700FDF86002E0FEF7E8FCF860FA68BC
:104D380013469B0013449A001A447B685B689B00E7
:104D4800B2FBF3F3224AA2FB03235B091901FA68B9
:104D580013469B0013449A001A447B685B689B00C7
:104D6800B2FBF3F21A4BA3FB02035B09642000FBBE
:104D780003F3D31A1B013233154AA2FB03235B0941
:104D880003F0F0031944FA6813469B0013449A0091
:104D98001A447B685B689B00B2FBF3F20C4BA3FBE5
:104DA80002035B09642000FB03F3D31A1B013233AF
:104DB800074AA2FB03235B0903F00F027B681B6809
:104DC8000A449A6000BF1037BD4680BD00380140D4
:104DD8001F85EB51002B2DE9F0471F46BBBF03F1A0
:104DE80000431F4600232D2388B01446129A109DB5
:104DF8001370149BDDF84CA023F02008B8F1460F7F
:104E080005D0B8F1450F00D10135022300E0032396
:104E180007AA049206AACDE902A2CDE900352246E6
:104E28003B4601F075F9B8F1470F064602D1119BD0
:104E3800DB0722D5B8F1460F06EB050910D1337808
:104E4800302B0AD10022002320463946FBF7C8FE42
:104E580018B9C5F10105CAF80050DAF800309944CC
:104E68000022002320463946FBF7BAFE08B1CDF8E8
:104E78001C903022079B4B4507D33046079B159A59
:104E88009B1B136008B0BDE8F087591C07911A7086
:104E9800F0E70346F7B5002903F8022BB6BF2D2229
:104EA8002B224942092942702ADD0DF107021746D3
:104EB8000A2691FBF6F5944606FB151430340CF8D7
:104EC800014C0C46632C294602F1FF32F1DC3031EB
:104ED800ACF1020402F8011C2246411CBA420AD372
:104EE8000DF10902A2EB0C02BC4288BF0022134458
:104EF800181A03B0F0BD12F8015B01F8015FEDE785
:104F0800302330318370C170031DF1E72DE9F04F74
:104F180091B00C46DDF8688016461F46054600F03D
:104F2800E3FF036818460993FBF77AF900230E9309
:104F3800D8F800300A90073323F0070303F108027A
:104F480094F81890D4F800B0C8F80020D3E900A865
:104F580052464346C4E9122328F000430B934FF00E
:104F6800FF3250469C4B0B99FBF76CFE70BB4FF021
:104F7800FF325046984B0B99FBF746FE30BB002298
:104F8800002350464146FBF735FE10B12D2384F827
:104F98004330924A924BB9F1470F94BF90469846D6
:104FA80003234FF0000A23612BF0040323603346E8
:104FB8002146284600970FAA00F0D6F9013040F0A4
:104FC80090804FF0FF3011B0BDE8F08F5246434655
:104FD80050464146FBF736FE48B1B8F1000FB8BF5E
:104FE8002D23804AB8BF84F843307F4BD3E76368EA
:104FF80009F0DF015A1C42D10623636000220692A1
:105008000EAACDE904920DAA4BF4806303920DF128
:105018003302CDE901322360636852460093284683
:1050280043460B91FFF7D6FE0B99804647290D9909
:1050380008D1C81C02DB6368994240DDA9F1020966
:105048005FFA89F9B9F1650F1FD84A46013904F1A9
:1050580050000D91FFF71DFF0E9A82461318012A82
:10506800236102DC2268D20701D5013323619DF850
:105078003330002B9BD02D2384F8433097E7472902
:10508800BCD1002BBAD10123B7E7B9F1660F18D10B
:10509800002963680BDD216113B92268D00702D5A6
:1050A80001330B4423614FF0000AA165DFE713B910
:1050B8002268D20701D50233F4E70123F2E74FF063
:1050C80067090E9B994205DB23682161D807EAD559
:1050D8004B1CE7E70029CCBF0122C1F102021344AF
:1050E800E0E723685A0507D4236942463146284633
:1050F800B84701302BD164E7B9F1650F40F2DD8084
:10510800D4E9120100220023FBF76AFD002833D0FE
:10511800012331462846354AB84701303FF451AF9C
:10512800DDE90D239A4202DB2368D8070FD5DDE9B4
:10513800092331462846B84701303FF442AF4FF0C3
:10514800000804F11A090E9B013B434509DC23685A
:105158009B0700F10481E0680F9B9842B8BF18468E
:1051680031E701234A4631462846B84701303FF423
:1051780028AF08F10108E6E70D9B002B38DC012376
:1051880031462846194AB84701303FF41AAFDDE9DD
:105198000D32134302D12368D907D8D5DDE9092395
:1051A80031462846B84701303FF40BAF4FF00009AD
:1051B80004F11A0A0D9B5B424B4501DC0E9B94E7F8
:1051C8000123524631462846B84701303FF4F9AE2C
:1051D80009F10109EEE700BFFFFFEF7FDA9600084B
:1051E800DE960008E2960008E6960008EA960008AF
:1051F8000E9AA36D9A42A8BF1A46002A914637DC38
:105208004FF0000B29EAE97904F11A02D4F858A002
:10521800AAEB09035B4533DCDDE90D239A423BDB4E
:105228002368DA0738D4DDE90D32A2EB0309A2EBD3
:105238000A029145A8BF9146B9F1000F34DC4FF03E
:10524800000829EAE97904F11A0ADDE90D239B1A15
:10525800A3EB090343457FF77AAF01235246314652
:105268002846B84701303FF4ACAE08F10108ECE736
:105278001346314642462846B8470130C0D1A0E619
:105288000123314628460B92B84701303FF499AEC6
:105298000B9A0BF1010BB9E73146DDE909232846E2
:1052A800B8470130BFD18CE64B463146284608EB5B
:1052B8000A02B8470130C2D183E60E9A012A01DCFE
:1052C800DB0739D50123424631462846B847013025
:1052D8003FF477AEDDE9092331462846B847013067
:1052E8003FF46FAED4E9120100220023DDF83890B4
:1052F800FBF776FCD8B909F1FF3308F10102314612
:105308002846B84701300ED15BE601234A463146AC
:105318002846B84701303FF454AE08F101080E9B07
:10532800013B4345F1DC534604F15002DEE64FF001
:10533800000804F11A09F2E701234246DFE70123D6
:105348004A4631462846B84701303FF43AAE08F19C
:105358000108E3680F995B1A4345F0DCFBE64FF060
:10536800000804F11909F4E72DE9F04716469946B3
:105378008A680B6907469342B8BF1346336091F8B1
:1053880043200C46DDF820800AB1013333602368DE
:10539800990642BF336802333360256815F0060565
:1053A80006D104F1190AE36832689B1AAB422BDC78
:1053B80094F84320131E226818BF0123920630D4A4
:1053C8004946384604F14302C047013023D02368D8
:1053D800226903F00603042B14BF002533684FF03D
:1053E800000608BFE56804F11A0408BFED1A54F86E
:1053F800123C08BF25EAE5759342C4BF9B1AED1815
:10540800B5421AD1002008E00123524649463846E1
:10541800C047013003D14FF0FF30BDE8F0870135B8
:10542800C1E73020E11881F843005A1C94F8451070
:105438002244023382F84310C2E701232246494638
:105448003846C0470130E6D00136D9E72DE9FF4795
:105458000F7E9146782F80460C469A460C9D01F1A6
:10546800430207D8622F0AD8002F00F0D580582FA2
:1054780000F0C18004F1420584F842703AE0A7F1D7
:105488006303152BF6D801A151F823F0ED54000859
:10549800015500087D5400087D5400087D5400081B
:1054A8007D540008015500087D5400087D5400080B
:1054B8007D5400087D540008075600082D55000843
:1054C800C15500087D5400087D540008295600087D
:1054D8007D5400082D5500087D5400087D540008AF
:1054E800C95500082B681A1D1B682A6004F142057B
:1054F80084F842300123A0E020682B68070603F1F6
:105508000401296001D51E6803E04606FBD5B3F9FE
:105518000060002E03DA2D23764284F843300A23F4
:10552800594812E02B682068191D2960050601D525
:105538001E6802E04106FBD51E886F2F0CBF0823AA
:105548000A235148002184F843106568002DA8BF3C
:105558002168A560A4BF21F0040121600EB9002DC7
:105568004BD01546B6FBF3F103FB1167C75D05F891
:10557800017D3746BB420E46F4D9082B0BD1236870
:10558800DE0708D5236961689942DEBF302305F834
:10559800013C05F1FF35521B22614B46214640462E
:1055A800CDF800A003AAFFF7DFFE01304AD14FF083
:1055B800FF3004B0BDE8F087236843F02003236080
:1055C8007827324884F84570236829681F0651F8FF
:1055D800046B02D45F0648BFB6B2DF0748BF43F08A
:1055E8002003296048BF23601EB9236823F02003E5
:1055F80023601023A6E72448E4E71546BDE72B6897
:105608002668181D6169286035061B6801D5196070
:1056180002E07006FBD51980002315462361BCE71C
:105628002B6800211A1D2A601D686268284600F050
:10563800D1FC08B1401B606063682361002384F8D3
:105648004330AAE72A46494640462369D0470130F5
:10565800ADD023689B0713D4E068039B9842B8BF7A
:105668001846A6E70123324649464046D04701304E
:105678009DD00135E36803995B1AAB42F2DCEBE796
:10568800002504F11906F5E7EC960008FD960008D8
:105698002DE9F04F87B003938B6817465A1EB2F571
:1056A800AE7F85BF6FF4AE755B190023029388BF88
:1056B80040F25D138B464FF000058CBF8B60029360
:1056C8000B68804643F4F0634BF81C3B0C465E467F
:1056D800AA46A946CDE904550195A26852B13B688E
:1056E8001B784E2B64D8402B3CD8A3F12B01C8B2B1
:1056F8000E283AD9B9F1000F03D0236823F4807338
:1057080023600AF1FF3ABAF1010F00F213815E45F6
:1057180000F205810125284607B0BDE8F08FA3F106
:1057280061020D2AE6D801A151F822F07358000849
:10573800FD560008FD560008FD560008D35800081D
:10574800AB580008FD560008FD56000881580008AF
:10575800FD560008FD560008FD560008FD560008D5
:1057680039580008A3F14102DBE70E29C2D801A08D
:1057780050F821F02B580008FD5600082B58000857
:10578800BF580008FD560008D957000815580008EA
:10579800155800081558000815580008155800082D
:1057A800155800081558000815580008155800081D
:1057B8006E2B09D8602BB2D8542B77D0592B99D19E
:1057C800072D97D1082529E0742B6FD0792BF6E7A0
:1057D8002168C8051AD5029B21F08001216009F1D2
:1057E80001091BB1013B01320293A260A368013B8E
:1057F800A3602369013323617B68013B002B7B6035
:1058080040F384803B6801333B6066E71AEB050F81
:105818007FF470AF226822F4C072226006F8013B60
:10582800E4E7226810067FF565AF22F08002F4E70E
:10583800BAF1000F0ED1B9F1000F0ED1226802F4AF
:10584800E061B1F5E06F08D122F4F0624FF0010A8F
:105858002260E3E7BAF1020F55D0012D02D0042DE2
:105868007FF448AF0135EDB2D8E7BAF1010F7FF404
:1058780041AF4FF0020AD1E77DB9B9F1000F7FF4CB
:105888003CAF226802F4E061B1F5E06F7FF439AF14
:1058980022F4F06201252260C0E7032DE2D0052D35
:1058A800DEE7022D7FF426AF0325B7E7062D7FF448
:1058B80021AF0725B2E7226891057FF51BAF22F4D7
:1058C80020722260CDF80490A8E7226802F4A06153
:1058D800B1F5806F06D050057FF50CAFB9F1000F18
:1058E8003FF40FAF910558BF019922F4F06258BFF9
:1058F800A9EB010142F4C0724FF0000958BFCDE98D
:10590800041622608AE74FF0030A87E739464046C3
:10591800D4F88031984700283FF4DFAEEAE6D4F89F
:105928007C313A46404616F8011D98472369013BE9
:105938002361ECE66B1E062B25D8022D36D85E4572
:105948007FF6E8AED4F87C313A46404616F8011D99
:1059580098472369013B2361F1E70298D4F87C3129
:1059680010F8011D3A460290404698472369013BCA
:1059780023610AF1FF3A5FFA8AFABAF1020FECD111
:10598800033DEDB2761B2368DA052FD55B0510D5EC
:105998005E457FF6BFAED4F87C313A46404616F8ED
:1059A800011D98472369013B2361F1E7AA46029646
:1059B800DFE716F8011C2369652903F1FF3306F1B7
:1059C800FF3523610CD045290AD0D4F87C313A46FA
:1059D80040469847236916F8021C013BB51E23610F
:1059E8003A464046D4F87C3198472E46256815F04B
:1059F800100555D13570236803F4C063B3F5806F83
:105A08001DD1019B4B45A3EB090225D10022594624
:105A1800404602F011FD039BD4F800C01B681CF03F
:105A2800020F06460F4603F1040220D003990A60CC
:105A38001B68C3E90067E3680133E3606BE6049B16
:105A4800002BE3D005990A232A464046013102F08B
:105A580077FD049B059EC21A04F26F139E4228BF6D
:105A680004F5B77630460F4900F03EF9CEE71CF052
:105A7800040FDBD1DDF80CC0CCF80020D3F800808F
:105A880002460B46FBF7DEF828B1074800F0B0FAEB
:105A9800C8F80000CFE730463946FBF731F9F7E799
:105AA800002538E60E970008A59A0008002310B5CF
:105AB8000446C0E90033C0E904338360818143664A
:105AC800C2818361194608225C3000F005FA054B53
