:020000040800F2
:1000000000C00020810D0008410A0008470A0008CE
:100010004D0A0008530A0008590A000800000000B1
:100020000000000000000000000000005F0A00085F
:100030006B0A000800000000770A0008830A000825
:10004000C90D0008C90D0008C90D0008C90D000838
:10005000C90D0008C90D0008C90D0008C90D000828
:10006000C90D0008C90D0008C90D0008C90D000818
:10007000C90D0008C90D0008C90D0008C90D000808
:10008000C90D0008C90D0008C90D0008C90D0008F8
:10009000C90D0008C90D0008C90D0008C90D0008E8
:1000A000C90D0008C90D0008C90D0008C90D0008D8
:1000B000C90D0008C90D0008C90D0008C90D0008C8
:1000C000C90D0008C90D0008C90D0008C90D0008B8
:1000D000C90D0008C90D0008C90D0008C90D0008A8
:1000E000C90D0008C90D0008C90D0008C90D000898
:1000F000C90D0008C90D0008C90D0008C90D000888
:10010000C90D0008C90D0008C90D0008C90D000877
:10011000C90D0008C90D0008C90D0008C90D000867
:10012000C90D0008C90D0008C90D0008C90D000857
:1001300000000000000000000000000000000000BF
:1001400000000000000000000000000000000000AF
:10015000000000000000000000000000000000009F
:10016000000000000000000000000000000000008F
:10017000000000000000000000000000000000007F
:10018000000000000000000000000000000000006F
:10019000000000000000000000000000000000005F
:1001A000000000000000000000000000000000004F
:1001B000000000000000000000000000000000003F
:1001C000000000000000000000000000000000002F
:1001D000000000000000000000000000000000001F
:0401E0005FF8E0F1F3
:1001E40010B5054C237833B9044B13B10448AFF36D
:1001F40000800123237010BD0C00002000000000CB
:10020400B425000808B5034B1BB103490348AFF3F9
:10021400008008BD0000000010000020B425000884
:1002240081F0004102E000BF83F0004330B54FEAA3
:1002340041044FEA430594EA050F08BF90EA020F10
:100244001FBF54EA000C55EA020C7FEA645C7FEAA3
:10025400655C00F0E2804FEA5454D4EB5555B8BFC6
:100264006D420CDD2C4480EA020281EA030382EA37
:10027400000083EA010180EA020281EA0303362DC9
:1002840088BF30BD11F0004F4FEA01314FF4801C9C
:100294004CEA113102D0404261EB410113F0004FAE
:1002A4004FEA03334CEA133302D0524263EB430365
:1002B40094EA050F00F0A780A4F10104D5F1200E03
:1002C4000DDB02FA0EFC22FA05F2801841F100015E
:1002D40003FA0EF2801843FA05F359410EE0A5F132
:1002E40020050EF1200E012A03FA0EFC28BF4CF063
:1002F400020C43FA05F3C01851EBE37101F0004519
:1003040007D54FF0000EDCF1000C7EEB00006EEB25
:100314000101B1F5801F1BD3B1F5001F0CD34908AF
:100324005FEA30004FEA3C0C04F101044FEA445206
:1003340012F5800F80F09A80BCF1004F08BF5FEA8D
:10034400500C50F1000041EB045141EA050130BD6D
:100354005FEA4C0C404141EB0101013C28BFB1F57F
:10036400801FE9D291F0000F04BF01460020B1FACA
:1003740081F308BF2033A3F10B03B3F120020CDA9D
:100384000C3208DD02F1140CC2F10C0201FA0CF07B
:1003940021FA02F10CE002F11402D8BFC2F1200CE0
:1003A40001FA02F120FA0CFCDCBF41EA0C01904096
:1003B400E41AA2BF01EB0451294330BD6FEA0404DF
:1003C4001F3C1CDA0C340EDC04F11404C4F12002CA
:1003D40020FA04F001FA02F340EA030021FA04F3DC
:1003E40045EA030130BDC4F10C04C4F1200220FA33
:1003F40002F001FA04F340EA0300294630BD21FA71
:1004040004F0294630BD94F0000F83F4801306BF36
:1004140081F480110134013D4EE77FEA645C18BF2A
:100424007FEA655C29D094EA050F08BF90EA020FC1
:1004340005D054EA000C04BF1946104630BD91EAB9
:10044400030F1EBF0021002030BD5FEA545C05D1BC
:100454004000494128BF41F0004130BD14F58004FB
:100464003CBF01F5801130BD01F0004545F0FE416F
:1004740041F470014FF0000030BD7FEA645C1ABFA4
:10048400194610467FEA655C1CBF0B46024650EADB
:10049400013406BF52EA033591EA030F41F4002107
:1004A40030BD00BF90F0000F04BF0021704730B58D
:1004B4004FF4806404F132044FF000054FF0000162
:1004C40050E700BF90F0000F04BF0021704730B523
:1004D4004FF4806404F1320410F0004548BF4042F8
:1004E4004FF000013EE700BF42004FEAE2014FEA4D
:1004F40031014FEA02701FBF12F07F4393F07F4F28
:1005040081F06051704732F07F4208BF704793F02A
:100514007F4F04BF41F40021704730B54FF460743D
:1005240001F0004521F000411CE700BF50EA010240
:1005340008BF704730B54FF000050AE050EA0102E9
:1005440008BF704730B511F0004502D5404261EB59
:1005540041014FF4806404F132045FEA915C3FF49A
:10056400D8AE4FF003025FEADC0C18BF03325FEA37
:10057400DC0C18BF033202EBDC02C2F1200300FAE8
:1005840003FC20FA02F001FA03FE40EA0E0021FA0D
:1005940002F11444BDE600BF4A0011D212F5001264
:1005A40011D20DD56FF47873B3EB62520ED44FEAC7
:1005B400C12343F0004343EA505323FA02F0704747
:1005C4004FF00000704750EA013002D14FF0FF3085
:1005D40070474FF00000704780B588B000AF07F156
:1005E400100300221A605A609A60DA60234B9B69F8
:1005F400224A43F020039361204B9B6903F02003BC
:10060400FB60FB681D4B9B691C4A43F0100393611C
:100614001A4B9B6903F01003BB60BB68174B9B69C3
:10062400164A43F004039361144B9B6903F00403DB
:100634007B607B68114B9B69104A43F0080393610C
:100644000E4B9B6903F008033B603B6800220F21BB
:100654000B4800F0B7FE0F233B6101237B610023AD
:10066400BB610223FB6107F110031946044800F043
:1006740015FD00BF2037BD4680BD00BF00100240FD
:100684000010014080B500AF01220121044800F0B0
:1006940099FE00220221024800F094FE00BF80BDB2
:1006A4000010014080B500AF01220421044800F08D
:1006B40089FE00220821024800F084FE00BF80BDAC
:1006C4000010014080B500AF00220121044800F071
:1006D40079FE01220221024800F074FE00BF80BDB1
:1006E4000010014080B500AF00220421044800F04E
:1006F40069FE01220821024800F064FE00BF80BDAB
:100704000010014080B500AF00220121044800F030
:1007140059FE00220221024800F054FE00BF80BDB1
:100724000010014080B500AF00220421044800F00D
:1007340049FE00220821024800F044FE00BF80BDAB
:100744000010014080B584B000AF0346B9607A6000
:10075400FB73FB7B022B20D0022B2BDC002B02D063
:10076400012B0DD026E0FFF78DFFFFF79BFF144B05
:100774001B68BA685A63124B1B687A689A631AE05A
:10078400FFF7A0FFFFF7AEFF0D4B1B68BA685A6373
:100794000B4B1B687A689A630DE0FFF7B3FFFFF712
:1007A400C1FF074B1B6800225A63054B1B680022DC
:1007B4009A6300E000BF00BF1037BD4680BD00BF94
:1007C4007000002080B586B000AFF860B9601346B1
:1007D400FB710023FB82FB79B42B36D8FB796422AE
:1007E40002FB03F31B4A82FB03121A449211DB1728
:1007F400D31A1846FFF766FE4FF00002164BFFF7B8
:1008040015FD02460B4610461946FFF7C5FE034682
:10081400FB82BB68002B04D1FB681B68FA8A5A630D
:1008240013E0BB68042B04D1FB681A68FB8A93634A
:100834000BE0BB68082B04D1FB681A68FB8AD363FE
:1008440003E0FB681A68FB8A136400BF1837BD46CF
:1008540080BD00BFB7600BB60000494080B500AF53
:1008640000F0B2FA00F06EF8FFF7B6FE00F06EF991
:1008740000F012F90021314801F0EAF904212F486F
:1008840001F0E6F908212E4801F0E2F94FF4FA727A
:100894004FF4FA710020FFF755FF5A220821284827
:1008A400FFF790FF4FF4FA6000F0F0FA4FF4FA60AB
:1008B40000F0ECFA4FF4FA724FF4FA710020FFF7EB
:1008C40041FF4FF4FA6000F0E1FA00220021022017
:1008D400FFF738FF4FF4FA6000F0D8FA4FF4FA72D9
:1008E4004FF4FA710120FFF72DFF4FF4FA6000F086
:1008F400CDFA4FF4FA7200210020FFF723FF4FF4E2
:10090400FA6000F0C3FA00224FF4FA710020FFF7F6
:1009140019FF4FF4FA6000F0B9FA4FF4FA720021AB
:100924000120FFF70FFF4FF4FA6000F0AFFA002246
:100934004FF4FA710120FFF705FFB7E770000020BC
:100944002800002080B590B000AF07F118032822DA
:100954000021184601F0FFFD3B1D00221A605A6079
:100964009A60DA601A610123BB614FF48033FB6142
:1009740000233B620123BB6202237B634FF4803379
:10098400BB634FF4E013FB6307F11803184600F050
:1009940031FD0346002B01D000F019F80F237B60D2
:1009A4000223BB600023FB604FF480633B610023A0
:1009B4007B613B1D0221184600F09EFF0346002B7D
:1009C40001D000F004F800BF4037BD4680BD80B4BC
:1009D40000AF72B600BFFEE780B485B000AF154B20
:1009E4009B69144A43F001039361124B9B6903F022
:1009F4000103BB60BB680F4BDB690E4A43F08053B5
:100A0400D3610C4BDB6903F080537B607B680A4B3A
:100A14005B68FB60FB6823F0E063FB60FB6843F00A
:100A24000073FB60044AFB68536000BF1437BD4683
:100A340080BC7047001002400000014080B400AF49
:100A4400FEE780B400AFFEE780B400AFFEE780B4F9
:100A540000AFFEE780B400AFFEE780B400AF00BF94
:100A6400BD4680BC704780B400AF00BFBD4680BCAB
:100A7400704780B400AF00BFBD4680BC704780B5EE
:100A840000AF00F0E7F900BF80BD80B400AF00BF45
:100A9400BD4680BC7047000080B58AB000AF07F146
:100AA400200300221A605A603B1D00221A605A601B
:100AB4009A60DA601A615A619A61224B224A1A607A
:100AC400204B40F2CF225A601E4B00229A601D4BED
:100AD40040F2CF72DA601B4B00221A61194B0022DC
:100AE4009A61184801F064F80346002B01D0FFF71F
:100AF4006EFF00233B6200237B6207F1200319464B
:100B0400104801F06BFC0346002B01D0FFF75FFF98
:100B140060237B600023BB600023FB6000237B61B8
:100B24003B1D08221946074801F04CF90346002BE7
:100B340001D0FFF74CFF034800F0CAF800BF283784
:100B4400BD4680BD280000200008004080B592B05A
:100B540000AF07F1400300221A605A6007F1240332
:100B640000221A605A609A60DA601A615A619A61C6
:100B74003B1D20220021184601F0EDFC394B3A4A76
:100B84001A60384B03225A60364B00229A60354B68
:100B940040F2E732DA60334B00221A61314B002213
:100BA4005A61304B00229A612E4801F001F8034645
:100BB400002B01D0FFF70BFF00233B6400237B6471
:100BC40007F140031946274801F008FC0346002BAF
:100BD40001D0FFF7FCFE60237B620023BB6200238D
:100BE400FB6200233B6300237B630023BB6300237E
:100BF400FB6307F12403002219461A4801F0E2F8C6
:100C04000346002B01D0FFF7E2FE07F12403042280
:100C14001946144801F0D6F80346002B01D0FFF71B
:100C2400D6FE00237B600023BB600023FB6000230F
:100C34003B6100237B614FF40053BB6100233B62A3
:100C44003B1D1946074801F035FC0346002B01D033
:100C5400FFF7BDFE034800F03BF800BF4837BD4630
:100C640080BD00BF700000200034014080B485B016
:100C740000AF78607B681B68124A93420CD1124B18
:100C8400DB69114A43F00403D3610F4BDB6903F0C2
:100C94000403FB60FB6810E07B681B680B4A93420B
:100CA4000BD1094B9B69084A43F400539361064BEB
:100CB4009B6903F40053BB60BB6800BF1437BD4697
:100CC40080BC70470008004000100240003401401E
:100CD40080B588B000AF786007F1100300221A6075
:100CE4005A609A60DA607B681B681F4A934219D184
:100CF4001E4B9B691D4A43F0080393611B4B9B6980
:100D040003F00803FB60FB684FF480733B6102232C
:100D14007B610223FB6107F110031946144800F0BC
:100D2400BDF91CE07B681B68124A934217D10F4B34
:100D34009B690E4A43F0100393610C4B9B6903F0CB
:100D44001003BB60BB68C0233B6102237B610223A9
:100D5400FB6107F110031946074800F09FF900BF33
:100D64002037BD4680BD00BF00080040001002408F
:100D7400000C01400034014000100140FFF785FEE3
:100D84000B480C490C4A002302E0D458C4500433E5
:100D9400C4188C42F9D3094A094C002301E01360BA
:100DA4000432A242FBD301F0DFFBFFF757FD70478B
:100DB400000000200C000020F82500080C00002092
:100DC400BC000020FEE7000080B500AF084B1B68A4
:100DD400074A43F010031360032000F02BF90F209F
:100DE40000F008F8FFF7F8FD0023184680BD00BFA7
:100DF4000020024080B582B000AF7860124B1A68C0
:100E0400124B1B7819464FF47A73B3FBF1F3B2FB20
:100E1400F3F3184600F035F90346002B01D0012303
:100E24000EE07B680F2B0AD8002279684FF0FF3060
:100E340000F00BF9064A7B681360002300E00123ED
:100E440018460837BD4680BD000000200800002079
:100E54000400002080B400AF054B1B781A46054BF4
:100E64001B681344034A136000BFBD4680BC70472F
:100E740008000020B800002080B400AF024B1B68BB
:100E84001846BD4680BC7047B800002080B584B0C9
:100E940000AF7860FFF7F0FFB8607B68FB60FB6829
:100EA400B3F1FF3F05D00A4B1B781A46FB68134485
:100EB400FB6000BFFFF7E0FF0246BB68D31AFA6885
:100EC4009A42F7D800BF00BF1037BD4680BD00BFAF
:100ED4000800002080B485B000AF78607B6803F020
:100EE4000703FB600C4BDB68BB60BA684FF6FF037B
:100EF4001340BB60FB681A02BB68134343F0BF6333
:100F040043F40033BB60044ABB68D36000BF1437AA
:100F1400BD4680BC704700BF00ED00E080B400AF68
:100F2400044BDB681B0A03F007031846BD4680BC6C
:100F3400704700BF00ED00E080B483B000AF03460B
:100F44003960FB7197F90730002B0ADB3B68DAB292
:100F54000C4997F907301201D2B20B4483F80023ED
:100F64000AE03B68DAB20849FB7903F00F03043B5B
:100F74001201D2B20B441A7600BF0C37BD4680BCB6
:100F8400704700BF00E100E000ED00E080B489B0EC
:100F940000AFF860B9607A60FB6803F00703FB6197
:100FA400FB69C3F10703042B28BF0423BB61FB695E
:100FB4000433062B02D9FB69033B00E000237B6169
:100FC4004FF0FF32BB6902FA03F3DA43BB681A40FD
:100FD4007B699A404FF0FF317B6901FA03F3D943EF
:100FE4007B680B40134318462437BD4680BC7047CA
:100FF40080B582B000AF78607B68013BB3F1807F3D
:1010040001D301230FE00A4A7B68013B53600F219F
:101014004FF0FF30FFF790FF054B00229A60044B1E
:1010240007221A60002318460837BD4680BD00BF5A
:1010340010E000E080B582B000AF78607868FFF718
:1010440049FF00BF0837BD4680BD80B586B000AFFC
:101054000346B9607A60FB7300237B61FFF75EFF90
:1010640078617A68B9687869FFF790FF024697F962
:101074000F3011461846FFF75FFF00BF1837BD4613
:1010840080BD80B582B000AF78607868FFF7B0FFAC
:10109400034618460837BD4680BD000080B48BB0B7
:1010A40000AF7860396000237B6200233B6279E102
:1010B40001227B6A02FA03F3FB613B681B68FA694D
:1010C4001340BB61BA69FB699A4240F068813B688E
:1010D4005B68964A93425ED0944A934275D8944A88
:1010E400934258D0924A93426FD8924A934252D034
:1010F400904A934269D8904A93424CD08E4A934284
:1011040063D88E4A934246D08C4A93425DD8122BC0
:101114002AD8122B59D801A252F823F09B110008A7
:101124007511000887110008C9110008CF110008C3
:10113400CF110008CF110008CF110008CF1100080B
:10114400CF110008CF110008CF110008CF110008FB
:10115400CF110008CF110008CF110008CF110008EB
:101164007D11000891110008754A934213D02CE0B8
:101174003B68DB683B6229E03B68DB6804333B6225
:1011840024E03B68DB6808333B621FE03B68DB68B4
:101194000C333B621AE03B689B68002B02D10423AA
:1011A4003B6213E03B689B68012B05D108233B623B
:1011B4007B68FA691A6109E008233B627B68FA6973
:1011C4005A6103E000233B6200E000BFBB69FF2BD0
:1011D40001D87B6801E07B6804337B61BB69FF2B2A
:1011E40002D87B6A9B0002E07B6A083B9B003B6160
:1011F4007B691A680F213B6901FA03F3DB431A4048
:10120400396A3B6901FA03F31A437B691A603B6844
:101214005B6803F08053002B00F0C180494B9B694D
:10122400484A43F001039361464B9B6903F0010371
:10123400BB60BB68444A7B6A9B08023352F8233084
:10124400FB607B6A03F003039B000F2202FA03F3A3
:10125400DB43FA681340FB607B683C4A93421FD02F
:101264007B683B4A934219D07B683A4A934213D035
:101274007B68394A93420DD07B68384A934207D041
:101284007B68374A934201D105230AE0062308E02C
:10129400042306E0032304E0022302E0012300E028
:1012A40000237A6A02F0030292009340FA6813431F
:1012B400FB6025497B6A9B080233FA6841F82320C6
:1012C4003B685B6803F48013002B06D0254B9A68B7
:1012D4002449BB6913438B6006E0224B9A68BB69BF
:1012E400DB43204913408B603B685B6803F40013C5
:1012F400002B06D01B4BDA681A49BB691343CB6039
:1013040006E0184BDA68BB69DB4316491340CB602F
:101314003B685B6803F40033002B25D0114B5A68FB
:101324001049BB6913434B6025E000BF0000321035
:1013340000003110000022100000211000001210E3
:10134400000011100010024000000140000801409C
:10135400000C01400010014000140140001801403D
:10136400001C014000040140154B5A68BB69DB4373
:10137400134913404B603B685B6803F48033002BD4
:1013840006D00F4B1A680E49BB6913430B6006E085
:101394000B4B1A68BB69DB43094913400B607B6A3A
:1013A40001337B623B681A687B6A22FA03F3002BE1
:1013B4007FF47EAE00BF00BF2C37BD4680BC7047B3
:1013C4000004014080B483B000AF78600B467B809A
:1013D40013467B707B78002B03D07A887B681A6174
:1013E40003E07B881A047B681A6100BF0C37BD4692
:1013F40080BC704780B586B000AF78607B68002BF6
:1014040001D1012372E27B681B6803F00103002B06
:1014140000F08780924B5B6803F00C03042B0CD024
:101424008F4B5B6803F00C03082B12D18C4B5B6869
:1014340003F48033B3F5803F0BD1894B1B6803F46D
:101444000033002B6CD07B685B68002B68D10123D0
:101454004CE27B685B68B3F5803F06D1804B1B6828
:101464007F4A43F4803313602EE07B685B68002B73
:101474000CD17B4B1B687A4A23F480331360784B7E
:101484001B68774A23F4802313601DE07B685B6844
:10149400B3F5A02F0CD1724B1B68714A43F480231F
:1014A40013606F4B1B686E4A43F4803313600BE088
:1014B4006B4B1B686A4A23F480331360684B1B68C8
:1014C400674A23F4802313607B685B68002B13D086
:1014D400FFF7D2FC386108E0FFF7CEFC02463B6917
:1014E400D31A642B01D9032300E25D4B1B6803F478
:1014F4000033002BF0D014E0FFF7BEFC386108E0A5
:10150400FFF7BAFC02463B69D31A642B01D90323C3
:10151400ECE1534B1B6803F40033002BF0D100E0E3
:1015240000BF7B681B6803F00203002B63D04C4BA5
:101534005B6803F00C03002B0BD0494B5B6803F092
:101544000C03082B1CD1464B5B6803F48033002B3F
:1015540016D1434B1B6803F00203002B05D07B68B4
:101564001B69012B01D00123C0E13D4B1B6823F013
:10157400F8027B685B69DB00394913430B603AE08E
:101584007B681B69002B20D0364B01221A60FFF7C1
:1015940073FC386108E0FFF76FFC02463B69D31A1D
:1015A400022B01D90323A1E12D4B1B6803F0020395
:1015B400002BF0D02A4B1B6823F0F8027B685B6990
:1015C400DB00274913430B6015E0264B00221A6009
:1015D400FFF752FC386108E0FFF74EFC02463B6916
:1015E400D31A022B01D9032380E11D4B1B6803F09E
:1015F4000203002BF0D17B681B6803F00803002B67
:101604003AD07B689B69002B19D0174B01221A60D2
:10161400FFF732FC386108E0FFF72EFC02463B6915
:10162400D31A022B01D9032360E10D4B5B6A03F04B
:101634000203002BF0D0012000F09CFA1CE00A4BBE
:1016440000221A60FFF718FC38610FE0FFF714FC62
:1016540002463B69D31A022B08D9032346E100BF93
:10166400001002400000424280044242924B5B6AF6
:1016740003F00203002BE9D17B681B6803F0040329
:10168400002B00F0A6800023FB758B4BDB6903F075
:101694008053002B0DD1884BDB69874A43F080537C
:1016A400D361854BDB6903F08053BB60BB680123C6
:1016B400FB75824B1B6803F48073002B18D17F4B9E
:1016C4001B687E4A43F480731360FFF7D5FB3861CF
:1016D40008E0FFF7D1FB02463B69D31A642B01D91A
:1016E400032303E1754B1B6803F48073002BF0D0D4
:1016F4007B68DB68012B06D16F4B1B6A6E4A43F093
:10170400010313622DE07B68DB68002B0CD16A4B6C
:101714001B6A694A23F001031362674B1B6A664A1A
:1017240023F0040313621CE07B68DB68052B0CD1F7
:10173400614B1B6A604A43F0040313625E4B1B6AED
:101744005D4A43F0010313620BE05B4B1B6A5A4A88
:1017540023F001031362584B1B6A574A23F0040316
:1017640013627B68DB68002B15D0FFF785FB3861BB
:101774000AE0FFF781FB02463B69D31A41F2883243
:10178400934201D90323B1E04B4B1B6A03F00203DC
:10179400002BEED014E0FFF76FFB38610AE0FFF78F
:1017A4006BFB02463B69D31A41F28832934201D95A
:1017B40003239BE0404B1B6A03F00203002BEED192
:1017C400FB7D012B05D13C4BDB693B4A23F0805365
:1017D400D3617B68DB69002B00F08780364B5B6844
:1017E40003F00C03082B61D07B68DB69022B46D124
:1017F400334B00221A60FFF73FFB386108E0FFF724
:101804003BFB02463B69D31A022B01D903236DE04B
:10181400294B1B6803F00073002BF0D17B681B6A13
:10182400B3F5803F08D1244B5B6823F400327B6816
:101834009B68214913434B601F4B5B6823F474126C
:101844007B68196A7B685B6A0B431B4913434B60D3
:101854001B4B01221A60FFF70FFB386108E0FFF70A
:101864000BFB02463B69D31A022B01D903233DE04B
:10187400114B1B6803F00073002BF0D035E0104BC4
:1018840000221A60FFF7F8FA386108E0FFF7F4FA6B
:1018940002463B69D31A022B01D9032326E0064BE7
:1018A4001B6803F00073002BF0D11EE07B68DB693A
:1018B400012B07D1012319E0001002400070004001
:1018C400600042420B4B5B68FB60FB6803F48032B0
:1018D4007B681B6A9A4206D1FB6803F470127B682A
:1018E4005B6A9A4201D0012300E0002318461837AE
:1018F400BD4680BD0010024080B584B000AF786062
:1019040039607B68002B01D10123D0E06A4B1B684E
:1019140003F007033A689A4210D9674B1B6823F017
:10192400070265493B6813430B60634B1B6803F074
:1019340007033A689A4201D00123B8E07B681B6828
:1019440003F00203002B20D07B681B6803F0040320
:10195400002B05D0594B5B68584A43F4E06353604D
:101964007B681B6803F00803002B05D0534B5B68AE
:10197400524A43F460535360504B5B6823F0F002C7
:101984007B689B684D4913434B607B681B6803F07D
:101994000103002B40D07B685B68012B07D1474BC8
:1019A4001B6803F40033002B15D101237FE07B680F
:1019B4005B68022B07D1414B1B6803F00073002BBB
:1019C40009D1012373E03D4B1B6803F00203002B94
:1019D40001D101236BE0394B5B6823F003027B6880
:1019E4005B68364913434B60FFF746FAF8600AE038
:1019F400FFF742FA0246FB68D31A41F28832934257
:101A040001D9032353E02D4B5B6803F00C027B6880
:101A14005B689B009A42EBD1274B1B6803F00703DA
:101A24003A689A4210D2244B1B6823F007022249D9
:101A34003B6813430B60204B1B6803F007033A68B1
:101A44009A4201D0012332E07B681B6803F004034F
:101A5400002B08D0194B5B6823F4E0627B68DB68D9
:101A6400164913434B607B681B6803F00803002B83
:101A740009D0124B5B6823F460527B681B69DB005E
:101A84000E4913434B6000F021F802460B4B5B6890
:101A94001B0903F00F030A49CB5C22FA03F3094A3A
:101AA4001360094B1B681846FFF7A4F90023184676
:101AB4001037BD4680BD00BF002002400010024028
:101AC400CC250008000000200400002080B487B06A
:101AD40000AF0023FB600023BB6000237B61002375
:101AE4007B6000233B611E4B5B68FB60FB6803F07B
:101AF4000C03042B02D0082B03D027E0194B3B61C5
:101B040027E0FB689B0C03F00F03174AD35C7B6050
:101B1400FB6803F48033002B10D0114B5B685B0C23
:101B240003F00103114AD35CBB607B680D4A03FBDD
:101B340002F2BB68B2FBF3F37B6104E07B680C4AFE
:101B440002FB03F37B617B693B6102E0054B3B6174
:101B540000BF3B6918461C37BD4680BC704700BFB8
:101B64000010024000127A00DC250008EC25000871
:101B740000093D0080B485B000AF78600A4B1B6853
:101B84000A4AA2FB03235B0A7A6802FB03F3FB60A5
:101B940000BFFB685A1EFA60002BF9D100BF00BFDA
:101BA4001437BD4680BC704700000020D34D62103E
:101BB40080B582B000AF78607B68002B01D101232F
:101BC40041E07B6893F83D30DBB2002B06D17B68A3
:101BD400002283F83C207868FFF748F87B680222EB
:101BE40083F83D207B681A687B68043319461046E5
:101BF40000F0AAF97B68012283F846207B68012261
:101C040083F83E207B68012283F83F207B68012211
:101C140083F840207B68012283F841207B680122FD
:101C240083F842207B68012283F843207B680122E9
:101C340083F844207B68012283F845207B680122D5
:101C440083F83D20002318460837BD4680BD0000B8
:101C540080B584B000AF786039603B68002B09D14F
:101C64007B6893F83E30DBB2012B14BF01230023C1
:101C7400DBB222E03B68042B09D17B6893F83F3048
:101C8400DBB2012B14BF01230023DBB215E03B6858
:101C9400082B09D17B6893F84030DBB2012B14BFC9
:101CA40001230023DBB208E07B6893F84130DBB208
:101CB400012B14BF01230023DBB2002B01D001232D
:101CC40072E03B68002B04D17B68022283F83E203B
:101CD40013E03B68042B04D17B68022283F83F2085
:101CE4000BE03B68082B04D17B68022283F8402078
:101CF40003E07B68022283F841207B681B68012291
:101D04003968184600F046FB7B681B68284A9342F2
:101D140004D07B681B68274A934201D1012300E069
:101D24000023002B07D07B681B685A6C7B681B68F8
:101D340042F400425A647B681B681D4A934218D0DF
:101D44007B681B681B4A934213D07B681B68B3F102
:101D5400804F0ED07B681B68174A934209D07B687A
:101D64001B68164A934204D07B681B68144A93424A
:101D740011D17B681B689B6803F00703FB60FB6859
:101D8400062B10D07B681B681A687B681B6842F0BE
:101D940001021A6007E07B681B681A687B681B688D
:101DA40042F001021A60002318461037BD4680BD78
:101DB400002C0140003401400004004000080040B1
:101DC400000C004080B586B000AFF860B9607A605E
:101DD4000023FB75FB6893F83C30012B01D10223EF
:101DE400AEE0FB68012283F83C207B680C2B00F2F8
:101DF4009F8001A252F823F0311E0008351F00080D
:101E0400351F0008351F0008711E0008351F000823
:101E1400351F0008351F0008B31E0008351F0008D1
:101E2400351F0008351F0008F31E0008FB681B68F7
:101E3400B968184600F002F9FB681B689A69FB68E8
:101E44001B6842F008029A61FB681B689A69FB6888
:101E54001B6822F004029A61FB681B689969BB68DD
:101E64001A69FB681B680A439A6164E0FB681B6893
:101E7400B968184600F052F9FB681B689A69FB6858
:101E84001B6842F400629A61FB681B689A69FB68EC
:101E94001B6822F480629A61FB681B689969BB68BD
:101EA4001B691A02FB681B680A439A6143E0FB68DA
:101EB4001B68B968184600F0A5F9FB681B68DA6965
:101EC400FB681B6842F00802DA61FB681B68DA6988
:101ED400FB681B6822F00402DA61FB681B68D9699D
:101EE400BB681A69FB681B680A43DA6123E0FB6874
:101EF4001B68B968184600F0F9F9FB681B68DA69D1
:101F0400FB681B6842F40062DA61FB681B68DA69EB
:101F1400FB681B6822F48062DA61FB681B68D9697C
:101F2400BB681B691A02FB681B680A43DA6102E09A
:101F34000123FB7500BFFB68002283F83C20FB7D76
:101F440018461837BD4680BD80B485B000AF7860B0
:101F540039607B681B68FB607B68334A934213D00B
:101F64007B68324A93420FD07B68B3F1804F0BD029
:101F74007B682F4A934207D07B682E4A934203D052
:101F84007B682D4A934208D1FB6823F07003FB6001
:101F94003B685B68FA681343FB607B68224A9342A0
:101FA40013D07B68214A93420FD07B68B3F1804FF2
:101FB4000BD07B681E4A934207D07B681D4A93422C
:101FC40003D07B681C4A934208D1FB6823F4407316
:101FD400FB603B68DB68FA681343FB60FB6823F033
:101FE40080023B685B691343FB607B68FA681A6094
:101FF4003B689A687B68DA623B681A687B689A6215
:102004007B68094A934203D07B68084A934203D110
:102014003B681A697B681A637B6801225A6100BFB6
:102024001437BD4680BC7047002C01400034014089
:102034000004004000080040000C004080B487B059
:1020440000AF786039607B681B6A7B617B681B6AC0
:1020540023F001027B681A627B685B683B617B68E2
:102064009B69FB60FB6823F07003FB60FB6823F053
:102074000303FB603B681B68FA681343FB607B69DE
:1020840023F002037B613B689B687A6913437B619D
:102094007B68204A934203D07B681F4A93420CD149
:1020A4007B6923F008037B613B68DB687A6913432F
:1020B4007B617B6923F004037B617B68154A93424F
:1020C40003D07B68144A934211D13B6923F4807393
:1020D4003B613B6923F400733B613B685B693A698C
:1020E40013433B613B689B693A6913433B617B68DB
:1020F4003A695A607B68FA689A613B685A687B68F7
:102104005A637B687A691A6200BF1C37BD4680BC7B
:10211400704700BF002C01400034014080B487B0F8
:1021240000AF786039607B681B6A7B617B681B6ADF
:1021340023F010027B681A627B685B683B617B68F2
:102144009B69FB60FB6823F4E043FB60FB6823F4BA
:102154004073FB603B681B681B02FA681343FB6017
:102164007B6923F020037B613B689B681B017A69D0
:1021740013437B617B68214A934203D07B68204AE6
:1021840093420DD17B6923F080037B613B68DB685C
:102194001B017A6913437B617B6923F040037B61F4
:1021A4007B68164A934203D07B68154A934213D145
:1021B4003B6923F480633B613B6923F400633B6127
:1021C4003B685B699B003A6913433B613B689B69CD
:1021D4009B003A6913433B617B683A695A607B68A8
:1021E400FA689A613B685A687B689A637B687A6983
:1021F4001A6200BF1C37BD4680BC7047002C0140EA
:102204000034014080B487B000AF786039607B68E7
:102214001B6A7B617B681B6A23F480727B681A6289
:102224007B685B683B617B68DB69FB60FB6823F070
:102234007003FB60FB6823F00303FB603B681B68CF
:10224400FA681343FB607B6923F400737B613B688A
:102254009B681B027A6913437B617B68214A934222
:1022640003D07B68204A93420DD17B6923F4006339
:102274007B613B68DB681B027A6913437B617B6982
:1022840023F480637B617B68164A934203D07B68A6
:10229400154A934213D13B6923F480533B613B6954
:1022A40023F400533B613B685B691B013A691343A8
:1022B4003B613B689B691B013A6913433B617B6843
:1022C4003A695A607B68FA68DA613B685A687B68E5
:1022D400DA637B687A691A6200BF1C37BD4680BC2A
:1022E400704700BF002C01400034014080B487B027
:1022F40000AF786039607B681B6A3B617B681B6A4E
:1023040023F480527B681A627B685B687B617B681C
:10231400DB69FB60FB6823F4E043FB60FB6823F4A8
:102324004073FB603B681B681B02FA681343FB6045
:102334003B6923F400533B613B689B681B033A6988
:1023440013433B617B68114A934203D07B68104A74
:10235400934209D17B6923F480437B613B685B69C9
:102364009B017A6913437B617B687A695A607B6855
:10237400FA68DA613B685A687B681A647B683A6970
:102384001A6200BF1C37BD4680BC7047002C014058
:102394000034014080B487B000AFF860B9607A605F
:1023A400BB6803F01F03012202FA03F37B61FB689D
:1023B4001A6A7B69DB431A40FB681A62FB681A6A73
:1023C400BB6803F01F03796801FA03F31A43FB683F
:1023D4001A6200BF1C37BD4680BC704780B485B00C
:1023E40000AF786039607B6893F83C30012B01D1F1
:1023F400022350E07B68012283F83C207B680222A0
:1024040083F83D207B681B685B68FB607B681B6806
:102414009B68BB60FB6823F07003FB603B681B6830
:10242400FA681343FB607B681B68FA685A607B6830
:102434001B681B4A934218D07B681B68194A934255
:1024440013D07B681B68B3F1804F0ED07B681B6888
:10245400154A934209D07B681B68144A934204D0FE
:102464007B681B68124A93420CD1BB6823F080033B
:10247400BB603B685B68BA681343BB607B681B68DE
:10248400BA689A607B68012283F83D207B68002249
:1024940083F83C20002318461437BD4680BC70479F
:1024A400002C0140003401400004004000080040BA
:1024B400000C004080B485B000AF78603960002320
:1024C400FB607B6893F83C30012B01D102233DE093
:1024D4007B68012283F83C20FB6823F0FF023B6801
:1024E400DB681343FB60FB6823F440723B689B6822
:1024F4001343FB60FB6823F480623B685B6813430F
:10250400FB60FB6823F400623B681B681343FB60B9
:10251400FB6823F480523B681B691343FB60FB6830
:1025240023F400523B685B691343FB60FB6823F4AC
:1025340080423B68DB691343FB607B681B68FA6875
:102544005A647B68002283F83C2000231846143721
:10255400BD4680BC704703460244934200D1704795
:1025640003F8011BF9E7000070B500260C4D0D4C73
:10257400641BA410A64209D100F01AF800260A4DE3
:102584000A4C641BA410A64205D170BD55F8043B47
:1025940098470136EEE755F8043B98470136F2E7D1
:1025A400F0250008F0250008F0250008F4250008AF
:1025B400F8B500BFF8BC08BC9E467047F8B500BF2C
:0825C400F8BC08BC9E467047FC
:1025CC0000000000000000000102030406070809D7
:1025DC0002030405060708090A0B0C0D0E0F101058
:0425EC0001020000E8
:0425F00009020008D4
:0425F400E5010008F5
:0C25F8000024F4001000000001000000AE
:0400000508000D8161
:00000001FF
